:020000040000FA
:1000000000040020E90800007D050000C908000088
:1000100087050000910500009B050000000000001E
:100020000000000000000000000000000D090000BA
:10003000A505000000000000AF050000B9050000A4
:10004000C3050000CD050000D7050000E105000054
:10005000EB050000F5050000FF05000009060000A3
:10006000130600001D0600002706000031060000F0
:100070003B060000450600004F0600005906000040
:10008000630600006D060000770600008106000090
:100090008B060000950600009F060000A9060000E0
:1000A000B3060000BD060000C7060000D106000030
:1000B000DB060000E5060000EF060000F906000080
:1000C000030700000D0700001707000021070000CC
:1000D0002B070000350700003F070000490700001C
:1000E000530700005D07000067070000710700006C
:1000F0007B070000850700008F07000099070000BC
:10010000A30700001FB500F003F88DE80F001FBD26
:1001100000F0E0BB1FB56FF00100009040100390AD
:10012000029001904FF010208069000B420900F00E
:100130001F045DF822300120A04083434DF8223097
:10014000684600F045F91FBDF0B54FF6FF734FF458
:10015000B4751A466E1E11E0A94201D3344600E080
:100160000C46091B30F8027B641E3B441A44F9D14B
:100170009CB204EB134394B204EB12420029EBD17E
:1001800098B200EB134002EB124140EA0140F0BD8F
:10019000DE4992B00446D1E90001CDE91001FF2209
:1001A0004021684600F03CFB94E80F008DE80F000A
:1001B000684610A902E004C841F8042D8842FAD12B
:1001C00010216846FFF7C0FF1090AA208DF8440068
:1001D000FFF7A0FF00F0F3F84FF01024A069102201
:1001E0006946803000F002F9A069082210A900F0E9
:1001F000FDF800F0D8F84FF080510A6949690068AD
:100200004A43824201D8102070470020704710B541
:10021000D0E900214FF0805002EB8103026944696C
:100220006243934209D84FF01022536903EB8103D4
:100230000169406941438B4201D9092010BD5069D1
:10024000401C01D0002010BD0F2010BD70B501680A
:100250000446AF4D4FF01020072952D2DFE801F0DD
:10026000330419293C1E2500D4E902656468294637
:10027000304600F0CDF82A462146304600F0B6F868
:10028000AA002146304600F09FFA002800D0032043
:1002900070BD00F051FB4FF4805007E0201DFFF7C8
:1002A000AAFF0028F4D100F047FB60682860002016
:1002B00070BD241D94E80700920000F085FA002824
:1002C000F6D00E2070BD8069401C12D0201DFFF7B3
:1002D0009EFF0028F6D109E08069401C09D0201D4E
:1002E000FFF789FF0028EDD1606820B12046FFF7B5
:1002F0004FFF042070BDFFF70DFF00F060F800F025
:1003000052F8072070BD10B50C46182802D0012005
:10031000086010BD2068FFF799FF206010BD4FF006
:100320001024A069401C05D0A569A66980353079E4
:10033000AA2808D06069401C2DD060690068401C64
:1003400029D060692CE010212846FFF7FDFE3168B6
:1003500081421CD1A16901F18002C03105E030B1B8
:1003600008CA51F8040D984201D1012000E0002094
:100370008A42F4D158B1286810B1042803D0FEE7AE
:10038000284600F057F862496868086008E000F005
:1003900016F800F008F84FF480500168491C01D0AD
:1003A00000F0A4FAFEE7BFF34F8F5A4801685A4A9B
:1003B00001F4E06111430160BFF34F8FFEE74FF09E
:1003C00010208169491C02D0806900F0AEB87047E6
:1003D000524A01681160121D416811604F4A8168DC
:1003E00010321160111DC068086070472DE9F0419E
:1003F00017460D460646002406E03046296800F000
:10040000A7F8641C2D1D361DBC42F6D3BDE8F08153
:1004100070B50C4605464FF4806608E0284600F0AB
:1004200084F8B44205D3A4F5806405F58055002C0A
:10043000F4D170BD4168044609B1012500E00025F2
:100440004FF010267069A268920000F0BDF9C8B1A3
:10045000204600F01AF89DB17669A56864684FF4EB
:10046000002084420AD2854208D229463046FFF74E
:10047000CFFF2A4621463046FFF7B8FFFFF79FFF20
:10048000FFF791FFFFF746FEF8E72DE9FF414FF038
:100490001024616980680D0B01EB800000F6FF708D
:1004A000010B0020009001900290024603906846E4
:1004B00001230BE0560902F01F0C50F8267003FAD6
:1004C0000CFC47EA0C0740F82670521CAA42F1D3F4
:1004D0000AE04A0901F01F0650F8225003FA06F616
:1004E000354340F82250491C8029F2D3A169090BF9
:1004F0004A0901F01F0150F822408B409C4340F80C
:100500002240FFF765FFBDE8FF8100005C090000A5
:10051000000000200CED00E00400FA050006004099
:10052000144801680029FCD07047134A0221116069
:1005300010490B68002BFCD00F4B1B1D186008687E
:100540000028FCD00020106008680028FCD070470C
:10055000094B10B501221A60064A1468002CFCD021
:10056000016010680028FCD0002018601068002886
:10057000FCD010BD00E4014004E5014008208F4993
:1005800009680958084710208C4909680958084724
:1005900014208A49096809580847182087490968BA
:1005A0000958084730208549096809580847382004
:1005B00082490968095808473C2080490968095858
:1005C000084740207D4909680958084744207B496D
:1005D00009680958084748207849096809580847B0
:1005E0004C20764909680958084750207349096822
:1005F0000958084754207149096809580847582084
:100600006E490968095808475C206C49096809580F
:100610000847602069490968095808476420674904
:100620000968095808476820644909680958084753
:100630006C20624909680958084770205F490968B9
:100640000958084774205D49096809580847782007
:100650005A490968095808477C20584909680958C7
:10066000084780205549096809580847842053499C
:1006700009680958084788205049096809580847F7
:100680008C204E4909680958084790204B49096851
:10069000095808479420494909680958084798208B
:1006A00046490968095808479C204449096809587F
:1006B0000847A0204149096809580847A4203F4934
:1006C000096809580847A8203C490968095808479B
:1006D000AC203A49096809580847B02037490968E9
:1006E00009580847B4203549096809580847B8200F
:1006F0003249096809580847BC2030490968095837
:100700000847C0202D49096809580847C4202B49CB
:10071000096809580847C82028490968095808473E
:10072000CC202649096809580847D0202349096880
:1007300009580847D4202149096809580847D82092
:100740001E49096809580847DC201C4909680958EE
:100750000847E0201949096809580847E420174963
:10076000096809580847E8201449096809580847E2
:10077000EC201249096809580847F0200F49096818
:1007800009580847F4200D49096809580847F82016
:100790000A49096809580847FC20084909680958A6
:1007A00008475FF480700549096809580847000048
:1007B00003480449024A034B704700000000002030
:1007C000680900006809000040EA010310B59B07B2
:1007D0000FD1042A0DD310C808C9121F9C42F8D0AB
:1007E00020BA19BA884201D9012010BD4FF0FF305C
:1007F00010BD1AB1D30703D0521C07E0002010BD72
:1008000010F8013B11F8014B1B1B07D110F8013BFD
:1008100011F8014B1B1B01D1921EF1D1184610BDDE
:1008200002F0FF0343EA032242EA024200F005B865
:100830007047704770474FF000020429C0F01280E3
:1008400010F0030C00F01B80CCF1040CBCF1020F83
:1008500018BF00F8012BA8BF20F8022BA1EB0C0158
:1008600000F00DB85FEAC17C24BF00F8012B00F84E
:10087000012B48BF00F8012B70474FF0000200B574
:10088000134694469646203922BFA0E80C50A0E8B3
:100890000C50B1F12001BFF4F7AF090728BFA0E861
:1008A0000C5048BF0CC05DF804EB890028BF40F82D
:1008B000042B08BF704748BF20F8022B11F0804F6F
:1008C00018BF00F8012B7047014B1B68DB68184705
:1008D0000000002009480A497047FFF7FBFFFFF7B7
:1008E00011FC00BD20BFFDE7064B1847064A10600B
:1008F000016881F30888406800470000680900002B
:10090000680900001F030000000000201EF0040F13
:100910000CBFEFF30881EFF3098188690238007892
:10092000182803D100E00000074A1047074A126860
:100930002C3212681047000000B5054B1B68054AB1
:100940009B58984700BD00000703000000000020EE
:100950005809000004000000001000000000000022
:0809600000FFFFFF0090D0032F
:1010000078130020394D0200EDBF00009F4C020014
:10101000EDBF0000EDBF0000EDBF000000000000CC
:10102000000000000000000000000000954D0200DC
:10103000EDBF000000000000EDBF0000EDBF0000AC
:10104000FD4D0200034E0200EDBF0000EDBF0000A9
:10105000EDBF0000EDBF0000EDBF0000EDBF0000E0
:10106000094E0200EDBF0000EDBF00000F4E020070
:10107000EDBF0000154E02001B4E0200214E020083
:10108000EDBF0000EDBF0000EDBF0000EDBF0000B0
:10109000EDBF0000EDBF0000EDBF0000EDBF0000A0
:1010A000EDBF0000274E0200EDBF0000EDBF0000C5
:1010B000EDBF0000EDBF0000EDBF0000EDBF000080
:1010C0002D4E0200EDBF0000EDBF0000EDBF00009F
:1010D000EDBF0000EDBF0000EDBF0000EDBF000060
:1010E000EDBF0000EDBF0000EDBF0000EDBF000050
:1010F000EDBF0000EDBF0000EDBF0000EDBF000040
:10110000EDBF0000EDBF000000F002F823F003FE89
:101110000AA090E8000C82448344AAF10107DA4552
:1011200001D123F0F8FDAFF2090EBAE80F0013F079
:10113000010F18BFFB1A43F001031847DC410200FE
:10114000FC4102000A444FF0000C10F8013B13F080
:10115000070408BF10F8014B1D1108BF10F8015B10
:10116000641E05D010F8016B641E01F8016BF9D103
:1011700013F0080F1EBF10F8014BAD1C0C1B09D15A
:101180006D1E58BF01F801CBFAD505E014F8016BCC
:1011900001F8016B6D1EF9D59142D6D3704700005E
:1011A0000023002400250026103A28BF78C1FBD870
:1011B000520728BF30C148BF0B6070471FB500F011
:1011C0003DF88DE80F001FBD1EF0040F0CBFEFF3BC
:1011D0000880EFF30980014A104700002FBF00008C
:1011E000F0B44046494652465B460FB402A0013077
:1011F00001B50648004700BF01BC86460FBC8046CB
:10120000894692469B46F0BC7047000009110000D9
:101210008269034981614FF001001044704700006A
:101220002512000001B41EB400B514F01FFD01B476
:101230000198864601BC01B01EBD000023F068BDC8
:1012400070B51A4C054609202070A01C00F0D1F89A
:101250005920A08029462046BDE8704008F0B0B86B
:1012600008F0B9B870B50C461149097829B1A0F158
:1012700060015E2908D3012013E0602804D06928AA
:1012800002D043F201000CE020CC0A4E94E80E009C
:1012900006EB8000A0F58050241FD0F8806E284611
:1012A000B047206070BD012070470000080000209A
:1012B00018000020784E02003249884201D20120F5
:1012C00070470020704770B50446A0F500002E4E10
:1012D000B0F1786F02D23444A4F500042948844266
:1012E00001D2012500E0002500F043F848B125B9FE
:1012F000B44204D32548006808E0012070BD0020F6
:1013000070BD002DF9D1B442F9D321488442F6D200
:10131000F3E710B50446A0F50000B0F1786F03D2F2
:1013200019480444A4F5000400F023F84FF080416C
:1013300030B11648006804E08C4204D2012003E07A
:1013400013488442F8D2002080F0010010BD10B58F
:1013500020B1FFF7DEFF08B1012010BD002010BD55
:1013600010B520B1FFF7AFFF08B1012010BD00207C
:1013700010BD084808490068884201D10120704723
:101380000020704700600200000000201C000020C8
:101390000800002054000020BEBAFECA10B5044662
:1013A0000021012000F03DF800210B2000F039F869
:1013B0000421192000F035F804210D2000F031F847
:1013C00004210E2000F02DF804210F2000F029F850
:1013D0000421C84300F025F80621162000F021F86A
:1013E0000621152000F01DF82046FFF729FF0020F8
:1013F00010BDAF2101807047FFF732BF1148704721
:1014000010487047104A10B514680F4B0F4A083344
:101410001A60FFF727FF0C48001D046010BD7047DD
:1014200070474907090E002804DB00F1E02080F82E
:101430000014704700F00F0000F1E02080F8141D48
:101440007047000003F9004210050240010000014E
:10145000FE48002101604160018170472DE9F7439A
:10146000044692B091464068FFF771FF40B1606852
:10147000FFF776FF20B9607800F00300022801D062
:10148000012000E00020F14E30724846FFF71BFFBC
:1014900018B1102015B0BDE8F0834946012001F0D5
:1014A0008EFE0028F6D101258DF842504FF4C05031
:1014B000ADF84000002210A9284606F0F7FB0028EE
:1014C000E8D18DF842504FF428504FF00008ADF8A5
:1014D000400047461C216846CDF81C8023F0B3FB32
:1014E0009DF81C0008AA20F00F00401C20F0F0001E
:1014F00010308DF81C0020788DF81D0061789DF863
:101500001E0061F3420040F001008DF81E009DF8BE
:1015100000000AA940F002008DF800002089ADF813
:101520003000ADF83270608907AFADF834000B972A
:10153000606810AC0E900A94684606F0AAF900287C
:10154000A8D1BDF8200030808DF8425042F601202D
:10155000ADF840009DF81E0008AA20F00600801C8F
:1015600020F001008DF81E000220ADF83000ADF82B
:10157000340013A80E900AA9684606F08AF90028DC
:1015800088D1BDF820007080311D484600F033F945
:10159000002887D18DF8425042F6A620ADF84000D1
:1015A0001C216846CDF81C8023F04DFB9DF81C00E3
:1015B000ADF8345020F00F00401C20F0F000103047
:1015C0008DF81C009DF81D0008AA20F0FF008DF882
:1015D0001D009DF81E000AA920F0060040F0010041
:1015E000801C8DF81E009DF800008DF8445040F0DE
:1015F00002008DF80000CDE90A4711A80E90ADF861
:101600003050684606F045F9002899D1BDF8200011
:10161000F08000203EE73EB504460820ADF800000B
:101620002046FFF750FE08B110203EBD21460120A4
:1016300001F0C5FD0028F8D12088ADF804006088CD
:10164000ADF80600A088ADF80800E088ADF80A0003
:101650007E4801AB6A468088002106F023FDBDF874
:1016600000100829E1D003203EBD1FB5044600202C
:1016700002900820ADF80800CDF80CD02046FFF706
:1016800022FE10B1102004B010BD704802AA81885B
:101690004FF6FF7006F048FF0028F4D1BDF808109F
:1016A000082901D00320EEE7BDF800102180BDF825
:1016B00002106180BDF80410A180BDF80610E18021
:1016C000E1E701B582B00220ADF800005F4802AB4F
:1016D0006A464088002106F0E5FCBDF800100229AA
:1016E00000D003200EBD1CB5002100910221ADF8F1
:1016F00000100190FFF70DFE08B110201CBD5348EB
:101700006A4641884FF6FF7006F00EFFBDF80010E4
:101710000229F3D003201CBDFEB54C4C06461546ED
:10172000207A0F46C00705D00846FFF7CCFD18B158
:101730001020FEBD0F20FEBDF82D01D90C20FEBDEE
:101740003046FFF7C0FD18BB208801A905F0A6FDB3
:101750000028F4D130788DF80500208801A906F022
:101760007FFC0028EBD100909DF800009DF805104B
:1017700040F002008DF80000090703D040F0080097
:101780008DF800002088694606F007FC0028D6D1B5
:10179000ADF8085020883B4602AA002106F082FCE2
:1017A000BDF80810A942CAD00320FEBD7CB505468D
:1017B0000020009001900888ADF800000C462846F3
:1017C0000195FFF7C4FD18B92046FFF7A2FD08B147
:1017D00010207CBD15B1BDF8000050B11B486A4611
:1017E00001884FF6FF7006F09FFEBDF800102180C3
:1017F0007CBD0C207CBD30B593B0044600200D4666
:101800000090142101A823F01EFA1C2108A823F03F
:101810001AFA9DF80000CDF808D020F00F00401C07
:1018200020F0F00010308DF800009DF8010020F04D
:10183000FF008DF801009DF8200040F002008DF8B7
:10184000200001208DF8460002E000001C0200206C
:1018500042F60420ADF8440011A801902088ADF8AC
:101860003C006088ADF83E00A088ADF84000E088FC
:10187000ADF842009DF8020006AA20F00600801C88
:1018800020F001008DF802000820ADF80C00ADF842
:1018900010000FA8059001A908A805F0FAFF00287C
:1018A00003D1BDF818002880002013B030BD00001F
:1018B000F0B5007B059F1E4614460D46012800D05A
:1018C000FFDF0C2030803A203880002C08D0287AA6
:1018D000032806D0287B012800D0FFDF1720608175
:1018E000F0BDA889FBE72DE9F04786B0144691F8D2
:1018F0000C900E9A0D46B9F1010F0BD01021007B10
:101900002E8A8846052807D0062833D0FFDF06B088
:10191000BDE8F0870221F2E7E8890C2100EB4000E6
:1019200001EB4000188033201080002CEFD0E889B4
:10193000608100271AE00096688808F1020301AA76
:10194000696900F084FF06EB0800801C07EB470183
:1019500086B204EB4102BDF8040090810DF106014E
:1019600040460E3212F02FFC7F1CBFB26089B84295
:10197000E1D8CCE734201080E889B9F1010F11D00B
:10198000122148430E301880002CC0D0E8896081B5
:101990004846B9F1010F00D00220207300270DF155
:1019A000040A1FE00621ECE70096688808F10203AC
:1019B00001AA696900F04BFF06EB0800801C86B2A3
:1019C000B9F1010F12D007EBC70004EB4000BDF8DE
:1019D0000410C18110220AF10201103023F092F8A4
:1019E0007F1CBFB26089B842DED890E707EB4701A1
:1019F00004EB4102BDF80400D0810AF10201404627
:101A0000103212F0E0FBEBE72DE9F0470E4688B00C
:101A100090F80CC096F80C80378AF5890C20109944
:101A200002F10C044FF0000ABCF1030F08D0BCF126
:101A3000040F3ED0BCF1070F7DD0FFDF08B067E791
:101A400005EB850C00EB4C00188031200880002A43
:101A5000F4D0A8F1060000F0FF09558125E0182117
:101A600001A823F0F0F800977088434601AA716935
:101A700000F0EDFEBDF804002080BDF80600E08017
:101A8000BDF808002081A21C0DF10A01484612F0A1
:101A90009AFBB9F1000F00D018B184F804A0A4F8A3
:101AA00002A007EB080087B20A346D1EADB2D6D291
:101AB000C4E705EB850C00EB4C0018803220088051
:101AC000002ABBD0A8F1050000F0FF09558137E0DE
:101AD00000977088434601AA716900F0B8FE9DF82E
:101AE0000600BDF80410E1802179420860F300018E
:101AF00062F34101820862F38201C20862F3C3010A
:101B0000020962F30411420962F34511820962F38A
:101B100086112171C0096071BDF80700208122463D
:101B20000DF10901484612F04EFB18B184F802A0ED
:101B3000A4F800A000E007E007EB080087B20A3431
:101B40006D1EADB2C4D279E7A8F1020084B205FBE4
:101B500008F000F10E0CA3F800C035230B80002A1A
:101B6000A6D055819481009783B270880E32716936
:101B700000F06DFE62E72DE9F84F1E460A9D0C4607
:101B800081462AB1607A00F58070D080E0891081AA
:101B900099F80C000C274FF000084FF00E0A0D28A2
:101BA00073D2DFE800F09E070E1C28303846556AD5
:101BB00073737300214648460095FFF779FEBDE830
:101BC000F88F207B9146082802D0032800D0FFDF41
:101BD000378030200AE000BFA9F80A80EFE7207BB9
:101BE0009146042800D0FFDF378031202880B9F1EA
:101BF000000FF1D1E3E7207B9146042800D0FFDFFE
:101C000037803220F2E7207B9146022800D0FFDFA8
:101C100037803320EAE7207B1746022800D0FFDF19
:101C20003420A6F800A02880002FC8D0A7F80A808A
:101C3000C5E7207B1746042800D0FFDF3520A6F833
:101C400000A02880002FBAD04046A7F80A8012E0F2
:101C5000207B1746052802D0062800D0FFDF102081
:101C6000308036202880002FA9D0E0897881A7F81D
:101C70000E80B9F80E00B881A1E7207B91460728B5
:101C800000D0FFDF37803720B0E72AE04FF01200A6
:101C900018804FF038001700288090D0E0897881B4
:101CA000A7F80E80A7F8108099F80C000A2805D034
:101CB0000B2809D00C280DD0FFDF80E7207B0A28F5
:101CC00000D0FFDF01200AE0207B0B2800D0FFDFDF
:101CD000042004E0207B0C2800D0FFDF05203873AF
:101CE0006DE7FFDF6BE770B50C46054601F0ABFB17
:101CF00020B10078222804D2082070BD43F20200EF
:101D000070BD0521284610F0D1FC206008B10020EC
:101D100070BD032070BD30B44880087820F00F00FB
:101D2000C01C20F0F000903001F8080B1DCA81E8BB
:101D30001D0030BC07F0C5BB2DE9FF4784B000276C
:101D40008246029707989046894612300AF09EF91B
:101D5000401D20F00306079828B907A95046FFF751
:101D6000C2FF002854D1B9F1000F05D00798017BBC
:101D700019BB052504681BE098F80000092803D06A
:101D80000D2812D0FFDF46E0079903254868B0B35D
:101D9000497B42887143914239D98AB2B3B2011D5D
:101DA00010F0F7FA0446078002E0079C0425083487
:101DB0000CB1208810B1032D29D02CE00798012107
:101DC00012300AF095F9ADF80C00024602AB294634
:101DD000504608F0E4F9070001D1A01C02900798D2
:101DE0003A461230C8F80400A8F802A003A94046F9
:101DF000029B0AF08AF9D8B10A2817D200E006E05F
:101E0000DFE800F007091414100B0D14141213204E
:101E100014E6002012E6112010E608200EE643F238
:101E200003000BE6072009E60D2007E6032005E680
:101E3000BDF80C002346CDE900702A4650460799AC
:101E400000F015FD57B9032D08D10798B3B2417BB7
:101E5000406871438AB2011D10F0AFFAB9F1000F6A
:101E6000D7D0079981F80C90D3E72DE9FE4F914622
:101E70001A881C468A468046FAB102AB494608F0E9
:101E80008EF9050019D04046A61C278810F052FD97
:101E90003246072629463B46009610F060F9208816
:101EA0002346CDE900504A465146404600F0DFFC4B
:101EB000002020800120BDE8FE8F0020FBE710B548
:101EC00086B01C46AAB104238DF800301388ADF803
:101ED00008305288ADF80A208A788DF80E200988DB
:101EE000ADF80C1000236A462146FFF725FF06B027
:101EF00010BD1020FBE770B50D46052110F0D6FB94
:101F0000040000D1FFDF294604F11200BDE8704053
:101F10000AF0D7B82DE9F8430D468046002607F0B1
:101F2000CDFA04462878102878D2DFE800F0773B15
:101F30003453313112313131083131313131287975
:101F4000001FC0B2022801D0102810D114BBFFDF3F
:101F500035E004B9FFDF0521404610F0A7FB007B08
:101F6000032806D004280BD0072828D0FFDF072637
:101F700055E02879801FC0B2022820D050B1F6E782
:101F80002879401FC0B2022819D0102817D0EEE7D8
:101F900004B9FFDF13E004B9FFDF287901280ED16F
:101FA000172137E00521404610F080FB070000D1E3
:101FB000FFDF07F1120140460AF060F82CB12A4613
:101FC00021464046FFF7A7FE29E01321404602F0D4
:101FD000F1FC24E004B9FFDF0521404610F066FB68
:101FE000060000D1FFDF694606F112000AF050F842
:101FF000060000D0FFDFA988172901D2172200E0D0
:102000000A46BDF80000824202D9014602E005E01E
:102010001729C5D3404600F03AFCD0E7FFDF304631
:10202000BDE8F883401D20F0030219B102FB01F066
:10203000001D00E000201044704713B5009848B11F
:102040000024684610F04FF9002C02D1F74A00999D
:1020500011601CBD01240020F4E72DE9F0470C4677
:1020600015462421204622F0EEFD05B9FFDFA878B1
:1020700060732888DFF8B4A3401D20F00301AF7817
:102080008946DAF8000010F04CF9060000D1FFDFB5
:102090004FF000082660A6F8008077B109FB07F131
:1020A000091D0AD0DAF8000010F03BF9060000D153
:1020B000FFDF6660C6F8008001E0C4F8048029886C
:1020C00004F11200BDE8F04709F0CABF2DE9F0475E
:1020D000804601F112000D46814609F0D7FF401DF0
:1020E000D24F20F003026E7B14462968386810F046
:1020F00043F93EB104FB06F2121D03D0696838684B
:1021000010F03AF9052010F079FA0446052010F095
:102110007DFA201A012802D1386810F0F7F84946F4
:102120004046BDE8F04709F0B0BF70B5054605214F
:1021300010F0BCFA040000D1FFDF04F112012846C0
:10214000BDE8704009F09ABF2DE9F04F91B04FF013
:10215000000BADF834B0ADF804B047880C46054626
:1021600092460521384610F0A1FA060000D1FFDFA3
:1021700024B1A780A4F806B0A4F808B029780922F1
:102180000B20B2EB111F7DD12A7A04F11001382700
:102190004FF00C084FF001090391102A73D2DFE8C9
:1021A00002F072F2F1F07F08D2888D9F3DDBF3EEF2
:1021B000B6B6307B022800D0FFDFA88908EBC0014B
:1021C000ADF804103021ADF83410002C25D060811A
:1021D000B5F80E9000271DE004EBC708317C88F8A5
:1021E0000E10F189A8F80C10CDF80090688804232F
:1021F00004AA296900F02BFBBDF81010A8F81010F4
:1022000009F10400BDF812107F1C1FFA80F9A8F82C
:102210001210BFB26089B842DED80DE1307B0228CF
:1022200000D0FFDFE98908EBC100ADF804003020E1
:10223000ADF83400287B0A90001FC0B20F90002C2C
:10224000EBD06181B5F81090002725E0CDF8009023
:102250006888696903AA0A9B00F0F9FA0A9804EBF6
:10226000C70848441FFA80F908F10C0204A90F9826
:1022700011F0A9FF18B188F80EB0A8F80CB0BDF89D
:102280000C1001E0D4E0CFE0A8F81010BDF80E105B
:102290007F1CA8F81210BFB26089B842D6D8CBE034
:1022A0000DA8009001AB224629463046FFF71BFBE4
:1022B000C2E0307B082805D0FFDF03E0307B082830
:1022C00000D0FFDFE8891030ADF804003620ADF80B
:1022D0003400002C3FD0A9896181F189A18127E0D8
:1022E000307B092800D0FFDFA88900F10C01ADF890
:1022F00004103721ADF83410002C2CD06081E8890F
:102300000090AB89688804F10C02296956E0E889DD
:102310003921103080B2ADF80400ADF83410002C33
:1023200074D0A9896181287A0E280AD002212173EC
:10233000E989E181288A0090EB8968886969039AB4
:102340003CE00121F3E70DA8009001AB22462946AD
:102350003046FFF759FB6FE0307B0A2800D0FFDFE3
:102360001220ADF80400ADF834704CB3A989618136
:10237000A4F810B0A4F80EB084F80C905CE020E053
:1023800002E031E039E042E0307B0B2800D0FFDF93
:10239000288AADF834701230ADF8040084B10421FD
:1023A0002173A9896181E989E181298A2182688A69
:1023B00000902B8A688804F11202696900F047FADC
:1023C0003AE0307B0C2800D0FFDF1220ADF804008B
:1023D000ADF834703CB305212173A4F80AB0A4F819
:1023E0000EB0A4F810B027E00DA8009001AB224673
:1023F00029463046FFF75CFA1EE00DA8009001ABBD
:10240000224629463046FFF7B6FB15E034E03B2173
:10241000ADF80400ADF8341074B3A4F80690A4F835
:1024200008B084F80AB007E0FFDF05E010000020E4
:10243000297A012917D0FFDFBDF80400AAF80000AF
:102440006CB1BDF834002080BDF804006080BDF898
:102450003400392803D03C2801D086F80CB011B0E4
:102460000020BDE8F08F3C21ADF80400ADF8341039
:1024700014B1697AA172DFE7AAF80000EFE72DE94D
:10248000F84356880F46804615460521304610F021
:102490000DF9040000D1FFDF123400943B464146A1
:1024A00030466A6809F065FFBAE570B50D4605214A
:1024B00010F0FCF8040000D1FFDF294604F11200FF
:1024C000BDE8704009F0EFBD70B50D46052110F074
:1024D000EDF8040000D1FFDF294604F11200BDE849
:1024E000704009F00DBE70B50546052110F0DEF80C
:1024F000040000D1FFDF04F1080321462846BDE8AF
:1025000070400422B1E470B50546052110F0CEF804
:10251000040000D1FFDF214628462368BDE8704053
:102520000522A2E470B50646052110F0BFF80400AC
:1025300000D1FFDF04F1120009F0A8FD401D20F0DA
:10254000030511E0011D008803224318214630468F
:10255000FFF78BFC00280BD0607BABB2684382B2E4
:102560006068011D0FF05FFF606841880029E9D1B4
:1025700070BD70B50E46054606F0A0FF040000D100
:10258000FFDF0120207266726580207820F00F0046
:10259000C01C20F0F00030302070BDE8704006F024
:1025A00090BF2DE9F0438BB00D461446814606A935
:1025B000FFF799FB002814D14FF6FF7601274FF45F
:1025C00020588CB103208DF800001020ADF81000C9
:1025D00007A8059007AA204604A911F013FE78B1B8
:1025E00007200BB0BDE8F0830820ADF808508DF847
:1025F0000E708DF80000ADF80A60ADF80C800CE0AC
:102600000698A17801742188C1818DF80E70ADF80B
:102610000850ADF80C80ADF80A606A4602214846C1
:10262000069BFFF789FBDCE708B501228DF8022045
:1026300042F60202ADF800200A4603236946FFF77E
:102640003EFC08BD08B501228DF8022042F60302C7
:10265000ADF800200A4604236946FFF730FC08BDA8
:1026600000B587B079B102228DF800200A88ADF854
:1026700008204988ADF80A1000236A460521FFF7B3
:102680005BFB07B000BD1020FBE709B1072316E490
:102690000720704770B588B00D461446064606A957
:1026A000FFF721FB00280ED17CB10620ADF80850C1
:1026B0008DF80000ADF80A40069B6A460821DC81CF
:1026C0003046FFF739FB08B070BD05208DF80000DB
:1026D000ADF80850F0E700B587B059B107238DF881
:1026E0000030ADF80820039100236A460921FFF766
:1026F00023FBC6E71020C4E770B588B00C46064639
:10270000002506A9FFF7EFFA0028DCD10698012181
:10271000123009F0EDFC9CB12178062921D2DFE8C6
:1027200001F0200505160318801E80B2C01EE28845
:1027300080B20AB1A3681BB1824203D90C20C2E760
:102740001020C0E7042904D0A08850B901E0062079
:10275000B9E7012913D0022905D004291CD0052985
:102760002AD00720AFE709208DF800006088ADF877
:102770000800E088ADF80A00A068039023E00A2072
:102780008DF800006088ADF80800E088ADF80A0018
:10279000A0680A25039016E00B208DF800006088E1
:1027A000ADF80800A088ADF80A00E088ADF80C008C
:1027B000A0680B25049006E00C208DF800006078DE
:1027C0008DF808000C256A4629463046069BFFF71F
:1027D000B3FA78E700B587B00D228DF80020ADF888
:1027E000081000236A461946FFF7A6FA49E700B524
:1027F00087B071B102228DF800200A88ADF8082058
:102800004988ADF80A1000236A460621FFF794FABA
:1028100037E7102035E770B586B0064601200D4633
:10282000ADF808108DF80000014600236A463046D6
:10283000FFF782FA040008D12946304605F04CFC27
:102840000021304605F066FC204606B070BDF8B5A4
:102850001C4615460E46069F10F05AF82346FF1DEB
:10286000BCB231462A4600940FF045FCF8BD30B4A6
:102870001146DDE902423CB1032903D0002330BCFC
:1028800008F018BB0123FAE71A8030BC704770B516
:102890000C460546FFF72FFB2146284605F02BFC8A
:1028A0002846BDE87040012105F034BC4FF0E0221D
:1028B0004FF400400021C2F88001BFF34F8FBFF3F7
:1028C0006F8F1748016001601649900208607047D9
:1028D000134900B500220A600A60124B4FF0607283
:1028E0001A60002808BF00BD0F4A104BDFF840C037
:1028F00001280CD002281CBFFFDF00BD03200860A8
:102900001A604FF4000000BFCCF8000000BD0220A8
:1029100008601A604FF04070F6E700B5FFDF00BDB9
:1029200000F5004008F501409C02002014F500402D
:1029300004F5014070B50B2000F0BDF9082000F04F
:10294000BAF900210B2000F0D4F90021082000F092
:10295000D0F9F44C01256560A5600020C4F8400161
:10296000C4F84401C4F848010B2000F0B5F9082070
:1029700000F0B2F90B2000F091F9256070BD10B5A0
:102980000B2000F098F9082000F095F9E5480121A6
:1029900041608160E4490A68002AFCD10021C0F846
:1029A0004011C0F84411C0F848110B2000F094F910
:1029B000BDE81040082000F08FB910B50B2000F0E2
:1029C0008BF9BDE81040082000F086B900B530B1A1
:1029D000012806D0022806D0FFDF002000BDD34822
:1029E00000BDD34800BDD248001D00BD70B5D1491F
:1029F0004FF000400860D04DC00BC5F80803CF4829
:102A000000240460C5F840410820C43500F053F9A3
:102A1000C5F83C41CA48047070BD08B5C14A0021E0
:102A200028B1012811D002281CD0FFDF08BD4FF4C7
:102A30008030C2F80803C2F84803BB483C3001604C
:102A4000C2F84011BDE80840D0E74FF40030C2F8AA
:102A50000803C2F84803B44840300160C2F844118A
:102A6000B3480CE04FF48020C2F80803C2F84803D2
:102A7000AD4844300160C2F84811AD48001D0068FF
:102A8000009008BD70B516460D460446022800D9D0
:102A9000FFDF0022A348012304F110018B4000EB6B
:102AA0008401C1F8405526B1C1F84021C0F8043373
:102AB00003E0C0F80833C1F84021C0F8443370BDCA
:102AC0002DE9F0411D46144630B1012833D00228CB
:102AD00038D0FFDFBDE8F081891E002221F07F4160
:102AE0001046FFF7CFFF012D23D00020944D924FC9
:102AF000012668703E61914900203C39086002203F
:102B0000091D08608D490420303908608B483D3428
:102B1000046008206C6000F0DFF83004C7F804039C
:102B2000082000F0BBF88349F007091F08602E70E9
:102B3000D0E70120DAE7012B02D00022012005E0D6
:102B40000122FBE7012B04D000220220BDE8F04166
:102B500098E70122F9E774480068704770B500F003
:102B6000D8F8704C0546D4F840010026012809D158
:102B7000D4F80803C00305D54FF48030C4F8080327
:102B8000C4F84061D4F8440101280CD1D4F80803FA
:102B9000800308D54FF40030C4F80803C4F844613A
:102BA000012012F0FCFAD4F8480101280CD1D4F825
:102BB0000803400308D54FF48020C4F80803C4F884
:102BC0004861022012F0EBFA5E48056070BD70B5F6
:102BD00000F09FF85A4D0446287850B1FFF706FFE1
:102BE000687818B10020687012F0D9FA554804606E
:102BF00070BD0320F8E74FF0E0214FF40010C1F85A
:102C000000027047152000F067B84B4901200861A9
:102C1000082000F061B848494FF47C10C1F808035F
:102C20000020024601EB8003C3F84025C3F8402191
:102C3000401CC0B20628F5D37047410A43F609523A
:102C40005143C0F3080010FB02F000F5807001EB67
:102C50005020704710B5430B48F2376463431B0C98
:102C60005C020C60384C03FB0400384B4CF2F72438
:102C700043435B0D13FB04F404EB402000F580702C
:102C80004012107008681844086010BD2C48406855
:102C9000704729490120C1F800027047002809DB6C
:102CA00000F01F02012191404009800000F1E02066
:102CB000C0F80011704700280DDB00F01F02012151
:102CC00091404009800000F1E020C0F88011BFF37E
:102CD0004F8FBFF36F8F7047002809DB00F01F0292
:102CE000012191404009800000F1E020C0F88012ED
:102CF00070474907090E002804DB00F1E02080F846
:102D00000014704700F00F0000F1E02080F8141D5F
:102D100070470C48001F00680A4A0D49121D1160D7
:102D20007047000000B0004004B500404081004002
:102D300044B1004008F5014000800040408500405B
:102D40003400002014050240F7C2FFFF6F0C0100A1
:102D5000010000010A4810B5046809490948083112
:102D6000086012F0B0FA0648001D046010BD064964
:102D7000002008604FF0E0210220C1F88002704777
:102D80001005024001000001FC1F004010B50D209D
:102D900000F077F8C4B26FF0040000F072F8C0B22F
:102DA000844200D0FFDF3E490120086010BD70B5AD
:102DB0000D2000F048F83B4C0020C4F8000101252C
:102DC000C4F804530D2000F04FF825604FF0E021C7
:102DD0006014C1F8000170BD10B50D2000F033F88B
:102DE0003048012141600021C0F80011BDE81040C9
:102DF0000D2000F039B82C4810B504682A492B483A
:102E0000083108602749D1F80001012804D0FFDF0C
:102E10002548001D046010BD2148001D00680022E7
:102E2000C0B2C1F8002112F09BFEF1E710B51D48B9
:102E3000D0F800110029FBD0FFF7DDFFBDE81040FE
:102E40000D2000F011B800280DDB00F01F02012159
:102E500091404009800000F1E020C0F88011BFF3EC
:102E60004F8FBFF36F8F7047002809DB00F01F0200
:102E7000012191404009800000F1E020C0F880125B
:102E80007047002804DB00F1E02090F8000405E022
:102E900000F00F0000F1E02090F8140D4009704799
:102EA00004D5004000D000401005024001000001A0
:102EB0004FF0E0214FF00070C1F8800101F5C071C2
:102EC000BFF34F8FBFF36F8FC1F80001384B8022E3
:102ED00083F8002441F8800C704700B502460420B6
:102EE000344903E001EBC0031B792BB1401EC0B293
:102EF000F8D2FFDFFF2000BD41F8302001EBC00118
:102F000000224A718A7101220A7100BD294A0021FA
:102F100002EBC0000171704710B50446042800D3CD
:102F2000FFDF244800EBC4042079012800D0FFDF34
:102F30006079A179401CC0B2814200D060714FF02D
:102F4000E0214FF00070C1F8000210BD2DE9F04102
:102F500019480568184919480831086014480426BA
:102F600090F80004134F4009154C042818D0FFDFD7
:102F700016E0217807EBC1000279012A08D14279D5
:102F800083799A4204D04279827157F831008047A0
:102F90002078401CC0B22070042801D3002020708B
:102FA000761EF6B2E5D20448001D0560BDE8F0814A
:102FB00019E000E0D40500201005024001000001E6
:102FC000500000200548064A0168914201D10021C5
:102FD000016004490120086070470000540000208F
:102FE000BEBAFECA40E5014070B50C46054609F080
:102FF0005DFB21462846BDE870400AF042BC7047A0
:103000002CFFFFFFDBE5B15100600200AF00FFFFC6
:103010008400000068915B008308DF2FACFED63986
:1030200029D64B9DC15EF1868A16B47C30B5F84D29
:103030000446062CA9780ED2DFE804F0030E0E0E2B
:103040000509FFDF08E0022906D0FFDF04E00329BD
:1030500002D0FFDF00E0FFDFAC7030BD30B50446CA
:103060001038EB4D07280CD2DFE800F0040C060CFA
:103070000C0C0C00FFDF05E0287E112802D0FFDFDA
:1030800000E0FFDF2C7630BD2DE9F04111F024FA8D
:10309000044612F0F5FB201AC5B206200FF0AEFA76
:1030A000044606200FF0B2FA211AD94C207E1228CD
:1030B00018D000200F1807200FF0A0FA06460720AE
:1030C0000FF0A4FA301A3918207E13280CD00020F3
:1030D0000144A078042809D000200844281AC0B26E
:1030E000BDE8F0810120E5E70120F1E70120F4E7E8
:1030F000C74810B590F825004108C54800F12600E2
:1031000005D00DF09CFABDE8104005F0F9BF0DF0B8
:1031100077FAF8E730B50446A1F120000D460A28F9
:103120004AD2DFE800F005070C1C2328353A3F445B
:10313000FFDF42E0207820283FD1FFDF3DE0B448A8
:103140008178052939D0007E122836D020782428AD
:1031500033D0252831D023282FD0FFDF2DE0207851
:1031600022282AD0232828D8FFDF26E0207822280A
:1031700023D0FFDF21E0207822281ED024281CD075
:1031800026281AD0272818D0292816D0FFDF14E0C7
:103190002078252811D0FFDF0FE0207825280CD0DB
:1031A000FFDF0AE02078252807D0FFDF05E0207840
:1031B000282802D0FFDF00E0FFDF257030BD1FB5FB
:1031C00004466A46002001F02FFEB4B1BDF802208B
:1031D0004FF6FF700621824201D1ADF80210BDF812
:1031E0000420824201D1ADF80410BDF808108142DC
:1031F00003D14FF44860ADF8080068460DF090FF29
:1032000005F07EFF04B010BD70B514460D460646AD
:10321000FEF759F858B90DB1A54201D90C2070BD7F
:10322000002408E056F82400FEF74DF808B11020FD
:1032300070BD641CE4B2AC42F4D3002070BD2DE933
:10324000F04105461F4690460E4600240068FEF7F2
:1032500087F830B9A98828680844401EFEF780F82E
:1032600008B110203CE728680028A88802D0B8429E
:1032700002D850E00028F5D0092031E72968085D20
:10328000B8B1671CCA5D152A2ED03CDC152A3AD28B
:10329000DFE802F03912222228282A2A313139396E
:1032A00039393939393939392200085D30BB641C64
:1032B000A4B2A242F9D833E00228DDD1A01C085CF8
:1032C00088F80000072801D2400701D40A2007E748
:1032D000307840F0010015E0C143C90707E001283C
:1032E00007D010E00620FBE60107A1F1805100297C
:1032F000F5D01846F4E63078810701D50B20EFE6CB
:1033000040F0020030702868005D384484B2A8881C
:10331000A04202D2B0E74FF4485382B2A242ADD8E5
:103320000020DDE610B5027843F2022354080122A2
:10333000022C12D003DC3CB1012C16D106E0032C88
:1033400010D07F2C11D112E0002011E080790324ED
:10335000B4EB901F09D10A700BE08079B2EB901F9B
:1033600003D1F8E780798009F5D0184610BDFF2019
:103370000870002010BD08B500208DF8000024481A
:1033800090F82E1049B190F82F0002280ED0032893
:103390000ED0FFDF9DF8000008BD1D4869462530AE
:1033A00001F091FD0028F5D0FFDFF3E7032000E0F6
:1033B00001208DF80000EDE738B50C46054669465A
:1033C00001F081FD00280DD19DF80010207861F3F7
:1033D0004700207055F8010FC4F80100A888A4F830
:1033E0000500002038BD38B51378A8B1022813D0E5
:1033F000FF281AD007A46D46246800944C7905EB89
:103400009414247864F347031370032809D00FE061
:10341000E80100200302FF0123F0FE0313700228DD
:10342000F3D1D8B240F0010005E043F0FE00107087
:10343000107820F0010010700868C2F80100888838
:10344000A2F8050038BD02210FF030B938B50C469E
:103450000978222901D2082038BDADF800008DF886
:10346000022068460DF02DF905F04AFE050003D153
:1034700021212046FFF74EFE284638BD1CB500200E
:103480008DF80000CDF80100ADF80500FE4890F879
:103490002E00022801D0012000E000208DF8070056
:1034A00068460DF069FA002800D0FFDF1CBD00223D
:1034B0000A80437892B263F3451222F040020A80F8
:1034C00000780C282BD2DFE800F02A06090E11162E
:1034D000191C1F220C2742F0110009E042F01D00C8
:1034E00008800020704742F0110012E042F0100006
:1034F00040F00200F4E742F01000F1E742F0010072
:10350000EEE742F0010004E042F00200E8E742F09A
:10351000020040F00400E3E742F00400E0E7072087
:1035200070472DE9FF478AB00025BDF82C60824620
:103530001C4690468DF81C50700703D56068FDF757
:10354000C2FE68B9D04F4FF0010997F82E0058B16C
:1035500097F82F00022807D16068FDF701FF18B126
:1035600010200EB0BDE8F087300702D5A089802872
:1035700016D8700705D4B8F1000F02D097F82400D0
:1035800070B1E07DC0F300108DF81B00617D072055
:1035900041B1012906D00229E3D00429E1D12CE070
:1035A0000720DEE749468DF81790F00609D4A27D82
:1035B000072032B1012A04D0022A05D0042AD0D132
:1035C0001BE08DF8191002E002208DF819008DF82B
:1035D00015806068B0B107A9FFF7A4FE0028C0D12C
:1035E0009DF81C00FF280AD0606850F8011FCDF834
:1035F0000F108088ADF8130008E00620B1E743F211
:103600000220AEE7CDF80F50ADF81350E07B002854
:10361000F3D1207C0028F0D1607C0028EDD1A07C83
:103620000028EAD1E07CC006E7D18DF800A0BDF803
:103630002C00ADF80200A0680190A068029004F18F
:103640000F0001F034FC8DF80C00FFF794FE8DF8AC
:103650000D009DF81C008DF80E008DF816508DF8A9
:103660001850E07D08A900F00F008DF81A00684698
:103670000DF09DFE05F044FD73E7F0B58FB0002519
:103680008DF830508DF814508DF8345006468DF872
:103690002850019502950395049519B10FC901AC05
:1036A00084E80F00784CA078052801D004280CD1BC
:1036B00001986168884200D120B90398E168884286
:1036C00003D110B108200FB0F0BD207DC00601D598
:1036D0001F2700E0FF273B460DAA05A903A8FFF717
:1036E000AEFD0028EFD1A08AC10702D0C00600D4E9
:1036F000EE273B460AAA0CA901A8FFF7A0FD002867
:10370000E1D19DF81400C00701D00A20DBE7A08AB0
:10371000410708D4A17D31B19DF82810890702D056
:1037200043F20120CFE79DF82810C90709D04007D0
:1037300007D4208818B144F25061884201D907208B
:10374000C1E78DF818508DF81960BDF80800ADF884
:103750001A000198079006A80DF043FE05F0D0FC72
:103760000028B0D18DF820508DF82160BDF81000F0
:10377000ADF822000398099008A80DF051FE05F05D
:10378000BFFC00289FD101AD241D95E80F0084E8FF
:103790000F00002097E770B586B00D46040005D0F5
:1037A000FDF7DEFD20B1102006B070BD0820FBE75C
:1037B0002078C107A98802D0FF2902D303E01F297E
:1037C00001D20920F0E780073BD4FFF75DFC38B158
:1037D0002178C1F3C100012804D0032802D005E0FC
:1037E0001320E1E7284890F82400C8B1C8074FF03B
:1037F00001064FF0000502D08DF80F6001E08DF852
:103800000F50FFF7B8FD8DF8000020786946C0F32F
:10381000C1008DF8010060788DF80250C20801D017
:103820000720C1E778B1C20701D08DF80260820796
:1038300005D59DF8022042F002028DF802204007D3
:1038400003D50620B0E78DF80260002022780B181F
:10385000C2F38002DA7001EB40026388D380401C1F
:10386000A388C0B253810228F0D3207A0028E8D17F
:10387000607A0028E5D1A07A0028E2D1E07A002819
:10388000DFD1207BC00601E0E8010020D9D104F19E
:10389000080001F00CFB8DF80E0068460DF097F95A
:1038A00005F02EFC00288DD18DF810608DF8115098
:1038B000E088ADF81200ADF8145004A80DF0DAF964
:1038C00005F01EFC00288CD12078C00701D01520FF
:1038D00000E01320FFF7C2FB002065E72DE9FF475A
:1038E0000220FC4E8DF804000027708EADF8060013
:1038F000B84643F202094CE001A80EF03EFE050076
:1039000006D0708EA8B3A6F83280ADF806803EE0EF
:10391000039CA07F01072DD504F124000090A28E06
:10392000BDF80800214604F1360301F054FC0500FF
:1039300005D04D452AD0112D3CD0FFDF3AE0A07FC5
:1039400020F00801E07F420862F3C711A1778108E7
:1039500061F30000E07794F8210000F01F0084F884
:1039600020002078282826D129212046FFF7D2FBE5
:1039700021E014E040070AD5BDF8080004F10E016B
:1039800001F0ABFA05000DD04D4510D100257F1C8C
:10399000FFB202200EF032FE401CB842ACD8052D1A
:1039A00011D008E0A07F20F00400A07703E0112DE3
:1039B00000D0FFDF0025BDF806007086052D04D07D
:1039C000284604B0CEE5A6F832800020F9E770B5AD
:1039D0000646FFF738FD054605F070FD040000D1EE
:1039E000FFDF6680207820F00F00801C20F0F000C0
:1039F000203020700320207295F83E006072BDE8F0
:103A0000704005F05EBD2DE9F04786B0040000D19E
:103A1000FFDF2078AF4D20F00F00801C20F0F00079
:103A20007030207060680178491F1B2933D2DFE8AD
:103A300001F0FC32323255FB320EFBFB42FA3232DD
:103A40003278FAFAF9F83232FAFAF7F6FA00C6885A
:103A50003046FFF7F8FC0546304607F029F9E0B19B
:103A60006068007A85F83E0021212846FFF752FB66
:103A70003046FEF75AFB304603F050FE3146012037
:103A800012F02EFBA87F20F01000A877FFF726FF8A
:103A9000002800D0FFDF06B064E5207820F0F000B9
:103AA000203020700320207266806068007A607287
:103AB00005F007FDD8E7C5882846FFF7C4FC00B924
:103AC000FFDF60680079012800D0FFDF6068017ABD
:103AD00006B02846BDE8F04707F0C9BCC6883046A6
:103AE000FFF7B1FC050000D1FFDF05F0EAFC6068DC
:103AF00031460089288160684089688160688089D2
:103B0000A881012012F0ECFA0020A875A87F00F02F
:103B100003000228BFD1FFF7E1FE0028BBD0FFDF82
:103B2000B9E700790228B6D000B1FFDF05F0C9FC83
:103B30006668B6F806A0307A361D012806D0687E81
:103B4000814605F049FA070003D101E0E878F7E77C
:103B5000FFDF0022022150460EF09FFD040000D13D
:103B6000FFDF22212046FFF7D5FA3079012800D067
:103B70000220A17F804668F30101A177308B20816C
:103B8000708B6081B08BA08184F822908DF80880C2
:103B9000B8680090F86801906A46032150460EF01C
:103BA0007CFD00B9FFDFB888ADF81000B8788DF85B
:103BB000120004AA052150460EF06FFD00B9FFDF88
:103BC000B888ADF80C00F8788DF80E0003AA04212F
:103BD00050460EF062FD00B9FFDF062106F112002B
:103BE00001F099F940B37079800700D5FFDF717952
:103BF000E07D61F34700E075D6F80600A0617089AA
:103C0000A083062106F10C0001F085F9F0B195F8CA
:103C100025004108607861F34700607006E040E0ED
:103C200038E070E058E04DE02EE042E0D5F82600A4
:103C3000C4F80200688D12E0E07D20F0FE00801CD8
:103C4000E075D6F81200A061F08AD9E7607820F01C
:103C5000FE00801C6070F068C4F80200308AE080CA
:103C6000B8F1010F04D0B8F1020F05D0FFDF12E761
:103C70000320FFF7DBF90EE7287E122800D0FFDFD4
:103C80001120FFF7EBF906E706B02046BDE8F04744
:103C900001F02ABD05F015FC15F8300F40F00200C8
:103CA00005E005F00EFC15F8300F40F00400287018
:103CB000F1E6287E13280AD01528D8D15FF0160027
:103CC000FFF7CCF906B0BDE8F04705F0FABB1420C9
:103CD000F6E70000E8010020A978052909D00429A9
:103CE000C5D105F0EEFB022006B0BDE8F047FFF7B6
:103CF0009DB900790028BAD0E87801F0BFF805F046
:103D0000E0FB0320F0E7287E122802D1687E01F054
:103D1000B5F81120D4E72DE9F047054600784FF0BB
:103D200000080009DFF8C0A891460C464646012865
:103D300075D0022874D007280AD00A2871D0FFDF76
:103D4000A9F8006014B1A4F800806680002009E49E
:103D50006968012704F108000A784FF0020C4FF659
:103D6000FF73172A7ED00EDC142A32D006DC052A17
:103D700068D0092A10D0102A75D120E0152A73D0F6
:103D8000162AF9D1F8E0183A082A6CD2DFE802F0D6
:103D9000F36B6B0ACAF2DFF1C8884FF012081026E5
:103DA00021468DE14FF01C080A26BCB38888A0800C
:103DB0006868807920726868C0796072C0E74FF0E7
:103DC0001B08142654B30320207268688088A080E2
:103DD000B6E70A793C2AB3D00D1D4FF010082C2607
:103DE000E4B16988A180298B6182298B2182698B4A
:103DF000A182A98BE1826B790246A91D1846FFF7C3
:103E0000F2FA2979002001290CD084F80FC0FF2193
:103E10002176E06120626062A06291E70FE02EE10E
:103E200051E18CE1E77320760AF1040090E80E007E
:103E3000DAF81000C4E90930C4E9071280E7A9F8EC
:103E4000006083E72C264FF01D08002CF7D00546B4
:103E5000A380887B2A880F1D60F300022A80887B5C
:103E6000400802E09DE007E1BEE060F341022A80E5
:103E7000887B800860F382022A80887BB91CC00896
:103E800060F3C3022A80B87A0011401C60F3041268
:103E900002F07F0028807878AA1CFFF7A4FA387D0A
:103EA00005F1090207F11501FFF79DFA387B01F0D2
:103EB00041F82874787B01F03DF86874F87EA874A6
:103EC000787AE874387F2875B87B6875388AE88214
:103ED000DAF81C00A861B87A524697F808A0C0F337
:103EE0004111012904D0108C504503D2824609E0CB
:103EF000FFDF10E0022903D0288820F0600009E0ED
:103F0000504504D1288820F06000403002E0288825
:103F100040F060002880A4F824A0524607F11D015B
:103F2000A86996E011264FF02008002C87D0A380C6
:103F3000686804F10A02007920726868007B607288
:103F400069688B1D48791946FFF74DFAF8E60A268D
:103F50004FF02108002CE9D08888A080686880791B
:103F600020726868C07960729AF8301021F00401FC
:103F70009FE065E04CE06FE00B264FF02208002C3C
:103F8000D4D0C888A0806868007920726868007AF8
:103F900000F0D0FF60726868407A00F0CBFFA0723A
:103FA000CEE61C264FF02608002CBFD0A380686800
:103FB000407960726868007AA0720AF1040090E8A3
:103FC0000E00DAF81000C4E90530C4E9031268688D
:103FD00000793C2803D0432803D0FFDFB0E62772E6
:103FE000AEE684F808C0ABE610264FF02408002C9B
:103FF0009CD08888A0806868807920816868807AF1
:10400000608168680089A08168688089E08197E69E
:1040100010264FF02308002C88D08888A08068687C
:10402000C088208168680089608168684089A081B3
:1040300068688089E0819AF8301021F0020138E048
:1040400030264FF02508002C85D0A38069682822EF
:10405000496820F057FD73E614264FF01B08002C2A
:104060008ED0A380686800790128BAD02772DAE977
:104070000710C4E9031063E64A46214660E0287A47
:10408000012803D0022817D0FFDF59E610264FF091
:104090001F08002C89D06888A080A8892081E88921
:1040A0006081288AA081688AE0819AF8301021F026
:1040B00001018AF8301043E64FF012081026688894
:1040C00000F016FF3CE6287AC8B3012838D0022851
:1040D00036D0032801D0FFDF32E609264FF0110861
:1040E000002C85D06F883846FFF7ADF990F822A0F4
:1040F000A780687A2072042138460EF0E9FA05217B
:1041000038460EF0E5FA002138460EF0E1FA0121BA
:1041100038460EF0DDFA032138460EF0D9FA0221B6
:1041200038460EF0D5FA062138460EF0D1FA0721AE
:1041300038460EF0CDFA504600F0A0FE00E6FFE74C
:104140002846BDE8F04701F059BC70B5012803D0FE
:10415000052800D0FFDF70BD8DB22846FFF773F948
:10416000040000D1FFDF20782128F4D005F0A6F963
:1041700080B1017821F00F01891C21F0F00110318C
:1041800001700221017245800020A075BDE87040D9
:1041900005F097B921462846BDE870401322FFF785
:1041A00055B92DE9F04116460C00804600D1FFDFDD
:1041B000307820F00F00801C20F0F00010303070BC
:1041C0002078012804D0022818D0FFDFBDE8F08154
:1041D0004046FFF738F9050000D1FFDF0320A8753E
:1041E00005F06FF994E80F00083686E80F00FE48E6
:1041F00010F8301F41F001010170E7E74046FFF77A
:1042000022F9050000D1FFDFA1884FF6FF700027DB
:10421000814202D1E288824203D0814201D1E0880A
:1042200040B105F04EF994E80F00083686E80F001B
:10423000AF75CBE7A87D0128C8D17823002241467D
:1042400011F0A4FE0220A875C0E738B505460C465B
:104250000846FDF738F818BB203D062D4AD2DFE8A6
:1042600005F0031B373C42300021052011F00EFF02
:1042700008B1112038BDA01C0CF0A5FF04F040FFD0
:10428000050038D1002208231146052011F07EFEDA
:10429000052830D0FFDF2EE06068FDF758F808B140
:1042A000102038BD618820886A460DF03AFA04F083
:1042B00027FF05001FD16068E8B1BDF8001001803C
:1042C00019E0A07800F0010120880DF05BFA0EE003
:1042D000206801F03FFE05460DE0207800F0010067
:1042E0000CF076F903E0618820880DF096F904F06F
:1042F00007FFF0E70725284638BD70B505460C4690
:104300000846FDF706F808B1102070BD202D07D033
:10431000212D0DD0222D0BD0252D09D0072070BDC9
:104320002088A11C0CF02AFABDE8704004F0E8BE19
:10433000062070BDAC482530704708B53421AA4826
:1043400020F081FC0120FEF771FE1120FEF786FEB1
:10435000A5496846263105F047F8A3489DF8002096
:1043600010F8251F62F3470121F0010101700021BF
:1043700041724FF46171A0F8071002218172FEF7BB
:10438000B7FE00B1FFDFFDF763F801F078F908BD73
:1043900010B50C464021204620F033FCA07F20F0D1
:1043A0000300A077202020700020A07584F823004F
:1043B00010BD70472DE9FC410746FCF784FF10B1A2
:1043C0001020BDE8FC81884E06F12501D6F82500B5
:1043D0000090B6F82950ADF8045096F82B408DF8AF
:1043E00006403846FEF7E8FF0028EAD1FEF780FED7
:1043F0000028E6D0009946F8251FB580B471E0E7A3
:1044000010B50446FCF785FF08B1102010BD7648B2
:104410007549224690F8250026314008FEF7E3FF53
:10442000002010BD3EB504460D460846FCF771FF5E
:1044300008B110203EBD14B143F204003EBD6A48ED
:104440008078052803D0042801D008203EBD6946A5
:1044500002A80AF05DFA2A4669469DF80800FEF7B0
:10446000C2FF00203EBDFEB50D4604004FF0000720
:1044700011D00822FEF7C8FE002811D1002608E05E
:1044800054F826006946FEF74DFF002808D1761C37
:10449000F6B2AE42F4D30BF0E5FF10B143F20320C5
:1044A000FEBD514E86F824700CB300271BE000BF00
:1044B00054F8270002A9FEF735FF00B1FFDF9DF891
:1044C00008008DF8000054F8270050F8011FCDF8BF
:1044D00001108088ADF8050068460BF0E8FF00B1D8
:1044E000FFDF7F1CFFB2AF42E2D386F824500020EA
:1044F000FEBD2DE9F0478AB01546894604001ED05E
:104500000F4608222946FEF77FFE002811D100261B
:1045100013E000BF54F826006946103000F0D3FCC9
:10452000002806D13FB157F82600FCF7CCFE10B1A9
:1045300010200AB00BE4761CF6B2AE42EAD3002695
:10454000A5F101081CE000BF06F1010A0AF0FF070F
:1045500012E000BF54F82600017C4A0854F82710E6
:104560000B7CB2EB530F05D106221130113120F034
:104570009DFA58B17F1CFFB2AF42EBD30AF0FF06A1
:104580004645E1DB4E4624B1012003E043F205201D
:10459000CFE700200BF0B0FF10B90BF0B9FF10B15E
:1045A00043F20420C5E774B300270DF1170828E093
:1045B00054F827006946103000F085FC00B1FFDF99
:1045C00054F82700102250F8111FCDF801108088F0
:1045D000ADF8050054F827100DF1070020F092FA0D
:1045E000AEB156F8271001E0E80100201022404645
:1045F00020F088FA68460BF03FFF00B1FFDF7F1C18
:10460000FFB2AF42D4D3FEF739FF002091E7404616
:1046100001F094FCEEE730B585B00446FCF753FE9C
:1046200018B96068FCF79CFE10B1102005B030BDD1
:1046300060884AF2B811884206D82078F84D28B12F
:10464000012806D0022804D00720EFE7FEF750FD2E
:1046500018E06078022804D0032802D043F2022038
:10466000E4E785F82F00C1B200200090ADF8040007
:1046700002292CD0032927D0FFDF68460BF0DFFF8B
:1046800004F03EFD0028D1D1606801F04AFC20789A
:1046900058B101208DF800000DF1010001F04EFC31
:1046A00068460DF0D3F800B1FFDF207885F82E00C2
:1046B000FEF7E4FE608860B1A88580B20BF014FFBD
:1046C00000B1FFDF0020B1E78DF80500D5E74020FD
:1046D000FAE74FF46170EFE710B50446FCF719FEF6
:1046E00020B9606838B1FCF732FE08B1102010BD67
:1046F000606801F023FCCA4830F82C1F6180C17843
:10470000617080782070002010BD2DE9F8431446B8
:1047100089460646FCF7FDFDA0B94846FCF720FE99
:1047200080B92046FCF71CFE60B9BD4DA878012871
:1047300000D13CB13178FF2906D049B143F20400E1
:10474000BDE8F8831020FBE7012801D00420F7E73B
:10475000CCB3052811D004280FD069462046FEF7B7
:10476000A6FE0028ECD1217D49B1012909D00229FA
:1047700009D0032909D00720E2E70820E0E7024634
:1047800004E0012202E0022200E0032280462346E8
:10479000174600200099FEF7C4FE0028D0D1A0895A
:1047A0002880A07BE875BDF80000A882AF75BDF831
:1047B0000010090701D5A18931B1A1892980C0075D
:1047C00004D0032003E006E08021F7E70220FEF793
:1047D0002DFC86F800804946BDE8F8430020FEF72E
:1047E0004CBF7CB58E4C05460E46A078022803D0FF
:1047F000032801D008207CBD15B143F204007CBD24
:1048000007200DF003FF10B9A078032806D0FEF7AB
:104810003BFC28B1A078032804D009E012207CBD1D
:1048200013207CBD304600F00CFB0028F9D1E67067
:10483000FEF7A1FD09F0A9FF01208DF800008DF819
:1048400001008DF802502088ADF80400E07D8DF85D
:10485000060068460CF0A4FE04F052FC0028E0D1EB
:10486000A078032804D00420FEF7E0FB00207CBDE4
:10487000E07800F0F6FA0520F6E71CB510B143F237
:1048800004001CBD664CA078042803D0052801D084
:1048900008201CBD00208DF8000001218DF80110BA
:1048A0008DF8020068460CF07BFE04F029FC00281D
:1048B000EFD1A078052805D05FF00200FEF7B6FB27
:1048C00000201CBDE07800F0D9FA0320F6E72DE9BE
:1048D000FC4180460E4603250846FCF741FD0028B2
:1048E00066D14046FEF7AFFD040004D020782228B0
:1048F00004D2082065E543F2020062E5A07F00F0E3
:1049000003073EB1012F0CD000203146FEF757FCC3
:104910000500EFD1012F06D0022F1AD0FFDF284665
:104920004FE50120F1E7A07D3146022801D011B109
:1049300007E0112045E56846FCF797FE0028D9D12D
:104940006946404606F056FD0500E8D10120A075F5
:10495000E5E7A07D032804D1314890F83000C00776
:1049600001D02EB30EE026B1A07F40071ED4002157
:1049700000E00121404606F05DFD0500CFD1A075A5
:10498000002ECCD03146404600F0A7FA054611284B
:10499000C5D1A07F4107C2D4316844F80E1F7168A9
:1049A000616040F0040020740025B8E71125B6E7E7
:1049B000102006E570B50C460546FEF744FD0100E3
:1049C00005D022462846BDE87040FEF73FBD43F2C1
:1049D000020070BD10B5012807D1114B9B78012B47
:1049E00000D011B143F2040010BD0BF0AFFDBDE8E3
:1049F000104004F085BB012300F04ABA00231A4698
:104A0000194600F045BA70B506460C460846FCF754
:104A10005AFC18B92068FCF77CFC18B1102070BD56
:104A2000E8010020F94D2A7E112A04D0132A00D370
:104A30003EB10820F3E721463046FEF7ACFE60B1F8
:104A4000EDE70920132A0DD0142A0BD0A188FF29E5
:104A5000E5D31520FEF702FB0020D4E90012C5E9DA
:104A60000712DCE7A1881F29D9D31320F2E71CB570
:104A7000E648007E132801D208201CBD00208DF8D6
:104A8000000068460CF0F6F804F03AFB0028F4D178
:104A90001120FEF7E3FA00201CBD2DE9F04FDFF8EE
:104AA0006CA3814691B09AF818009B4615460C46B7
:104AB000132803D3FFF7DBFF00281FD12046FCF7A4
:104AC00002FC78BB2846FCF7FEFB58BB20784FF071
:104AD0000107C0074FF0000102D08DF83A7001E0E5
:104AE0008DF83A1020788846C0F3C1008DF8000098
:104AF00060788DF80910C10803D0072011B0BDE817
:104B0000F08F80B1C10701D08DF80970810705D5FC
:104B10009DF8091041F002018DF80910400704D5F5
:104B20000620EBE718E08DF8097000206E4606EBD2
:104B3000400162884A81401CA288C0B20A820328D0
:104B4000F5D32078C0F3C100012821D003281FD05D
:104B50004846FCF7B8FB08B11020CFE799F80000F1
:104B6000400808D0012809D0022807D0032805D022
:104B700043F20220C2E78DF8028001E08DF8027056
:104B8000484650F8011FCDF803108088ADF80700A3
:104B9000FEF7F1FB8DF801000020424606EB4001D4
:104BA0002B88CB826B888B83AB884B84EB880B85FF
:104BB000401CCA85C0B28A860328EFD3E088ADF8CE
:104BC0003C0068460CF074F9002896D19AF8180059
:104BD0005546112801D0082090E706200DF016FD5B
:104BE00038B12078C0F3C100012804D0032802D0D6
:104BF00006E0122082E795F8240000283FF47DAFFC
:104C0000FEF742FA022801D2132077E7584600F057
:104C100018F9002885D185F819B068460CF05AFAC1
:104C200004F06EFA040098D1687E00F01AF91220A0
:104C3000FEF714FA204661E770B5744D287E1228FD
:104C400001D00820EBE60CF048FA04F059FA040011
:104C500005D1687E00F012F91120FEF7FFF9204619
:104C6000DDE670B5064615460C460846FCF751FBD6
:104C700018B92846FCF74DFB08B11020CFE62A46AC
:104C8000214630460CF02DFD04F03AFA0028F5D10B
:104C900021787F29F2D10520C1E67CB505460C4676
:104CA0000846FCF710FB08B110207CBD2846FEF733
:104CB000CAFB20B10078222804D208207CBD43F230
:104CC00002007CBD514890F83000400701D511200A
:104CD0007CBD2178C80802D16078C20801D00720C5
:104CE0007CBD890801D1800801D006207CBDADF8CB
:104CF000005020788DF8020060788DF803000220C3
:104D0000ADF8040068460BF0D1FE04F0F9F97CBD63
:104D100070B586B014460D460646FEF794FB28B1E2
:104D20000078222805D2082006B078E643F2020077
:104D3000FAE72846FCF714FB20B944B12046FCF7FB
:104D400006FB08B11020EFE700202060A0802F486C
:104D500090F83000800701D51120E5E703A930461F
:104D60000BF058FD18B100BF04F0CAF9DCE7ADF84C
:104D70000060BDF81400ADF80200BDF81600ADF8F3
:104D80000400BDF81000BDF81210ADF80600ADF833
:104D900008107DB1298809B1ADF80610698809B1FC
:104DA000ADF80210A98809B1ADF80810E98809B179
:104DB000ADF80410DCB1BDF80610814201D9081A23
:104DC0002080BDF80210BDF81400814201D9081AF4
:104DD0006080BDF80800BDF80410BDF8162001443D
:104DE000BDF812001044814201D9081AA08068461B
:104DF0000BF0C1FDB8E71CB505490968CDE9001005
:104E000068460CF057F804F07BF91CBDE80100205F
:104E1000EC4F02001CB500200090019068460CF099
:104E200049F804F06DF9F0E7108008885080488850
:104E30009080C88810818888D0800020508190811F
:104E4000704710B5044604F0C7F830B1407830B16F
:104E5000204604F0DAFB002010BD052010BD122012
:104E600010BD10B504F0B8F8040000D1FFDF607881
:104E700000B9FFDF6078401E607010BD10B504F00F
:104E8000ABF8040000D1FFDF6078401C607010BDFB
:104E90001CB5ADF800008DF802308DF803108DF8C8
:104EA000042068460CF0E0FB04F02AF9ADE70CB5ED
:104EB00026A2D2E90012CDE900120079694601EB81
:104EC000501000780CBD0278520804D0012A02D09C
:104ED00043F202207047FEF725BA1FB56A46FFF776
:104EE000A3FF68460CF02CF904F00AF904B010BDD9
:104EF00070B50C0006460DD0FEF7A5FA050000D1EE
:104F0000FFDFA68028892081288960816889A081A7
:104F1000A889E08183E510B500231A4603E0845C8C
:104F20002343521CD2B28A42F9D30BB1002010BDE8
:104F3000012010BD00B530B1012803D0022801D0F6
:104F4000FFDF002000BDFF2000BD000007060504B4
:104F50000302010010B50446FCF7B5F908B11020B2
:104F600010BD2078C0F30210042807D86078072805
:104F700004D3A178102901D8814201D2072010BDA5
:104F8000E078410706D421794A0703D4000701D409
:104F9000080701D5062010BD002010BD10B51378FC
:104FA0005C08837F64F3C713837713789C08C37FFF
:104FB00064F30003C3771078C309487863F34100B2
:104FC000487013781C090B7864F347130B7013783F
:104FD000DB0863F3000048705078487110BD10B5CD
:104FE000C4780B7864F300030B70C478640864F32E
:104FF00041030B70C478A40864F382030B70C47877
:10500000E40864F3C3030B700379117863F30001C0
:10501000117003795B0863F34101117003799B08F8
:1050200063F3820111700079C00860F3C30111704D
:1050300010BD70B514460D46064604F03FFA80B127
:105040000178182221F00F01891C21F0F001A03114
:1050500000F8081B21461FF09AFDBDE8704004F0DF
:1050600030BA29463046BDE870401322FEF7EEB94B
:105070002DE9F047064608A8894690E830041F4607
:105080009046142128461FF0DEFD0021CAF80010CA
:10509000B8F1000F03D0B9F1000F03D114E0387854
:1050A000C00711D02068FCF734F9C0BBB8F1000F7D
:1050B00007D12068123028602068143068602068AA
:1050C000A8602168CAF800103878800724D5606885
:1050D000FCF73DF918BBB9F1000F21D0FFF72AF911
:1050E0000168C6F868118188A6F86C11807986F885
:1050F0006E0101F0F8FCF94FEF60626862B196F85A
:10510000680106F2691140081032FEF76CF91022AE
:10511000394660681FF0F6FC0020BDE8F08706E025
:10512000606820B1E8606068C6F86401F4E71020A8
:10513000F3E730B5054608780C4620F00F00401C18
:1051400020F0F001103121700020607095F82300EC
:1051500030B104280FD0052811D0062814D0FFDF65
:1051600020780121B1EB101F04D295F8200000F047
:105170001F00607030BD21F0F000203002E021F00F
:10518000F00030302070EBE721F0F0004030F9E71C
:10519000F0B591B0022715460C4606463A46ADF8E2
:1051A0000870092103AB04F0FAFF0490002810D026
:1051B00004208DF804008DF80170E0340996059400
:1051C0008DF818500AA968460EF060FF00B1FFDFA5
:1051D000012011B0F0BD10B588B00C460A99ADF8A9
:1051E0000000C3B11868CDF802005868CDF8060079
:1051F000ADF80A20102203A81FF084FC68460CF0CA
:105200000FF803F07DFF002803D1A17F41F01001CA
:10521000A17708B010BD0020CDF80200E6E72DE927
:10522000F84F0646808A0D4680B28246FEF70BF99B
:1052300004463078DFF8A48200274FF00209A8F175
:1052400020080F2870D2DFE800F06FF23708387DB1
:105250008CC8F1F0EFF35FF3F300A07F00F00300E0
:10526000022809D05FF0000080F0010150460DF0E7
:105270001DFA050003D101E00120F5E7FFDF98F8F2
:105280005C10C90702D0D8F860000BE0032105F1DB
:105290001D0010F046FCD5F81D009149B0FBF1F25D
:1052A00001FB1200C5F81D0070686867B068A86748
:1052B0002078252800D0FFDFCAE0A07F00F003009F
:1052C000022809D05FF0000080F0010150460DF087
:1052D000EDF9060003D101E00120F5E7FFDF3078AA
:1052E000810702D52178252904D040F001003070D3
:1052F000BDE8F88F85F80090307F287106F11D0019
:105300002D36C5E90206F3E7A07F00F0030002286E
:1053100008D0002080F0010150460DF0C7F90400CC
:1053200004D102E00120F5E7A7E1FFDF2078C10604
:1053300004D5072028703D346C60D9E740F00800A0
:105340002070D5E7E07F000700D5FFDF307CB28812
:1053500000F0010301B05046BDE8F04F092105F00F
:10536000A9BD04B9FFDF716821B1102204F1240046
:105370001FF0C8FB28212046FDF7CCFEA07F00F0DF
:10538000030002280ED104F12400002300901A46E5
:1053900021465046FFF71FFF112807D0292120463C
:1053A000FDF7B8FE307A84F82000A1E7A07F00075F
:1053B00000D5FFDF14F81E0F40F008002070E782D0
:1053C000A761E761C109607861F34100014660F3BC
:1053D00082016170307AE0708AE7A07F00F00300FC
:1053E000022809D05FF0000080F0010150460DF066
:1053F0005DF9040003D101E00120F5E7FFDF0221A0
:1054000004F1850010F08DFB0420287004F5B470C1
:105410006860B4F885002882304810387C346C61AC
:10542000C5E9028064E703E024E15BE02DE015E0DC
:10543000A07F00F00300022807D0002080F00101C7
:1054400050460DF033F918B901E00120F6E7FFDF0F
:10545000324621465046BDE8F84FEAE504B9FFDF81
:1054600020782128A1D93079012803D1E07F40F0AC
:105470000800E077324621465046FFF7DAFD204625
:10548000BDE8F84F2321FDF745BE3279AA8005F12A
:1054900008030921504604F082FEE86010B105209F
:1054A000287025E7A07F00F00300022808D0002024
:1054B00080F0010150460DF0F9F8040003D101E03D
:1054C0000120F5E7FFDF04F1620102231022081F2B
:1054D0000CF073FF07703179417009E74802002032
:1054E00040420F00A07F00F00300022808D00020F7
:1054F00080F0010150460DF0D9F8050003D101E01C
:105500000120F5E7FFDF95F8840000F00300012893
:105510007AD1A07F00F00307E07F10F0010602D0EF
:10552000022F04D133E095F8A000C0072BD0D5F8A6
:10553000601121B395F88320087C62F3870008741A
:10554000A17FCA09D5F8601162F341000874D5F84B
:10555000601166F300000874AEB1D5F86001102246
:1055600004F1240188351FF0CDFA287E40F00100B7
:105570002876287820F0010005F8880900E016B1A7
:10558000022F04D02DE095F88800C00727D0D5F869
:105590005C1121B395F88320087C62F387000874BE
:1055A000A17FCA09D5F85C1162F341000874D5F8EF
:1055B0005C1166F3000008748EB1D5F85C0110220E
:1055C00004F1240188351FF09DFA287840F001008D
:1055D00005F8180B287820F0010005F8A009022F23
:1055E00044D0002000EB400005EBC00090F888009C
:1055F000800709D595F87C00D5F86421400805F1AD
:105600007D011032FDF7EFFE8DF8009095F88400D3
:105610006A4600F003008DF8010095F888108DF8B7
:10562000021095F8A0008DF803002146504601F0C5
:1056300043FA2078252805D0212807D0FFDF2078DD
:10564000222803D922212046FDF764FDA07F00F027
:10565000030002280CD0002080F0010150460DF01C
:1056600037F800283FF44FAEFFDF41E60120B9E7ED
:105670000120F1E7706847703AE6FFDF38E670B561
:10568000FE4C002584F85C5025660EF0CCFC04F13D
:105690001001204603F0CEFE84F8305070BD70B586
:1056A0000D46FDF7D0FE040000D1FFDF4FF4B871C6
:1056B00028461FF0C8FA04F124002861A07F00F0FA
:1056C0000300022808D0012105F1E0000EF0ACFC37
:1056D000002800D0FFDF70BD0221F5E70A46014631
:1056E00002F1E0000EF0C0BC70B50546406886B01F
:1056F00001780A2906D00D2933D00E292FD0FFDFDB
:1057000006B070BD86883046FDF79DFE040000D1CE
:10571000FFDF20782128F3D028281BD168680221D8
:105720000E3001F0BEF9A8B168680821801D01F0B3
:10573000B8F978B104F1240130460BF033FF03F0DF
:10574000DFFC00B1FFDF06B02046BDE87040292134
:10575000FDF7E0BC06B0BDE8704003F0B2BE012129
:1057600001726868C6883046FDF76DFE040000D1FE
:10577000FFDFA07F00F00301022902D120F010001A
:10578000A077207821280AD06868017A09B10079C9
:1057900080B1A07F00F00300022862D0FFDFA07F6D
:1057A00000F003000228ABD1FEF798F80028A7D03C
:1057B000FFDFA5E703F085FEA17F08062BD5E07F7C
:1057C000C00705D094F8200000F01F00102820D05A
:1057D0005FF0050084F82300207829281DD02428B4
:1057E000DDD13146042010F07BFC22212046FDF75C
:1057F00091FCA07F00F00300022830D05FF0000091
:1058000080F0010130460CF063FF0028C7D0FFDFB5
:10581000C5E70620DEE70420DCE701F003000228EC
:1058200008D0002080F0010130460CF03FFF050059
:1058300003D101E00120F5E7FFDF25212046FDF738
:1058400069FC03208DF80000694605F1E0000EF0C8
:1058500002FC0228A3D00028A1D0FFDF9FE701208F
:10586000CEE703F02EFE9AE72DE9F04387B0994684
:10587000164688460746FDF7E6FD04004BD0207823
:10588000222848D3232846D0E07F000743D4A07FB6
:1058900000F00300022809D05FF0000080F0010151
:1058A00038460CF003FF050002D00CE00120F5E7BC
:1058B000A07F00F00300022805D001210022384615
:1058C0000CF0EBFE05466946284601F01CF90098ED
:1058D00000B9FFDF45B10098E03505612078222846
:1058E00006D0242804D007E000990020086103E0D6
:1058F00025212046FDF70EFC0098012141704762EA
:10590000868001A9C0E902890EF0C0FB022802D0FE
:10591000002800D0FFDF07B0BDE8F08370B586B087
:105920000546FDF790FD017822291ED9807F00F001
:105930000300022808D0002080F0010128460CF066
:10594000B5FE04002FD101E00120F5E7FFDF2AE0DA
:10595000B4F85E0004F1620630440178427829B15F
:1059600021462846FFF714FCB0B9C9E6ADF804207B
:105970000921284602AB04F012FC03900028F4D061
:1059800005208DF80000694604F1E0000EF063FB8D
:10599000022801D000B1FFDF02231022314604F1BA
:1059A0005E000CF040FDB4F860000028D0D1A7E6FE
:1059B00010B586B00446FDF746FD017822291BD9B3
:1059C000807F00F00300022808D0002080F0010151
:1059D00020460CF06BFE040003D101E00120F5E746
:1059E000FFDF06208DF80000694604F1E0000EF0AC
:1059F00032FB002800D0FFDF06B010BD2DE9F05FBC
:105A000005460C4600270078904601093E4604F101
:105A1000080BBA4602297DD0072902D00A2909D1EC
:105A200046E0686801780A2905D00D2930D00E2992
:105A30002ED0FFDFBBE114271C26002C6BD0808802
:105A4000A080FDF700FD5FEA000900D1FFDF99F8B3
:105A500017005A46400809F11801FDF7C4FC6868B0
:105A6000C0892082696851F8060FC4F8120048689E
:105A7000C4F81600A07E20F0060001E028020020F5
:105A800040F00100A07699F81E0040F020014DE0A2
:105A90001A270A26002CD1D0C088A080FDF7D3FC9D
:105AA000050000D1FFDF59462846FFF742FB7EE1A3
:105AB0000CB1A88BA080287A0B287DD006DC0128A9
:105AC0007BD0022808D0032804D135E00D2875D0FA
:105AD0000E2874D0FFDF6AE11E270926002CADD006
:105AE000A088FDF7B0FC5FEA000900D1FFDF287B4A
:105AF00000F003000128207A1BD020F00100207262
:105B0000297B890861F341002072297BC90861F370
:105B1000820001E041E1F2E02072297B090961F392
:105B2000C300207299F81E0040F0400189F81E1051
:105B30003DE140F00100E2E713270D26002CAAD03A
:105B4000A088FDF780FC8146807F00F003000228DA
:105B500008D0002080F00101A0880CF0A7FD05000E
:105B600003D101E00120F5E7FFDF99F81E0000F006
:105B70000302022A50D0686F817801F003010129E5
:105B8000217A4BD021F00101217283789B0863F3C5
:105B9000410121728378DB0863F3820121728378EB
:105BA0001B0963F3C3012172037863F306112172A9
:105BB000437863F3C71103E061E0A9E090E0A1E05E
:105BC000217284F809A0C178A172022A29D0027931
:105BD000E17A62F30001E1720279520862F3410155
:105BE000E1720279920862F38201E1720279D208CD
:105BF00062F3C301E1724279217B62F300012173F8
:105C00004279520862F3410121734279920862F3AA
:105C100082012173407928E0A86FADE741F00101CE
:105C2000B2E74279E17A62F30001E1724279520807
:105C300062F34101E1724279920862F38201E172FA
:105C40004279D20862F3C301E1720279217B62F3E7
:105C5000000121730279520862F341012173027934
:105C6000920862F3820121730079C00860F3C301D6
:105C7000217399F80000232831D9262140E0182704
:105C80001026E4B3A088FDF7DEFB8346807F00F09A
:105C90000300022809D0002080F00101A0880CF048
:105CA00005FD5FEA000903D101E00120F4E7FFDF11
:105CB000E868A06099F8000040F0040189F800103D
:105CC00099F80100800708D5012020739BF8000097
:105CD00023286CD92721584651E084F80CA066E0AF
:105CE00015270F265CB1A088FDF7ADFB8146062283
:105CF0005946E86808F093FA0120A073A0E041E05B
:105D000048463CE016270926E4B3287B20724EE083
:105D1000287B19270E26ACB3C4F808A0A4F80CA061
:105D2000012807D0022805D0032805D0042803D075
:105D3000FFDF0DE0207207E0697B042801F00F010E
:105D400041F0800121721ED0607A20F00300607261
:105D5000A088FDF778FB05460078212827D0232866
:105D600000D0FFDFA87F00F00300022813D000203E
:105D700080F00101A0880CF0ABFC22212846FDF741
:105D8000C9F914E004E0607A20F00300401CDEE76B
:105D9000A8F8006010E00120EAE70CB16888A08054
:105DA000287A68B301280AD002284FD0FFDFA8F86C
:105DB00000600CB1278066800020BDE8F09F1527A9
:105DC0000F26002CE4D0A088FDF73DFB807F00F07B
:105DD0000300022808D0002080F00101A0880CF008
:105DE00065FC050003D101E00120F5E7FFDFD5F8F0
:105DF0001D000622594608F012FA84F80EA0D6E7D4
:105E000017270926002CC3D0A088FDF71CFB81466C
:105E1000807F00F00300022808D0002080F00101FC
:105E2000A0880CF043FC050003D101E00120F5E758
:105E3000FFDF6878800701D5022000E00120207292
:105E400099F800002328B2D9272159E719270E26EF
:105E5000002C9DD0A088FDF7F6FA5FEA000900D17A
:105E6000FFDFC4F808A0A4F80CA084F808A0A07A6A
:105E700040F00300A07299F81E10C90961F3820076
:105E8000A07299F81F2099F81E1012EAD11F05D0B0
:105E900099F8201001F01F0110292BD020F00800E4
:105EA000A07299F81F10607A61F3C3006072697A7A
:105EB00001F003010129A2D140F00400607299F8B9
:105EC0001E0000F003000228E87A16D0217B60F360
:105ED00000012173AA7A607B62F300006073EA7AA2
:105EE000520862F341012173A97A490861F3410024
:105EF00060735CE740F00800D2E7617B60F300016B
:105F00006173AA7A207B62F300002073EA7A520858
:105F100062F341016173A97A490861F3410020737A
:105F200045E710B5FE4C30B10146102204F12000C7
:105F30001EF0E8FD012084F8300010BD10B50446C5
:105F400000F0D1FDF64920461022BDE81040203176
:105F50001EF0D8BD70B5F24D06004FF0000413D00E
:105F6000FBF7B1F908B110240CE00621304608F027
:105F70003DF9411C05D028665FF0010085F85C0002
:105F800000E00724204670BD0020F7E7007810F0FD
:105F90000F0204D0012A05D0022A0CD110E000091A
:105FA00009D10AE00009012807D0022805D00328FA
:105FB00003D0042801D007207047087000207047E4
:105FC0000620704705282AD2DFE800F003070F17E4
:105FD0001F00087820F0FF001EE0087820F00F0076
:105FE000401C20F0F000103016E0087820F00F0080
:105FF000401C20F0F00020300EE0087820F00F0068
:10600000401C20F0F000303006E0087820F00F004F
:10601000401C20F0F000403008700020704707203E
:1060200070472DE9F041804688B00D4600270846AC
:10603000FBF796F9A8B94046FDF705FA040003D02E
:106040002078222815D104E043F2020008B0BDE810
:10605000F08145B9A07F410603D500F00300022876
:1060600001D01020F2E7A07FC10601D4010702D5BC
:106070000DB10820EAE7E17F090701D50D20E5E72A
:1060800000F00300022805D125B12846FEF762FF83
:106090000700DBD1A07F00F00300022808D0002019
:1060A00080F0010140460CF001FB060002D00FE039
:1060B0000120F5E7A07F00F0030002280ED00020A9
:1060C00080F00101002240460CF0E7FA060007D0FC
:1060D000A07F00F00300022804D009E00120EFE7D0
:1060E0000420B3E725B12A4631462046FEF756FF85
:1060F0006946304600F007FD009800B9FFDF0099BF
:10610000022006F1E0024870C1F824804A610022B2
:106110000A81A27F02F00302022A1CD0012008712A
:10612000287800F00102087E62F3010008762A78E0
:10613000520862F3820008762A78920862F3C3005C
:1061400008762A78D20862F30410087624212046C3
:10615000FCF7E0FF33E035B30871301D886130781B
:10616000400908777078C0F340004877287800F03D
:106170000102887F62F301008877A27FD20962F36F
:1061800082008877E27F62F3C3008877727862F3D7
:1061900004108877A878C87701F1210228462031B9
:1061A000FEF71DFF03E00320087105200876252176
:1061B0002046FCF7AFFFA07F20F04000A07701A9A8
:1061C00000980DF063FF022801D000B1FFDF3846D0
:1061D0003CE72DE9FF4F534A0D4699B09A4607CA4E
:1061E0000AAB002783E807001998FDF72CF9060091
:1061F00006D03078262806D008201DB0BDE8F08FE4
:1062000043F20200F9E7B07F00F00309B9F1020F91
:106210000AD05DB91B98FEF79DFE0028EDD1B07F36
:1062200000F00300022801D11B9890BBB07F00F062
:106230000300022808D0002080F0010119980CF01A
:1062400035FA040003D101E00120F5E7FFDF852DD9
:1062500028D007DCF5B1812D1ED0822D1ED0832DD4
:1062600008D11DE0862D1FD0882D1FD0892D1FD06D
:106270008A2D1FD00F2020710F281DD003F01EF98A
:10628000E0B101208DF83C00201D10902079B8B1BC
:106290005BE111E00020EEE70120ECE70220EAE7F5
:1062A0000320E8E70520E6E70620E4E70820E2E728
:1062B0000920E0E70A20DEE707209EE711209CE79F
:1062C000B9F1020F03D0A56F03D1A06F02E0656F93
:1062D000FAE7606F804632D04FF0010001904FF036
:1062E00002000090214630461B9AFEF757FE1B988D
:1062F000007800F00101A87861F30100A870B17F77
:10630000C90961F38200A870F17F61F3C300A8702E
:10631000617861F30410A87020784009287003E0C8
:1063200028020020F44F02006078C0F3400068703B
:106330001B988078E87000206871287103E00220C3
:10634000019001200090A87898F80210C0F3C000D6
:10635000C1F3C00108405FEA000B2DD05046FAF7A8
:10636000B2FF78BBDAF80C00FAF7ADFF50BBDAF8F1
:106370001C00FAF7A8FF28BBDAF80C00A060DAF8D6
:106380001C00E060607898F8012042EA500100BFEC
:1063900061F34100607098F80210C0B200EA111178
:1063A00061F30000607000202077009906F117006B
:1063B000022908D0012107E0607898F8012002EA5C
:1063C0005001E5E732E0002104EB810148610199C9
:1063D000701C022901D0012100E0002104EB8101A1
:1063E0004861A87800F00300012857D198F802000E
:1063F00000F00300012851D1B9F1020F04D02A1D89
:10640000691D1B98FEF7EBFD287998F804100840E9
:106410008DF83400697998F8052011408DF838100E
:1064200008433BD05046FAF74EFF08B11020E4E68F
:106430000AF110010491B9F1020F17D008460021AA
:1064400004F18C03CDE9000304F5AE7202920DABAA
:106450005A462046FEF70CFE0028E8D1B9F1020F9B
:1064600008D0504608D14FF0010107E050464FF0E8
:106470000101E5E70498F5E74FF0000104F1A403FA
:10648000CDE9000304F5B072029281F001010EAB78
:106490005A462046FEF7ECFD0028C8D160788007F8
:1064A00034D4A87898F80210C0F38000C1F38001BA
:1064B00008432BD0297898F800000AAAB9F1020FF6
:1064C00006D032F811204300DA4002F003070AE058
:1064D00032F810204B00DA4012F0030705D0012FEC
:1064E0000BD0022F0BD0032F07D0BBF1000F0DD024
:1064F000012906D0042904D008E00227F5E7012786
:10650000F3E7012801D0042800D10427B07F40F030
:106510008000B077F17F6BF30001F177607880073E
:1065200006D50320A071BBF1000F0ED1002028E09A
:106530000220022F18D0012F18D0042F29D00020BC
:10654000A071B07F20F08000B07725213046FCF7A5
:10655000E1FD0FA904F1E0000DF07DFD10B102286E
:1065600000D0FFDF002048E6A071DFE7A0710D2119
:1065700004F120001EF067FB207840F0020020703C
:1065800001208DF85C0017AA3146199800F094FAA2
:10659000DBE70120A071D8E72DE9F04387B09046F2
:1065A000894604460025FCF74EFF060006D03078E9
:1065B000272806D0082007B0BDE8F08343F2020088
:1065C000F9E7B07F00F00300022809D05FF0000077
:1065D00080F0010120460CF069F8040003D101E0CD
:1065E0000120F5E7FFDFA7795FEA090005D0012860
:1065F00021D0B9F1020F26D110E0B8F1000F22D15D
:10660000012F05D0022F05D0032F05D0FFDF2DE08D
:106610000C252BE0012529E0022527E04046FAF76A
:1066200052FEB0B9032F0ED11022414604F11D00D5
:106630001EF068FA1AE0012F02D0022F03D104E005
:10664000B8F1000F12D00720B5E74046FAF73BFE3D
:1066500008B11020AFE7102104F11D001EF0D1FA9F
:106660000621404607F0C2FDC4F81D002078252110
:1066700040F0020020703046FCF74CFD2078C10746
:1066800013D020F00100207002208DF8000004F1EA
:106690001D0002908DF804506946C3300DF0DBFCFC
:1066A000022803D010B1FFDF00E02577002082E749
:1066B00030B587B00D460446FCF7C5FEA0B1807F1B
:1066C00000F00300022812D05FF0000080F001010A
:1066D00020460BF0EBFF04000ED02846FAF7F3FD3E
:1066E00038B1102007B030BD43F20200FAE70120B4
:1066F000ECE72078400701D40820F3E7294604F1AD
:106700003D00202205461EF0FDF9207840F01000E3
:10671000207001070FD520F00800207007208DF8A9
:106720000000694604F1E00001950DF094FC022898
:1067300001D000B1FFDF0020D4E770B50D4606465A
:10674000FCF781FE18B10178272921D102E043F23C
:10675000020070BD807F00F00300022808D00020F6
:1067600080F0010130460BF0A1FF040003D101E0ED
:106770000120F5E7FFDFA079022809D16078C00782
:1067800006D02A4621463046FEF702FD10B10FE042
:10679000082070BDB4F860000E280BD204F162012D
:1067A00002231022081F0BF008FE01210170457022
:1067B000002070BD112070BD70B5064614460D4610
:1067C0000846FAF780FD18B92046FAF7A2FD08B18D
:1067D000102070BDA6F57F40FF380ED03046FCF784
:1067E00032FE38B1417822464B08811C1846FCF72E
:1067F000FAFD07E043F2020070BD2046FDF700FEFF
:106800000028F9D11021E01D0FF08BF9E21D294677
:1068100004F1170000F087F9002070BD2DE9F04168
:1068200004468AB01546884600270846FAF798FDC0
:1068300018B92846FAF794FD10B110200AB006E402
:106840002046FCF700FE060003D0307827281AD136
:1068500002E043F20200F1E7B07F00F003000228FB
:1068600008D0002080F0010120460BF01FFF04003B
:1068700003D101E00120F5E7FFDF2078400702D5D2
:106880006078800701D40820D8E7B07F00F00300CB
:10689000022803D0A06F03D1A16F02E0606FFAE776
:1068A000616F407800B19DB1487810B1B8F1000F28
:1068B0000ED0ADB1EA1D06A8E16800F034F910224F
:1068C00006A905F117001EF0F1F818B1042707E03A
:1068D0000720B3E71022E91D04F12D001EF012F984
:1068E000B8F1000F06D0102208F1070104F11D00D5
:1068F0001EF008F92078252140F002002070304673
:10690000FCF708FC2078C10715D020F001002070AA
:1069100002208DF8000004F11D0002901030039059
:106920008DF804706946B3300DF095FB022803D052
:1069300010B1FFDF00E0277700207FE7F8B51546AC
:106940000E460746FCF77FFD040004D0207822287D
:1069500004D00820F8BD43F20200F8BDA07F00F08B
:106960000300022802D043F20500F8BD3046FAF7D2
:10697000AAFC18B92846FAF7A6FC08B11020F8BD01
:1069800000953288B31C21463846FEF724FC1128B6
:1069900015D00028F3D1297C4A08A17F62F3C711E2
:1069A000A177297CE27F61F30002E277297C8908E4
:1069B00084F82010A17F21F04001A177F8BDA17FCC
:1069C0000907FBD4D6F80200C4F83600D6F8060052
:1069D000C4F83A003088A0861022294604F1240029
:1069E0001EF090F8287C4108E07F61F34100E077D9
:1069F000297C61F38200E077287C800884F82100FC
:106A0000A07F40F00800A0770020D3E770B50D46C6
:106A100006460BB1072070BDFCF715FD040007D03A
:106A20002078222802D3A07F800604D4082070BDDD
:106A300043F2020070BDADB1294630460AF0B2FD06
:106A400002F05EFB297C4A08A17F62F3C711A1779F
:106A5000297CE27F61F30002E277297C890884F8CF
:106A6000201004E030460AF0C0FD02F049FBA17F8F
:106A700021F02001A17770BD70B50D46FCF7E3FC55
:106A8000040005D02846FAF744FC20B1102070BD60
:106A900043F2020070BD29462046FEF74AFB002063
:106AA00070BD04E010F8012B0AB100207047491EA8
:106AB00089B2F7D20120704770B51546064602F03C
:106AC000FDFC040000D1FFDF207820F00F00801CC7
:106AD00020F0F0002030207066802868A060BDE8BB
:106AE000704002F0EEBC10B5134C94F83000002852
:106AF00008D104F12001A1F110000DF0EEFA0120FF
:106B000084F8300010BD10B190F8B9202AB10A48BD
:106B100090F8350018B1002003E0B83001E00648D5
:106B200034300860704708B50023009313460A46C6
:106B30000BF0B7FF08BD00002802002018B18178D3
:106B4000012938D101E010207047018842F6011276
:106B5000881A914231D018DC42F60102A1EB020002
:106B600091422AD00CDC41B3B1F5C05F25D06FF45F
:106B7000C050081821D0A0F57060FF381BD11CE070
:106B800001281AD002280AD117E0B0F5807F14D06E
:106B900008DC012811D002280FD003280DD0FF28CF
:106BA00009D10AE0B0F5817F07D0A0F580700338E5
:106BB00003D0012801D0002070470F2070470A2819
:106BC0001FD008DC0A2818D2DFE800F0191B1F1FAD
:106BD000171F231D1F21102815D008DC0B2812D0E9
:106BE0000C2810D00D2816D00F2806D10DE0112842
:106BF0000BD084280BD087280FD0032070470020AB
:106C0000704705207047072070470F207047042009
:106C10007047062070470C20704743F2020070470F
:106C200038B50C46050041D06946FFF7AFF900289A
:106C300019D19DF80010607861F302006070694618
:106C4000681CFFF7A3F900280DD19DF800106078AB
:106C500061F3C5006070A978C1F34101012903D037
:106C6000022905D0072038BD217821F0200102E05B
:106C7000217841F020012170410704D0A978C9088A
:106C800061F386106070607810F0380F07D0A97833
:106C9000090961F3C710607010F0380F02D16078F5
:106CA000400603D5207840F040002070002038BD19
:106CB00070B504460020088015466068FFF7B0FFF5
:106CC000002816D12089A189884211D8606880786F
:106CD000C0070AD0B1F5007F0AD840F20120B1FB0D
:106CE000F0F200FB1210288007E0B1F5FF7F01D918
:106CF0000C2070BD01F201212980002070BD10B56B
:106D00000478137864F3000313700478640864F360
:106D1000410313700478A40864F3820313700478A9
:106D2000E40864F3C30313700478240964F30413C0
:106D300013700478640964F34513137000788009B4
:106D400060F38613137031B10878C10701D1800751
:106D500001D5012000E0002060F3C713137010BDBF
:106D60004278530702D002F0070306E012F0380F12
:106D700002D0C2F3C20300E001234A7863F30202A7
:106D80004A70407810F0380F02D0C0F3C20005E01E
:106D9000430702D000F0070000E0012060F3C502C5
:106DA0004A7070472DE9F04F95B00D00824612D021
:106DB000122128461DF025FF4FF6FF7B05AA012171
:106DC000584607F03AF80024264637464FF4205834
:106DD0006FF4205973E0102015B0BDE8F08F00BFAC
:106DE0009DF81E0001280AD1BDF81C1041450BD0AA
:106DF00011EB09000AD001280CD002280CD0042C79
:106E00000ED0052C0FD10DE0012400E00224BDF8C6
:106E10001A6008E0032406E00424BDF81A7002E0BA
:106E2000052400E00624BDF81A10514547D12C7402
:106E3000BEB34FF0000810AA4FF0070ACDE9028256
:106E4000CDE900A80DF13C091023CDF81090424681
:106E50003146584607F0A4F808BBBDF83C002A4666
:106E6000C0B210A90DF0AFF9C8B9AE81CFB1CDE96C
:106E700000A80DF1080C0AAE40468CE8410213232D
:106E800000223946584607F08BF840B9BDF83C005F
:106E9000F11CC01EC0B22A1D0DF095F910B10320DF
:106EA0009AE70AE0BDF82900E881062C05D19DF893
:106EB0001E00A872BDF81C00288100208CE705A8E0
:106EC00006F0C7FF00288BD0FFF779FE84E72DE995
:106ED000F0471C46DDE90978DDF8209015460E00E4
:106EE000824600D1FFDF0CB1208818B1D5B1112046
:106EF000BDE8F087022D01D0012100E0002106F15C
:106F0000140005F089FEA8F8000002463B46294619
:106F1000504603F044F9C9F8000008B9A41C3C60CD
:106F20000020E5E71320E3E7F0B41446DDE904525E
:106F30008DB1002314B1022C09D101E0012306E038
:106F40000D7CEE0703D025F0010501230D742146C9
:106F5000F0BC03F0AFBF1A80F0BC70472DE9FE4FC4
:106F600091461A881C468A468046FAB102AB4946C9
:106F700003F015F9050019D04046A61C27880BF030
:106F8000D9FC3246072629463B4600960BF0E7F827
:106F900020882346CDE900504A4651464046FFF737
:106FA000C3FF002020800120BDE8FE8F0020FBE70A
:106FB0002DE9F04786B082460EA8904690E8B000D2
:106FC000894604AA05A903A88DE807001E462A469B
:106FD00021465046FFF77BFF039901B1012139702B
:106FE000002818D1F94904F1140204AB0860039891
:106FF00005998DE8070042464946504606F0C3F918
:10700000A8B1092811D2DFE800F005080510100A20
:107010000C0C0E00002006B06AE71120FBE70720E9
:10702000F9E70820F7E70D20F5E70320F3E7BDF8BF
:1070300010100398CDE9000133462A4621465046F8
:10704000FFF772FFE6E72DE9F04389B00D46DDE971
:10705000108781461C461646142103A81DF0F3FD37
:10706000012002218DF810108DF80C008DF81170A0
:10707000ADF8146064B1A278D20709D08DF816007B
:10708000E088ADF81A00A088ADF81800A068079055
:1070900008A80095CDE90110424603A948466B684F
:1070A000FFF786FF09B0BDE8F083F0B58BB0002490
:1070B0000646069407940727089405A809940194A6
:1070C00000970294CDE903400D4610232246304636
:1070D00006F066FF78B90AA806A901940097029401
:1070E000CDE90310BDF8143000222946304606F0E1
:1070F0002DFD002801D0FFF762FD0BB0F0BD06F0BA
:10710000CDBB2DE9FC410C468046002602F0D6F9A5
:10711000054620780D287DD2DFE800F0BC0713B3C8
:1071200025BD49496383AF959B00A848006820B1FD
:10713000417841F010014170ADE0404602F0EEF9B7
:10714000A9E0042140460BF0B1FA070000D1FFDFAF
:1071500007F11401404605F0F3FCA5BB132140469E
:10716000FDF728FC97E0042140460BF09FFA07004A
:1071700000D1FFDFE088ADF800000020B8819DF865
:107180000000010704D5C00602D5A088B88105E03B
:107190009DF8010040067ED5A088F88105B9FFDF83
:1071A00022462946404601F0BDFC022673E0E188F4
:1071B000ADF800109DF8011009060FD5072803D07F
:1071C00006280AD00AE024E0042140460BF06EFABB
:1071D000060000D1FFDFA088F0810226CDB9FFDFD5
:1071E00017E0042140460BF061FA070000D1FFDFF1
:1071F00007F1140006F089FB90F0010F02D1E0794D
:10720000000648D5387C022640F00200387405B9E3
:10721000FFDF00E03EE022462946404601F082FCC6
:1072200039E0042140460BF041FA017C002D01F0C9
:107230000206C1F340016171017C21F00201017479
:10724000E7D1FFDFE5E702260121404602F098F989
:1072500021E0042140460BF029FA054660680090C1
:107260002089ADF8040001226946404602F0A9F9E0
:10727000287C20F0020028740DE0002DC9D1FFDF2A
:10728000C7E7022600214046FBF71EF9002DC0D1BA
:10729000FFDFBEE7FFDF3046BDE8FC813EB50C00F6
:1072A00009D001466B4601AA002006F0FBFE20B182
:1072B000FFF785FC3EBD10203EBD00202080A07061
:1072C0009DF8050002A900F00700FEF77BFE50B90B
:1072D0009DF8080020709DF8050002A9C0F3C200C7
:1072E000FEF770FE08B103203EBD9DF808006070F7
:1072F0009DF80500C109A07861F30410A0709DF805
:107300000510890961F3C300A0709DF80410890677
:1073100001D5022100E0012161F342009DF8001037
:1073200061F30000A07000203EBD70B51446064613
:107330000D4651EA040005D075B10846FAF707F882
:1073400078B901E0072070BD2946304606F00BFFF2
:1073500010B1BDE8704032E454B12046F9F7F7FFB0
:1073600008B1102070BD21463046BDE8704095E759
:10737000002070BD2DE9FC5F0C46904605460027B5
:1073800001780822007A3E46B2EB111F7ED104F14B
:107390000A0100910A31821E4FF0020A04F1080B23
:1073A0000191092A73D2DFE802F0ECDF05F4272708
:1073B0007AA9CD00688804210BF078F9060000D185
:1073C000FFDFB08920B152270726C2E08C020020DF
:1073D00051271026002C7DD06888A0800120A07144
:1073E000A88900220099FFF7A0FF002873D1A8897F
:1073F0002081288AE081D1E0B5F81290072824D1B5
:10740000E87B000621D5512709F1140086B2002C33
:10741000E1D0A88900220099FFF787FF00285AD100
:107420006888A08084F806A0A88920810120A07324
:10743000288A2082A4F81290A88A009068884B4677
:10744000A969019A01F04BFBA8E0502709F112004D
:1074500086B2002C3ED0A88900225946FFF765FF6E
:10746000002838D16888A080A889E080287A072879
:1074700013D002202073288AE081E87BC009607362
:10748000A4F81090A88A0090688801E083E080E06A
:107490004B4604F11202A969D4E70120EAE7B5F8E6
:1074A0001290512709F1140086B2002C66D068882A
:1074B00004210BF0FBF883466888A080A88900228D
:1074C0000099FFF732FF00286ED184F806A0A88942
:1074D000208101E052E067E00420A073288A208226
:1074E000A4F81290A88A009068884B46A969019A6E
:1074F00001F0F5FAA989ABF80E104FE06888FBF7A8
:10750000A2FF0746688804210BF0D0F8064607B9A9
:10751000FFDF06B9FFDF687BC00702D051271426C2
:1075200001E0502712264CB36888A080502F06D067
:1075300084F806A0287B594601F0E1FA2EE0287B6A
:10754000A11DF9E7FE49A8894989814205D154273F
:1075500006269CB16888A08020E053270BE068884D
:10756000A080A889E08019E0688804210BF09EF8CB
:1075700000B9FFDF55270826002CF0D1A8F80060DD
:1075800011E056270726002CF8D06888A08000203C
:1075900013E0FFDF02E0012808D0FFDFA8F8006059
:1075A0000CB1278066800020BDE8FC9F5727072686
:1075B000002CE3D06888A080687AA071EEE7401DB7
:1075C00020F0030009B14143091D01EB4000704761
:1075D00013B5DB4A00201071009848B100246846BA
:1075E0000AF081FE002C02D1D64A009911601CBD20
:1075F00001240020F4E770B50D46064686B0144617
:107600005C2128461DF01FFB04B9FFDFA0786874D9
:10761000A2782188284601F09CFA0020A881E88100
:10762000228805F11401304605F06FFA6A460121FF
:10763000304606F002FC19E09DF80300000715D55E
:10764000BDF806103046FFF730FD9DF80300BDF889
:10765000061040F010008DF80300BDF80300ADF8EF
:107660001400FF233046059A06F048FD684606F0F0
:10767000F0FB0028E0D006B070BD10B50C4601F15B
:10768000140005F079FA0146627C2046BDE81040FE
:1076900001F094BA30B50446A94891B04FF6FF7591
:1076A000C18905AA284606F0C8FB30E09DF81E00F7
:1076B000A0422AD001282AD1BDF81C00B0F5205FD5
:1076C00003D042F60101884221D1002002AB0AAA70
:1076D0000CA9019083E8070007200090BDF81A105C
:1076E00010230022284606F05BFC38B9BDF82800BC
:1076F0000BAAC0B20CA90CF066FD10B1032011B0AA
:1077000030BD9DF82E00A04201D10020F7E705A86A
:1077100006F09FFB0028C9D00520F0E770B50546AC
:1077200004210AF0C3FF040000D1FFDF04F11401BB
:107730000C46284605F004FA21462846BDE870406C
:1077400005F005BA70B58AB00C460646FBF77BFE1D
:10775000050014D02878222827D30CB1A08890B136
:1077600001208DF80C0003208DF8100000208DF80A
:10777000110054B1A088ADF81800206807E043F26A
:1077800002000AB070BD0920FBE7ADF818000590B3
:10779000042130460AF08AFF040000D1FFDF04F123
:1077A000140005F000FA000701D40820E9E701F011
:1077B00085FE60B108A802210094CDE9011095F87A
:1077C000232003A930466368FFF7F2FBD9E71120B5
:1077D000D7E72DE9F04FB2F802A0834689B01546ED
:1077E00089465046FBF72FFE0746042150460AF013
:1077F0005DFF0026044605964FF002080696ADF898
:107800001C6007B9FFDF04B9FFDF4146504603F0B3
:10781000BCFE50B907AA06A905A88DE80700424694
:10782000214650466368FFF752FB454807AB0660A8
:10783000DDE9051204F11400CDF80090CDE9032034
:10784000CDE9013197F82320594650466B6805F081
:10785000F3F906000AD0022E04D0032E14D0042E11
:1078600000D0FFDF09B03046BDE8F08FBDF81C0046
:107870000028F7D00599CDE9001042462146504630
:107880006368FFF751FBEDE7687840F00800687027
:10789000E8E72DE9F04F99B004464FF0000828487A
:1078A000ADF81C80ADF82080ADF82480A0F80880E9
:1078B000ADF81480ADF81880ADF82C80ADF82880B4
:1078C000007916460D464746012808D0022806D002
:1078D000032804D0042802D0082019B0C4E72046A9
:1078E000F9F7F1FC80BB2846F9F7EDFC60BB606856
:1078F000F9F736FD40BB606848B16089218988424C
:1079000002D8B1F5007F01D90C20E6E780460EAA27
:1079100006A92846FFF7CCF90028DED168688078F0
:10792000C0F34100022808D19DF8190010F0380F6B
:1079300003D02869F9F70BFD30B905A9206904E0E7
:107940008C0200201400002020E0FFF769F90028D5
:10795000C3D1206948B1607880079DF8150000F018
:10796000380001D5F0B300E0E0BB9DF814008006BC
:107970000ED59DF8150010F0380F03D06068F9F7A8
:10798000E6FC18B96068F9F7EBFC08B11020A4E731
:107990000AA96069FFF744F900289ED1606940B1E7
:1079A0009DF8290000F0070101293CD110F0380FA3
:1079B00039D00BA9A069FFF733F900288DD19DF8C4
:1079C000280080062FD49DF82C0080062BD4A069B7
:1079D00050B19DF82D0000F00701012923D110F0CE
:1079E000380F00E01FE01ED0E06818B10078D0B179
:1079F0001C2818D20FAA611C2046FFF780F901212C
:107A0000384661F30F2082468DF85210B94642F68F
:107A100003000F46ADF850000DF13F0218A9286889
:107A20000CF0F0FB08B1072057E79DF8600015A99E
:107A3000CDF80090C01CCDE9019100F0FF0B0023B0
:107A40000BF20122514614A806F03AF9F0BBBDF83A
:107A500054000C90FD492A8928690092CDE9010162
:107A60006B89BDF838202868069906F029F90100CD
:107A70007ED120784FF0020AC10601D480062BD5B2
:107A8000ADF80C90606950B90AA906A8FFF768F92B
:107A90009DF8290020F00700401C8DF829009DF872
:107AA000280008A940F0C8008DF828008DF8527011
:107AB00042F60210ADF8500003AACDF800A0CDE9BF
:107AC0000121002340F2032214A800E01EE00A99DD
:107AD00006F0F6F801004BD1DC484D4608385B460D
:107AE0000089ADF83D000FA8CDE90290CDF80490D3
:107AF000CDF810904FF007090022CDF80090BDF8A6
:107B000054104FF6FF7006F021F810B1FFF757F848
:107B1000E3E69DF83C00000625D52946012060F3E8
:107B20000F218DF852704FF42450ADF85000ADF88D
:107B30000C5062789DF80C00002362F300008DF871
:107B40000C006278CDF800A0520862F341008DF875
:107B50000C0003AACDE9012540F2032214A806F087
:107B6000AFF8010004D1606888B32069A8B900E0CB
:107B700086E005A906A8FFF7F3F86078800706D429
:107B80009DF8150020F038008DF8150005E09DF8EF
:107B9000140040F040008DF814008DF8527042F649
:107BA0000110ADF85000208940F20121B0FBF1F244
:107BB00001FB1202606809ABCDF80080CDE901033A
:107BC000002314A8059906F07BF8010058D120780D
:107BD000C00729D0ADF80C50A06950B90BA906A870
:107BE000FFF7BEF89DF82D0020F00700401C8DF82F
:107BF0002D009DF82C008DF8527040F040008DF85B
:107C00002C0042F60310ADF8500007A903AACDF8E6
:107C100000A0CDE90121002340F2032214A80B9912
:107C200006F04EF801002BD1E06868B32946012028
:107C300060F30F218DF8527042F60410ADF8500039
:107C4000E068002302788DF8582040788DF85900BC
:107C5000E06816AA4088ADF85A00E06800798DF80F
:107C60005C00E068C088ADF85D00CDF80090CDE91B
:107C700001254FF4027214A806F022F8010003D087
:107C80000C9800F0C7FF28E67048032108380171FE
:107C900056B100893080BDF824007080BDF8200006
:107CA000B080BDF81C00F080002016E670B50125FC
:107CB0008AB016460B46012802D0022816D104E0ED
:107CC0008DF80E504FF4205003E08DF80E5042F620
:107CD0000100ADF80C005BB10024601C60F30F24C0
:107CE00004AA08A918460CF08DFA18B1072048E537
:107CF000102046E504A99DF820205448CDE9002134
:107D0000801E02900023214603A802F2012205F002
:107D1000D7FF10B1FEF753FF33E54C4808380EB1DA
:107D2000C1883180057100202BE5F0B593B007467E
:107D300001268DF83E6041F60100ADF83C0012AA24
:107D40000FA93046FFF7B2FF002848D13F4C00256D
:107D5000083CE7B31C2102A81CF075FF9DF8080041
:107D60008DF83E6040F020008DF8080042F60520B6
:107D7000ADF83C000E959DF83A00119520F00600F4
:107D8000801C8DF83A009DF838006A4620F0FF000C
:107D90008DF838009DF8390009A920F0FF008DF812
:107DA00039000420ADF82C00ADF830000EA80A9080
:107DB00011A80D900FA80990ADF82E5002A8FFF75A
:107DC00068FD00280BD1BDF80000608100E008E0EC
:107DD000BDF80400A081401CE0812571002013B093
:107DE000F0BD6581A581BDF84800F4E72DE9F74FA6
:107DF0001649A0B00024083917940A79A146012A2F
:107E000004D0022A02D0082023B02DE5CA8882427D
:107E100001D00620F8E721988A46824201D1072046
:107E2000F2E701202146ADF848004FF6FF788DF8C3
:107E30006E0042F6020B60F30F21ADF84A80ADF8F8
:107E40006CB006918DF8724002E0000094020020B0
:107E50001CA9ADF870401391ADF8508012A806F03F
:107E60001CF800252E462F460DAB072212A94046CE
:107E700006F016F878B10A285DD195B38EB3ADF847
:107E80006450ADF866609DF85E008DF8144019AC42
:107E9000012864D06BE09DF83A001FB3012859D146
:107EA000BDF8381059451FD118A809A901940294AA
:107EB000CDE9031007200090BDF8361010230022F2
:107EC000404606F06DF8B0BBBDF86000042801D054
:107ED00006284AD1BDF82410219881423AD10F20BA
:107EE00092E73AE0012835D1BDF83800B0F5205FBF
:107EF00003D042F6010188422CD1BAF80600BDF841
:107F00003610884201D1012700E0002705B19EB15B
:107F1000219881421ED118A809AA01940294CDE9A2
:107F20000320072000900D4610230022404606F053
:107F300037F800B902E02DE04E460BE0BDF86000D6
:107F4000022801D0102810D1C0B217AA09A90CF03C
:107F50003AF950B9BDF8369086E7052054E705A9EF
:107F600017A8221D0CF04EF908B103204CE79DF82C
:107F700014000023001DC2B28DF814202298009234
:107F8000CDE901401BA8069905F09AFE10B902221E
:107F90008AF80420FEF713FE36E710B50B46401EA4
:107FA00088B084B205AA00211846FEF7A8FE00207A
:107FB0000DF1080C06AA05A901908CE8070007201E
:107FC00000900123002221464FF6FF7005F0BEFD10
:107FD0000446BDF81800012800D0FFDF2046FEF758
:107FE000EEFD08B010BDF0B5F74F044687B0387904
:107FF0000E46032804D0042802D0082007B0F0BDA4
:1080000004AA03A92046FEF753FE0500F6D16068D6
:108010008078C0F3410002280AD19DF80D0010F0CD
:10802000380F05D02069F9F792F908B11020E5E77B
:10803000208905AA21698DE807006389BDF8102011
:108040002068039905F03CFE10B1FEF7B8FDD5E7B6
:1080500016B1BDF814003080042038712846CDE7F1
:10806000F8B50C0006460CD001464FF6FF7500230C
:108070006A46284606F016F828B100BFFEF79FFDB5
:10808000F8BD1020F8BD69462046FEF7C9FD00285E
:10809000F8D1A078314600F001032846009A06F096
:1080A0002DF8EBE730B587B0144600220DF1080C2F
:1080B00005AD01928CE82C00072200920A46014689
:1080C00023884FF6FF7005F041FDBDF814102180A4
:1080D000FEF775FD07B030BD70B50D4604210AF0FE
:1080E000E5FA040000D1FFDF294604F11400BDE8E1
:1080F000704004F051BD70B50D4604210AF0D6FA67
:10810000040000D1FFDF294604F11400BDE87040EF
:1081100004F065BD70B50D4604210AF0C7FA0400ED
:1081200000D1FFDF294604F11400BDE8704004F0DF
:108130007DBD70B5054604210AF0B8FA040000D1EF
:10814000FFDF214628462368BDE870400122FEF784
:1081500005BF70B5064604210AF0A8FA040000D154
:10816000FFDF04F1140004F007FD401D20F00305BB
:1081700011E0011D00880022431821463046FEF719
:10818000EDFE00280BD0607CABB2684382B2A068E1
:10819000011D0AF048F9A06841880029E9D170BDA5
:1081A00070B5054604210AF081FA040000D1FFDF12
:1081B000214628466368BDE870400222FEF7CEBE25
:1081C00070B50E46054601F079F9040000D1FFDFD5
:1081D0000120207266726580207820F00F00001D5B
:1081E00020F0F00040302070BDE8704001F069B927
:1081F00010B50446012900D0FFDF2046BDE810403D
:108200000121FAF761B92DE9F04F97B04FF0000A5C
:108210000C008346ADF814A0D04619D0E06830B108
:10822000A068A8B10188ADF81410A0F800A05846C5
:10823000FBF709F9070043F2020961D038782228D8
:108240005CD3042158460AF031FA050005D103E059
:10825000102017B0BDE8F08FFFDF05F1140004F027
:108260008BFC401D20F00306A078012803D00228D3
:1082700001D00720EDE7218807AA584605F0DDFD6B
:1082800030BB07A805F0E5FD10BB07A805F0E1FD30
:1082900048B99DF82600012805D1BDF82400A0F5B5
:1082A0002451023902D04FF45050D2E7E068B0B107
:1082B000CDE902A00720009005AACDF804A0049201
:1082C000A2882188BDF81430584605F03FFC10B153
:1082D000FEF775FCBDE7A168BDF8140008809DF8A5
:1082E0001F00C00602D543F20140B2E70B9838B137
:1082F000A1780078012905D080071AD40820A8E7C2
:108300004846A6E7C007F9D002208DF83C00A868CF
:108310004FF00009A0B1697C4288714391420FD9A6
:108320008AB2B3B2011D0AF034F88046A0F800A06A
:1083300006E003208DF83C00D5F800804FF00109DD
:108340009DF8200010F0380F00D1FFDF9DF82000CD
:108350001E49C0F3C200084497F8231010F8010C1E
:10836000884201D90F2074E72088ADF8400014A995
:108370000095CDE90191434607220FA95846FEF723
:1083800017FE002891D19DF8500050B9A07801281F
:1083900007D1687CB3B2704382B2A868011D0AF0AD
:1083A0000CF8002055E770B5064615460C46084601
:1083B000FEF7C4FB002805D12A4621463046BDE819
:1083C000704073E470BD11E58C020020FE4F020086
:1083D00070B51E4614460D0009D044B1616831B134
:1083E00038B1FC49C988814203D0072070BD1020F4
:1083F00070BD2068FEF7A2FB0028F9D13246214665
:108400002846BDE87040FFF744BA70B515460C0029
:1084100006D038B1EF490989814203D0072070BDE9
:10842000102070BD2068FEF789FB0028F9D129468D
:108430002046BDE87040D6E570B5064686B00D46CC
:1084400014461046F8F765FFD0BB6068F8F788FF60
:10845000B0BBA6F57F40FF3803D03046FAF7F3FFF4
:1084600080B128466946FEF79DFC00280CD19DF896
:1084700010100F2008293DD2DFE801F0080606069B
:10848000060A0A0843F2020006B070BD0320FBE7AB
:108490009DF80210012908D1BDF80010B1F5C05FA8
:1084A000F2D06FF4C052D142EED09DF806100129EF
:1084B0000DD1BDF80410A1F52851062907D200E01E
:1084C00029E0DFE801F0030304030303DCE79DF880
:1084D0000A1001290FD1BDF80810B1F5245FD3D0DF
:1084E000A1F60211B1F50051CED00129CCD002295C
:1084F00001D1C9E7FFDF606878B9002305AA2946E2
:10850000304605F0CFFD10B1FEF759FBBCE79DF8F2
:108510001400800601D41020B6E761882246284660
:108520006368FFF7BFFDAFE72DE9F043814687B0F1
:10853000884614461046F8F7ECFE18B1102007B034
:10854000BDE8F083002306AA4146484605F0AAFD8F
:1085500018B100BFFEF733FBF1E79DF81800C00625
:1085600002D543F20140EAE70025072705A8019557
:1085700000970295CDE9035062884FF6FF7341469C
:10858000484605F00DFD060013D16068F8F7C1FEFE
:1085900060B960680195CDE9025000970495238881
:1085A00062884146484605F0FBFC0646BDF81400CB
:1085B00020803046CEE739B1864B0A889B899A42A3
:1085C00002D843F2030070471DE610B586B0814C17
:1085D0000423ADF81430638943B1A4898C4201D2DD
:1085E000914205D943F2030006B010BD0620FBE717
:1085F000ADF81010002100910191ADF8003002217A
:108600008DF8021005A9029104A90391ADF812207A
:108610006946FFF7F8FDE7E72DE9FC4781460D467F
:108620000846F8F750FE88BB4846FAF70CFF5FEAA9
:1086300000080AD098F80000222829D304214846CF
:108640000AF034F8070005D103E043F20200BDE868
:10865000FC87FFDF07F1140004F0A5FA064628782E
:10866000012803D0022804D00720F0E7B0070FD577
:1086700002E016F01C0F0BD0A8792C1DC00709D002
:10868000E08838B1A068F8F71EFE18B11020DEE7C8
:108690000820DCE721882A780720B1F5847F35D0CF
:1086A0001EDC40F20315A1F20313A94226D00EDC12
:1086B000B1F5807FCBD003DCF9B1012926D1C6E723
:1086C000A1F58073013BC2D0012B1FD113E0012B18
:1086D000BDD0022B1AD0032BB9D0042B16D112E037
:1086E000A1F20912082A11D2DFE802F00B040410EB
:1086F00010101004ABE7022AA9D007E0012AA6D087
:1087000004E0320700E0F206002AA0DACDB200F061
:10871000D5FE50B198F82300CDE90005FA8923462B
:1087200039464846FEF78FFC91E711208FE72DE987
:10873000F04F8BB01F4615460C4683460026FAF7CD
:1087400082FE28B10078222805D208200BB081E5EE
:1087500043F20200FAE7B80801D00720F6E7032F3A
:1087600000D100274FF6FF79CCB1022D73D32046FC
:10877000F8F7F6FD30B904EB0508A8F10100F8F7A9
:10878000EFFD08B11020E1E7AD1EAAB22146484630
:1087900005F057FD38F8021C88425CD1ADB20D4996
:1087A000B80702D58889401C00E001201FFA80F834
:1087B000F80701D08F8900E04F4605AA4146584688
:1087C00005F03BFB4FF0070A4FF00009DCB32046F1
:1087D0000BE000008C020020408810283BD8361D9A
:1087E000304486B2AE4236D2A01902884245F3D355
:1087F00051E000BF9DF8170002074CD594B304EB7D
:108800000608361DB8F80230B6B2102B23D89A19D4
:10881000AA4220D8B8F8002091421CD1C0061CD52D
:10882000CDE900A90DF1080C0AAAA11948468CE867
:108830000700B8F800100022584605F087F920B16B
:10884000FEF7BDF982E726E005E0B8F80200BDF8C2
:108850002810884201D00B2078E7B8F80200304495
:1088600086B207E0FFE7C00604D55846FEF71DFCB8
:10887000002888D19DF81700BDF81A1020F01000CC
:108880008DF81700BDF81700ADF80000FF2358461B
:10889000009A05F033FC05A805F0DBFA18B9BDF81D
:1088A0001A10B942A6D90421584609F0FFFE040067
:1088B00000D1FFDFA2895AB1CDE900A94D460023BE
:1088C00021465846FEF7BFFB0028BBD1A5813DE7F6
:1088D00000203BE72DE9FF4F8BB01E4617000D46E9
:1088E0004FF0000412D0B00802D007200FB0B1E45E
:1088F000032E00D100265DB10846F8F728FD28B9FF
:108900003888691E0844F8F722FD08B11020EDE709
:10891000C64AB00701D5D18900E00121F0074FF622
:10892000FF7802D0D089401E00E0404686B206AAF9
:108930000B9805F082FA4FF000094FF0070B0DF18C
:10894000140A38E09DF81B00000734D5CDF80490D8
:10895000CDF800B0CDF80890CDE9039A4346002247
:108960000B9805F01DFB60BB05B3BDF814103A88E9
:1089700021442819091D8A4230D3BDF81E2020F851
:10898000022BBDF8142020F8022BCDE900B9CDE967
:108990000290CDF810A0BDF81E10BDF814300022D2
:1089A0000B9805F0FDFA08B103209FE7BDF814000D
:1089B0002044001D84B206A805F04BFA20B10A2815
:1089C00006D0FEF7FCF891E7BDF81E10B142B9D908
:1089D00034B17DB13888A11C884203D20C2085E7D0
:1089E000052083E722462946404605F02AFC014639
:1089F00028190180A41C3C80002077E710B50446AC
:108A0000F8F787FC08B1102010BD8848C089208085
:108A1000002010BDF0B58BB00D460646142103A80A
:108A20001CF011F901208DF80C008DF810000020C9
:108A30008DF81100ADF814503046FAF704FD48B136
:108A40000078222812D30421304609F02FFE0400BA
:108A500005D103E043F202000BB0F0BDFFDF04F1EB
:108A60001400074604F09FF8800601D40820F3E7BD
:108A7000207C022140F00100207409A80094CDE977
:108A80000110072203A930466368FEF791FA20B16E
:108A9000217C21F001012174DEE729463046F9F7F7
:108AA00004FD08A9384604F06DF800B1FFDFBDF8F9
:108AB0002040172C01D2172000E02046A84201D9FF
:108AC0002C4602E0172C00D2172421463046FFF72F
:108AD00012FB21463046F9F70EFA0020BCE7F8B544
:108AE0001C4615460E46069F09F012FF2346FF1D41
:108AF000BCB231462A46009409F0FDFAF8BD70B5C3
:108B00000C4605460E2120461CF07BF800202080F4
:108B10002DB1012D01D0FFDF70BD062000E0052042
:108B2000A07170BD10B548800878134620F00F0082
:108B3000001D20F0F00080300C4608701422194609
:108B400004F108001CF023F800F0BBFC3748046077
:108B500010BD2DE9F047DFF8D890491D064621F0F9
:108B6000030117460C46D9F8000009F0DAFB0500AE
:108B700000D1FFDF4FF000083560A5F800802146E6
:108B8000D9F8000009F0CDFB050000D1FFDF7560CA
:108B9000A5F800807FB104FB07F1091D0BD0D9F8BF
:108BA000000009F0BEFB040000D1FFDFB460C4F890
:108BB0000080BDE8F087C6F80880FAE72DE9F041AB
:108BC0001746491D21F00302194D06460168144657
:108BD000286809F0D1FB22467168286809F0CCFBAF
:108BE0003FB104FB07F2121D03D0B168286809F0F9
:108BF000C3FB042009F002FD0446042009F006FD31
:108C0000201A012804D12868BDE8F04109F07EBB94
:108C1000BDE8F08110B50C4605F0DBF800B1FFDFD0
:108C20002046BDE81040FDF7CABF00008C020020BE
:108C30001400002038B50C468288817B19B1418927
:108C4000914200D90A462280C188121D90B26A461C
:108C500008F0D0FDBDF80000032800D30320C1B206
:108C6000208800F0D7FF38BD38B50C468288817B5C
:108C700019B10189914200D90A462280C188121D8A
:108C800090B26A4608F0B6FDBDF80000022800D395
:108C90000220C1B2208800F0BDFF401CC0B238BD28
:108CA0002DE9FE4F82468B46F94814460BF103022C
:108CB000D0E90010CDE9011022F0030268464FF41C
:108CC0009071009209F00FFBF24E002C02D1F24A93
:108CD00000999160009901440091357F05F10105EB
:108CE00004D1E8B20BF008FA00B1FFDF009800EB06
:108CF0000510C01C20F0030100915CB9707AB27AB3
:108D00001044C2B200200870308C80B204F0E9FE3A
:108D100000B1FFDF0098316A0844009021466846A0
:108D200000F03BFF80460098C01C20F0030000903C
:108D3000B37AF27A717A04B1002009F0CAFB009983
:108D4000084400902146684600F06FFFD148002794
:108D50003D4690F801900CE0284600F001FF0646E1
:108D600081788088F9F75EF971786D1C00FB0177D6
:108D7000EDB24D45F0D10098C01C20F003000090EA
:108D800004B100203946F9F758F900990027084442
:108D90000090C0483D4690F801900CE0284600F055
:108DA000DFFE0646C1788088FEF709FC71786D1CED
:108DB00000FB0177EDB24D45F0D10098C01C20F0CA
:108DC0000300009004B100203946FEF701FC009931
:108DD0004FF0000908440090AE484D4647780EE039
:108DE000284600F0BDFE0646807B30B106F1080043
:108DF00001F00FFF727800FB02996D1CEDB2BD42CD
:108E0000EED10098C01C20F00300009004B10020B7
:108E1000494601F002FF0099084400902146684647
:108E200000F075FE0098C01D20F007000090DAF8F1
:108E30000010814204D3A0EB0B01B1F5803F04DBAD
:108E40004FF00408CAF8000004E0CAF80000B8F1C6
:108E5000000F02D04046BDE8FE8F34BB8F49002092
:108E6000009A03F057F8FBF768FA8A4801AA002134
:108E70001030F8F7F3FA00B1FFDF8648407FFEF7C5
:108E800054FF00B1FFDF83484FF4F67140301BF010
:108E9000DAFE80480421403080F8E91180F8EA11B8
:108EA000062180F8EB11032101710020D3E770B592
:108EB000784C06464034207804EB4015E0780835BD
:108EC00090B9A01990F8E80100280ED0A0780F28DA
:108ED00000D3FFDF202128461BF0B5FE687866F33B
:108EE000020068700120E070284670BD2DE9F04155
:108EF00005460C4600270078052190463E46B1EB1A
:108F0000101F00D0FFDF287A50B101280ED0FFDFFC
:108F1000A8F800600CB1278066800020BDE8F081D1
:108F20000127092674B16888A08008E0022714266A
:108F300044B16888A0802869E060A88A2082287BE4
:108F40002072E5E7A8F80060E7E730B5514C012052
:108F5000002120706170207260720322A272E072A0
:108F600021732174052121831F21618360744CA129
:108F700061610A2121776077474D4FF4B06020622C
:108F80006868C11C21F00301814200D0FFDF6868DE
:108F9000606030BD30B5404C1568636810339D4249
:108FA00002D20420136030BD3A4B5D785A6802EB60
:108FB0000512107051700320D0801720908001207E
:108FC000D0709070002090735878401C5870606882
:108FD00010306060002030BD70B506462D4800247A
:108FE000457807E0204600F0BBFD0178B14204D08F
:108FF000641CE4B2AC42F5D1002070BDF7B5074661
:1090000008780C4610B3FFF7E7FF0546A7F12006E6
:10901000202F06D0052E19D2DFE806F00F2B2B15D6
:109020001A0000F0A8FD0DB1697800E00021401A97
:10903000A17880B20844FF2808D8A07830B1A08871
:10904000022831D202E0608817282DD20720FEBD09
:10905000207AE0B161881729F8D3A1881729F5D3C0
:10906000A1790029F2D0E1790029EFD0402804D974
:10907000ECE7242F18D1207A48B161884FF6FB70B5
:10908000814202D8A18881420ED90420FEBD0BE0A6
:1090900004500200A8030020180000200000002057
:1090A0006E5246357800000065B9207802AA012189
:1090B000FFF770FF0028E9D12078FFF78DFF05004A
:1090C00000D1FFDF052E18D2DFE806F0030B0E08F3
:1090D0001100A0786870A088E8800FE06088A88000
:1090E0000CE0A078A87009E0A078E87006E054F8D9
:1090F000020FA8606068E86000E0FFDF0020C5E7BD
:109100001A2835D00DDC132832D2DFE800F01B31ED
:10911000203131272723252D313129313131312F8C
:109120000F00302802D003DC1E2821D10720704711
:109130003A3809281CD2DFE800F0151B0F1B1B1B57
:109140001B1B07000020704743F20400704743F2E6
:1091500002007047042070470D2070470F207047B1
:109160000820704711207047132070470620704771
:109170000320704710B5007800F0010008F02CFBC8
:10918000BDE81040BCE710B5007800F0010008F021
:109190002CFBBDE81040B3E70EB5017801F00101EA
:1091A0008DF80010417801F001018DF8011001786F
:1091B000C1F340018DF802104178C1F340018DF8F0
:1091C0000310017889088DF80410417889088DF81A
:1091D000051081788DF80610C1788DF80710007998
:1091E0008DF80800684607F037FAFFF789FF0EBDD3
:1091F0002DE9F84FDFF8F883FE4C00264FF4907706
:109200001FE0012000F054FD0120FFF750FE05464D
:109210003946D8F8080009F084F8686000B9FFDF23
:10922000686807F0AAF8B0B12846FAF7ECFB2846C0
:1092300000F044FD28B93A466968D8F8080009F0FA
:109240009BF894F9E9010428DBDA022009F0D6F949
:1092500007460025A5E03A466968D8F8080009F0F5
:109260008BF8F2E7B8F802104046491C89B2A8F81A
:109270000210B94201D3002141800221B8F8020056
:1092800009F014FA002864D0B8F80200694608F022
:1092900015FAFFF735FF00B1FFDF9DF8000078B148
:1092A000B8F8020009F046FB5FEA000900D1FFDFD1
:1092B000484608F0B4FD18B1B8F8020002F054F9BD
:1092C000B8F8020009F024FB5FEA000900D1FFDFD3
:1092D000484608F09CFDE0BB0321B8F8020009F005
:1092E000E5F95FEA000B47D1FFDF45E0DBF810004E
:1092F00010B10078FF2849D0022000F0D9FC0220EC
:10930000FFF7D5FD8246484608F08DFECAF80400F6
:1093100000B9FFDFDAF8040008F055FF00210090E3
:109320000170B8F802105046AAF8021001F01EFEB3
:10933000484608F04AFF00B9FFDF504600F0BEFC87
:1093400018B99AF80100000704D50098CBF810006E
:1093500012E024E0DBF8100038B10178491C11F06C
:10936000FF01017008D1FFDF06E0002211464846E8
:1093700000F0CBFB00B9FFDF94F9EA01022805DB1E
:10938000B8F8020001F0B7FD0028AFD194F9E90167
:10939000042804DB484608F07CFF00B101266D1C60
:1093A000EDB2BD4204D294F9EA010228BFF65AAFE9
:1093B000002E7FF422AFBDE8F84F032000F078BC08
:1093C00010B58B4CE06008682061AFF2DB10F9F754
:1093D00084FD607010BD87480021403801708448CA
:1093E000017085494160704770B505464FF0805067
:1093F0000C46D0F8A410491C05D1D0F8A810C943D8
:109400000904090C0BD050F8A01F01F001012970CC
:10941000416821608068A080287830B970BD06213D
:1094200020460CF07EFB01202870607940F0C000DF
:10943000607170BD70B54FF080540D46D4F8801047
:10944000491C0BD1D4F88410491C07D1D4F88810DA
:10945000491C03D1D4F88C10491C0CD0D4F88010CE
:109460000160D4F884104160D4F888108160D4F889
:109470008C10C16002E010210CF053FBD4F8900076
:10948000401C0BD1D4F89400401C07D1D4F89800AC
:10949000401C03D1D4F89C00401C09D054F8900F14
:1094A000286060686860A068A860E068E86070BDD7
:1094B0002846BDE8704010210CF033BB4D480079C0
:1094C000F5E470B54B4CE07830B3207804EB4010F5
:1094D000407A00F00700204490F9E801002800DC01
:1094E000FFDF2078002504EB4010407A00F00700F1
:1094F000011991F8E801401E81F8E8012078401C2C
:10950000C0B220700F2800D12570A078401CA07038
:109510000CF0FEF9E57070BDFFDF70BD3EB505468D
:10952000032109F0C3F80446284609F0F1F905467D
:1095300004B9FFDF206918B10078FF2800D1FFDFF0
:1095400001AA6946284600F0E0FA60B9FFDF0AE0A8
:10955000002202A9284600F0D8FA00B9FFDF9DF8E2
:10956000080000B1FFDF9DF80000411E8DF80010DB
:10957000EED220690199884201D1002020613EBDD0
:1095800070B50546A0F57F400C46FF3800D1FFDFDF
:10959000012C01D0FFDF70BDFFF790FF040000D168
:1095A000FFDF207820F00F00401D20F0F000503049
:1095B000207065800020207201202073BDE870407B
:1095C0007FE72DE9F04116460D460746FFF776FF87
:1095D000040000D1FFDF207820F00F00401D20F0B4
:1095E000F00050302070678001202072286805E06C
:1095F00018000020E8030020F81300202061A8884C
:10960000A0822673BDE8F0415BE77FB5FFF7E4FC7D
:10961000040000D1FFDF02A92046FFF70BFB05463F
:1096200003A92046FFF720FB8DF800508DF80100BC
:10963000BDF80800001DADF80200BDF80C00001DCB
:10964000ADF80400E088ADF80600684608F0ACF814
:10965000002800D0FFDF7FBD2DE9F041FB4C06461E
:10966000207808B1082059E43046F7F752FE08B1D7
:10967000102053E4F64D287808B9FFF766FCA87A65
:10968000697A0844C7B200F076FAB84207D2381AAD
:10969000C1B232460020FFF77DFC0028E3D16068AC
:1096A000C01C20F00300606000F05DFB61680122D7
:1096B0000844804601463046FFF7F2FA070012D010
:1096C0000020FFF789FC06000BD006F1130061684B
:1096D00020F00300884200D0FFDF6878401E6870E9
:1096E000666038461AE4002241463046FFF7D8FA51
:1096F00000B1FFDF306860604FF6FF7060800120CE
:10970000207000200AE42DE9F0410446CF481746B6
:109710000E46007808B10820A5E70846F7F7D3FD04
:1097200008B110209FE7CA4D287808B9FFF70DFC53
:10973000601E1E2807D8012C22D13078FE281FD8A1
:10974000287700208FE7A4F120001F2805D8E0B279
:109750003A463146BDE8F04150E4A4F140001F28EC
:1097600005D831462046BDE8F04100F0CFBAA4F15B
:10977000A0001F2804D80020A02C03D0A12C06D0C4
:10978000072070E7317801F0010169776BE73168F4
:109790000922F82901D38B0701D0104663E76B7CBF
:1097A00003F00303012B04D16B8BD7339CB28C42A3
:1097B000F3D8296257E72DE9F04781460E4608465F
:1097C000F7F7A7FD48B94846F7F7C1FD28B909F1F1
:1097D000030020F00301494502D01020BDE8F087C6
:1097E0009B484FF0000A4030817869B1417880464B
:1097F00000EB41140834378832460021204600F03F
:109800006BFA050004D027E0A6F800A00520E5E7E4
:10981000B9F1000F24D03088B84201D90C251FE0DF
:10982000607800F00705284600F042FA08EB0507CB
:10983000324697F8E8014946401C87F8E80120467F
:1098400007F5F47700F048FA05463878401E38707E
:10985000032000F02DFA2DB10C2D01D0A6F800A0A8
:109860002846BBE76078794E00F00701012923D034
:1098700002290CD0032934D0FFDF98F801104046AC
:10988000491CC9B288F801100F2935D036E061684B
:1098900021B1000702D46088FFF740FE98F8EA0182
:1098A0004746012802D17078F9F736FB97F9EA01AB
:1098B0000428E2DBFFDFE0E7616821B14FF490723A
:1098C000B06808F059FD98F8E9014746032802D12D
:1098D0007078F9F721FB97F9E9010428CDDBFFDF68
:1098E000CBE7C00602D56088FFF718FE98F9EB01B8
:1098F0000628C2DBFFDFC0E780F801A08178491E9F
:109900008170617801F0070101EB080090F8E8111F
:10991000491C80F8E811A3E770B50D460446F7F737
:10992000D2FC18B92846F7F7F4FC08B1102070BD36
:1099300029462046BDE870400AF015BC70B50546C2
:109940000AF034FCC4B22846F7F701FD08B1102034
:1099500070BD35B128782C7018B1A04201D0072015
:1099600070BD2046FDF796FE052805D10AF022FCC1
:10997000012801D0002070BD0F2070BD70B50446D5
:1099800015460E460846F7F79EFC18B92846F7F725
:10999000C0FC08B1102070BD022C03D0102C01D0E7
:1099A000092070BD2A46314620460AF00CFC0028EA
:1099B000F7D0052070BD70B514460D460646F7F782
:1099C00082FC38B92846F7F7A4FC18B92046F7F707
:1099D000BEFC08B1102070BD2246294630460AF070
:1099E00011FC0028F7D0072070BD3EB50446F7F7FC
:1099F00090FC08B110203EBD684606F096FDFFF7CA
:109A00007FFB0028F7D19DF806002070BDF8080004
:109A10006080BDF80A00A08000203EBD70B50546FC
:109A20000C460846F7F793FC20B93CB12068F7F7DD
:109A300070FC08B1102070BDA08828B121462846CE
:109A4000BDE87040FDF77EBE092070BD1800002003
:109A5000A803002070B504460D460846F7F733FC0E
:109A600030B9601E1E2814D82846F7F72CFC08B120
:109A70001020EAE7032C01D90720E6E704B9FFDF4D
:109A8000FC4800EB840050F8041C2846BDE87040F8
:109A90000847A4F120001F2805D829462046BDE824
:109AA0007040FAF7D2BBF02CE6D1A868F7F70BFCB0
:109AB0000028DDD1284607F0DFFEBDE87040FFF743
:109AC0001FBB70B504460D460846F7F722FC30B9B7
:109AD000601E1E280FD82846F7F7F5FB08B11020A6
:109AE000B3E7012C03D0022C01D0032C01D10620B6
:109AF000ABE70720A9E7A4F120001F28F9D82946E1
:109B00002046BDE87040FAF7F8BB08F04FB938B509
:109B10000446D948007B00F00105D9B904F042FBA6
:109B20000DB1226800E00022D4484178C06806F0F8
:109B3000EAFBD2481030C0788DF8000010B101283F
:109B400002D004E0012000E000208DF8000068460B
:109B500006F063FD002D02D020682830206038BD5B
:109B600030B5C54D04466878A04200D8FFDF68686C
:109B700000EB041030BD70B5BF4800252C46467878
:109B800007E02046FFF7ECFF4078641C2844C5B28C
:109B9000E4B2B442F5D1284657E72DE9F0410C462E
:109BA00007464FF0000800F00CF90646FF2801D9DF
:109BB0004FF013083868C01C20F003023A6054EAE2
:109BC000080421D1AC48F3B2072124300CF0AEF9DF
:109BD00009E0072C10D2DFE804F0060408080A04A4
:109BE0000600A74804E0A74802E0A74800E0A7480D
:109BF0000CF0BCF9054600E0FFDFA54200D0FFDF16
:109C0000641CE4B2072CE4D3386800EB061038601B
:109C1000404628E5021D5143452900D2452108440C
:109C2000C01CB0FBF2F0C0B270472DE9FC5F0646E5
:109C300091484FF000088B464746444690F8019003
:109C400022E02046FFF78CFF050000D1FFDF687897
:109C500069463844C7B22846FEF7ECFF824601A9A0
:109C60002846FFF701F80346BDF804005246001DE0
:109C700081B2BDF80000001D80B208F095FD6A7841
:109C8000641C00FB0288E4B24C45DAD13068C01C89
:109C900020F003003060BBF1000F00D000204246EE
:109CA000394608F08FFD316808443060BDE8FC9FFC
:109CB0007149403108710020C87070476E494031C9
:109CC000CA782AB10A7801EB42110831814201D0E9
:109CD00001207047002070472DE9F04106460078CA
:109CE000154600F00F0400201080601E0F46052866
:109CF00000D3FFDF5F482A46183800EB840039465E
:109D000050F8043C3046BDE8F041184770B50C46A9
:109D1000402802D0412806D120E0A07861780D18B3
:109D2000E178814201D907208FE62078012801D906
:109D300013208AE6FF2D08D80AF0CEFB06460BF06A
:109D40009FFD301A801EA84201DA12207DE64A48A3
:109D50002168816021790173002076E6BDE87040BA
:109D6000084600F059B82DE9F0470027DFF808A1B0
:109D70003E463D46B9463C469AF801800AE02046F8
:109D8000FFF7EEFE4178807B0E4410FB0155641C0A
:109D9000E4B27F1C4445F2D109EB8700C6EBC60153
:109DA00000EB81009AF8092000EB850101EBC2016C
:109DB0009AF80A209AF80B0001EBC20101EB80002F
:109DC0000CE52DE9F047DFF8B0900026344699F80D
:109DD000090099F80A2099F801700244D5B299F85F
:109DE0000B20104400F0FF0808E02046FFF7B8FE03
:109DF000817B407811FB0066641CE4B2BC42F4D164
:109E000099F8091099F80A0029442944414400B1FD
:109E1000012008443044E1E438B50446407800F0BD
:109E20000300012803D002280BD0072038BD60684A
:109E300058B1F7F795FAD0B96068F7F788FA20B902
:109E400015E06068F7F73FFA88B969462046FCF7E5
:109E50009DF80028EAD1607800F00300022817D1AD
:109E60009DF80000A0B16068F7F771FA80B110208A
:109E700038BD000024500200A80300201800002074
:109E80004B410000E7AC0000E92F0000EB3E010071
:109E90006189F8290DD8208988420AD8607800F0B5
:109EA00003020A48012A06D1D731026A89B28A42DE
:109EB00001D20920DCE794E80E0000F1100585E8E6
:109EC0000E000AB9002101830020D1E7A803002079
:109ED0002DE9F041074614468846084601F022FD68
:109EE000064608EB88001C22796802EBC0000D18BA
:109EF000688C58B14146384601F01CFD014678682F
:109F00000078C200082305F120000CE0E88CA8B11D
:109F10004146384601F015FD01467868082340782F
:109F2000C20005F1240008F07EFA38B10621217242
:109F30006681D0E90010C4E9031009E028780928F7
:109F40000BD00520207266816868E06000202870D0
:109F50002046BDE8F04101F0DBBC0720207266819D
:109F6000F4E72DE9F04116460D460746406801EB3F
:109F700085011C2202EBC1014418204601F003FDBB
:109F800040B10021708865F30F2160F31F41062066
:109F90000CF0A6F809202070324629463846BDE864
:109FA000F04195E72DE9F0410E46074600241C21BB
:109FB000F07816E004EB8403726801EBC303D25C13
:109FC0006AB1FFF77BFA050000D1FFDF6F802A46F8
:109FD00021463046FFF7C5FF0120BDE8F081641C33
:109FE000E4B2A042E6D80020F7E770B506460024A8
:109FF0001C21C0780AE000BF04EB8403726801EB07
:10A00000C303D5182A782AB1641CE4B2A042F3D85D
:10A01000402070BD282128461AF0F3FD7068808921
:10A020002881204670BD70B5034600201C25DC78D1
:10A030000DE000BF00EB80065A6805EBC60632440F
:10A04000167816B1128A8A4204D0401CC0B28442EB
:10A05000F0D8402070BDF0B5044600201C26E578FD
:10A060000EE000BF00EB8007636806EBC7073B44C8
:10A070001F788F4202D15B78934204D0401CC0B25B
:10A080008542EFD84020F0BD0078032801D00020A1
:10A090007047012070470078022801D000207047E7
:10A0A000012070470078072801D000207047012068
:10A0B00070472DE9F041064688461078F17815463C
:10A0C000884200D3FFDF2C781C27641CF078E4B2B0
:10A0D000A04201D8201AC4B204EB8401706807EBD7
:10A0E000C1010844017821B14146884708B12C706C
:10A0F00073E72878A042E8D1402028706DE770B55A
:10A1000014460B880122A240134207D113430B804F
:10A1100001230A22011D08F050F9047070BD2DE9D9
:10A12000FF4F81B00878DDE90E7B9A4691460E46D6
:10A1300040072CD4019808F0FDFB040000D1FFDF9C
:10A1400007F1040820461FFA88F107F03CFD0500DE
:10A1500000D1FFDF204629466A4607F086FF0098B7
:10A16000A0F80370A0F805A0284608F02CF80178A4
:10A1700069F306016BF3C711017020461FFA88F1DD
:10A1800007F064FD00B9FFDF019806F02EF806EB3A
:10A190000900017F491C017705B0BDE8F08F2DE96A
:10A1A000F84F0E469A4691460746032108F07EFA7C
:10A1B0000446008DDFF8B885002518B198F8000036
:10A1C000B0421ED1384608F0B5FB070000D1FFDFD2
:10A1D00009F10401384689B207F0F5FC050010D0FA
:10A1E000384629466A4607F040FF009800210A4693
:10A1F0000180817006F0B2F80098C01DCAF8000016
:10A2000021E098F80000B04216D104F1260734F896
:10A21000341F012000FA06F911EA090F00D0FFDF10
:10A220002088012340EA090020800A22391D38468F
:10A2300008F0DEF8067006E0324604F1340104F15D
:10A240002600FFF75CFF0A2188F800102846BDE8C9
:10A25000F88FFEB515460C46064602AB0C220621C9
:10A26000FFF79DFF002827D00299607812220A701C
:10A27000801C487008224A80A07002982988052313
:10A2800081806988C180A9880181E9884181002590
:10A290000C20CDE90005062221463046FFF73FFF9E
:10A2A0002946002266F31F41F02310460BF06EFE94
:10A2B0006078801C60700120FEBDFEB514460D461E
:10A2C0000622064602AB1146FFF769FF002812D0AE
:10A2D000029B132000211870A87858700220588023
:10A2E0009C800620CDE90001024605232946304620
:10A2F000FFF715FF0120FEBD2DE9FE430C46804609
:10A3000044E002AB0E2207214046FFF748FF002839
:10A3100041D060681C2267788678BF1C06EB8601F6
:10A3200002EBC101451802981421017047700A21FF
:10A330004180698A0181E98A4181A9888180A9894E
:10A340008181304601F0EEFA029905230722C88088
:10A350006F700420287000250E20CDE900052146ED
:10A360004046FFF7DCFE294666F30F2168F31F41E4
:10A37000F023002206200BF009FE6078FD49801CC6
:10A38000607062682046921CFFF793FE60688078D8
:10A390004028B6D10120BDE8FE83FEB50D46064635
:10A3A00038E002AB0E2207213046FFF7F8FE002806
:10A3B00035D068681C23C17801EB810203EBC2022F
:10A3C0008418029815220270627842700A22428034
:10A3D000A2894281A2888281084601F0A3FA01463F
:10A3E00002988180618AC180E18A0181A088B8B128
:10A3F0000020207000210E20CDE900010523072256
:10A4000029463046FFF78BFE6A68DB492846D21C96
:10A41000FFF74FFE6868C0784028C2D10120FEBD1A
:10A420000620E6E72DE9FE430C46814644E020463F
:10A4300001F093FAD0B302AB082207214846FFF798
:10A44000AEFE0028A7D060681C2265780679AD1C96
:10A4500006EB860102EBC10147180298B7F810809D
:10A4600006210170457004214180304601F05AFAFE
:10A470000146029805230722C180A0F804807D7060
:10A48000082038700025CDE9000521464846FFF731
:10A4900046FE294666F30F2169F31F41F02300228F
:10A4A00006200BF073FD6078801C60706268B34911
:10A4B0002046121DFFF7FDFD606801794029B6D1E5
:10A4C000012068E72DE9F34F83B00E4680E0304667
:10A4D00001F043FA002875D071681C2091F80680BD
:10A4E00008EB880200EBC2000C184146304601F030
:10A4F00028FA0146A078C30070684078C20004F1D1
:10A50000240007F0ACFF07468088E18B401A80B238
:10A51000002581B3AA46218B814200D80846814696
:10A52000024602AB07210398FFF739FE010028D04D
:10A53000BAF1000F03D0029AB888022510808B462A
:10A54000E28B3968A9EB05001FFA80FA0A440398E8
:10A55000009208F0EFF9ED1D009A59465346009518
:10A5600007F0FDFDE08B504480B2E083B98888425B
:10A5700009D1012508E0FFE7801C4FF0010A80B2F5
:10A58000C9E7002008E60025CDE90095238A0722C7
:10A5900031460398FFF7C3FDE089401EE0818DB18D
:10A5A000A078401CA0707068F178427811FB02F12D
:10A5B000CAB2816901230E3007F0FFFE80F80080E7
:10A5C0000020E08372686E493046921DFFF771FDEE
:10A5D0007068817940297FF47AAF0120DCE570B59D
:10A5E000064648680D4614468179402910D104EB8F
:10A5F00084011C2202EBC101084401F0E5F90028A6
:10A6000006D06868294684713046BDE8704059E735
:10A6100070BDFEB50C460746002645E0204601F019
:10A620009CF9D8B360681C22417901EB810102EBEF
:10A63000C1014518688900B9FFDF02AB0822072174
:10A640003846FFF7ACFD002833D002996078162217
:10A650000A70801C4870042048806068407901F0CE
:10A6600061F9014602980523072281806989C1802A
:10A670000820CDE9000621463846FFF750FD6078F6
:10A68000801C6070A88969890844B0F5803F00D3B8
:10A69000FFDFA88969890844A8816E816268394909
:10A6A0002046521DFFF705FD606841794029B5D16C
:10A6B0000120FEBD30B5438C458BC3F3C704002396
:10A6C00045B1838B641EED1AC38A6D1E1D4495FB34
:10A6D000F3F3E4B22CB1008918B1A04200D82046AF
:10A6E00003444FF6FF70834200D3034613800C707F
:10A6F00030BD2DE9FC41074616460D46486802EB81
:10A7000086011C2202EBC10144186A4601A92046B9
:10A71000FFF7D0FFA089618901448AB2BDF800101B
:10A72000914212D0081A00D50020608168684079F3
:10A7300040280AD1204601F03DF9002805D068687C
:10A74000294646713846FFF764FFBDE8FC812DE9D4
:10A75000FE4F8946804615465088032107F0A6FF24
:10A760008346B8F8020040280ED240200DE00000D9
:10A770002C00002089A0000097A00000A5A00000E8
:10A78000C9B90000B5B90000403880B28246014620
:10A79000584601F0E2F800287ED00AEB8A001C221D
:10A7A000DBF8041002EBC0000C18204601F0EBF8B7
:10A7B000002877D1B8F80000E18A88423CD8A18906
:10A7C000D1B348456ED100265146584601F0B2F843
:10A7D000218C0F18608B48B9B9F1020F62D3B8F819
:10A7E00004006083618A884226D80226A9EB06000D
:10A7F0001FFA80F9B888A28B801A002814DD494618
:10A80000814500DA084683B2688869680291396830
:10A810000A44CDE9003208F07BF8DDE90121F61D9C
:10A82000009B009607F067FCA18B01EB090080B24A
:10A83000A083618B884207D9688803B05246594685
:10A84000BDE8F04F01F0DDB81FD14FF009002872CC
:10A85000B8F802006881D7E90001C5E90401608BFE
:10A86000A881284601F054F85146584601F062F894
:10A870000146DBF8040008230078C20004F1200040
:10A8800007F0D1FD0020A0836083A0890AF0FF02B9
:10A89000401EA081688800E004E003B05946BDE88E
:10A8A000F04F26E7BDE8FE8F2DE9F041064615463C
:10A8B0000F461C461846F6F706FD18B92068F6F74D
:10A8C00028FD08B1102013E47168688C0978B0EB9A
:10A8D000C10F01D313200BE43946304601F02AF8AA
:10A8E0000146706808230078C20005F1200007F0D7
:10A8F00064FDD4E90012C0E900120020E3E710B5BE
:10A900000446032107F0D2FE0146007800F0030060
:10A91000022805D02046BDE8104001F1140298E459
:10A920008A8A2046BDE81040C7E470B5044603217A
:10A9300007F0BCFE054601462046FFF773FD0028E0
:10A9400016D029462046FFF764FE002810D029467D
:10A950002046FFF722FD00280AD029462046FFF7AF
:10A96000CBFC002804D029462046BDE87040A9E56C
:10A9700070BD2DE9F0410C4680461EE0E17842783A
:10A9800011FB02F1CAB2816901230E3007F04BFDC1
:10A99000077860681C22C179491EC17107EB8701E5
:10A9A000606802EBC10146183946204600F0D5FF29
:10A9B00018B1304600F0E0FF20B16068C17900298D
:10A9C000DCD180E7FEF77AFD050000D1FFDF0A2029
:10A9D0002872384600F0A6FF68813946204600F00C
:10A9E000B0FF0146606808234078C20006F12400E9
:10A9F00007F019FDD0E90010C5E90310A5F80280A1
:10AA0000284600F085FFB07800B9FFDFB078401E1F
:10AA1000B07058E770B50C460546032107F046FEB6
:10AA200001464068C2792244C2712846BDE87040A0
:10AA30009FE72DE9FE4F8246507814460F464FF0AF
:10AA4000000800284FD0012807D0022822D0FFDFBD
:10AA50002068B8606068F86024E702AB0E22082125
:10AA60005046FFF79CFB0028F2D0029815210523E1
:10AA70000170217841700A214180C0F80480C0F83B
:10AA80000880A0F80C80628882810E20CDE9000841
:10AA9000082221E0A678304600F044FF054606EB88
:10AAA00086012C22786802EBC1010822465A02ABCB
:10AAB00011465046FFF773FB0028C9D002980721C2
:10AAC0000170217841700421418008218580C68071
:10AAD000CDE9001805230A4639465046FFF71FFB0B
:10AAE00087F80880DEE6A678022516B1022E13D07C
:10AAF000FFDF2A1D914602AB08215046FFF74FFBAE
:10AB00000028A5D002980121022E01702178417001
:10AB10004580868002D005E00625EAE7A188C1804D
:10AB2000E1880181CDE90098052308223946504685
:10AB3000D4E710B50446032107F0B8FD014600F143
:10AB400008022046BDE8104073E72DE9F05F0C468F
:10AB500001281DD0957992F80480567905EB85017E
:10AB60001F2202EBC10121F0030B08EB060111FBD0
:10AB700005F14FF6FF7202EAC10909F1030115FB65
:10AB80000611F94F21F0031A40B101283DD124E00C
:10AB90006168E57891F800804E78DFE7594678687B
:10ABA00007F0BFFB606000B9FFDF594660681AF02C
:10ABB0004AF8E5705146786807F0B3FB6168486170
:10ABC00000B9FFDF6068426902EB090181616068DA
:10ABD00080F800806068467017E0606852464169FE
:10ABE000786807F0C9FB5A466168786807F0C4FBCB
:10ABF000032007F003FD0446032007F007FD201A99
:10AC0000012802D1786807F081FB0BEB0A00BDE850
:10AC1000F09F02460021022097E773B5D24D0A202B
:10AC20002870009848B100244FEA0D0007F05BFB44
:10AC3000002C01D1009969607CBD01240020F5E75A
:10AC400070B50C4615463821204619F0FCFF012648
:10AC500066700A2104F11C0019F0F5FF05B9FFDF49
:10AC6000297A207861F301002070A879002817D094
:10AC70002A4621460020FFF768FF6168402088705F
:10AC80006168C8706168087161684871616888713D
:10AC90006168288808816168688848816068868161
:10ACA00070BDC878002802D0002201204DE770470F
:10ACB00070B50546002165F31F4100200BF010FA26
:10ACC0000321284607F0F2FC040000D1FFDF2146F3
:10ACD0002846FFF767F9002804D0207840F01000DC
:10ACE0002070012070BD2DE9FF4180460E460F0CFB
:10ACF000FEF7E4FB050007D06F800321384607F01C
:10AD0000D5FC040008D106E004B03846BDE8F041A7
:10AD10001321F9F74FBEFFDF5FEA080005D0B8F155
:10AD2000060F18D0FFDFBDE8FF8120782A4620F00B
:10AD3000080020700020ADF8020002208DF800000D
:10AD40004FF6FF70ADF80400ADF8060069463846CE
:10AD5000F9F727FAE7E7C6F3072101EB81021C2385
:10AD6000606803EBC202805C042803D008280AD084
:10AD7000FFDFD8E7012000904FF440432A462046E9
:10AD800000F008FECFE704B02A462046BDE8F041B7
:10AD9000FFF7E7B82DE9F05F0027B0F80A9090467A
:10ADA0000C4605463E46B9F1400F01D2402001E075
:10ADB000A9F140001FFA80FA287AC01E08286BD239
:10ADC000DFE800F00D04192058363C4772271026A2
:10ADD000002C6CD0D5E90301C4E902015CE07027C6
:10ADE0001226002C63D00A2205F10C0104F10800A0
:10ADF00019F0CDFE50E071270C26002C57D0E868E2
:10AE0000A06049E0742710269CB3D5E90301C4E98A
:10AE100002016888032107F049FC8346FEF74EFBD8
:10AE200002466888508051465846FFF751F833E093
:10AE300075270A26ECB1A88920812DE076271426F3
:10AE4000BCB105F10C0004F1080307C883E8070052
:10AE500022E07727102664B1D5E90301C4E9020195
:10AE60006888032107F022FC01466888FFF781FD0E
:10AE700012E01CE073270826CCB16888032107F094
:10AE800015FC01460078C00606D56888FFF78AF8E9
:10AE900010B96888F8F79BFDA8F800602CB12780EE
:10AEA000A4F8069066806888A0800020AFE6A8F825
:10AEB0000060FAE72DE9FC410C461E461746804625
:10AEC000032107F0F3FB05460A2C0AD2DFE804F061
:10AED00005050505050509090907042303E00623FF
:10AEE00001E0FFDF0023CDE90076224629464046F7
:10AEF000FFF715F929E438B50546A0F57F40FF387E
:10AF000030D0284607F004FD040000D1FFDF2046C2
:10AF100007F089F8002815D001466A46204607F058
:10AF2000A4F800980321B0F80540284607F0BEFBBE
:10AF30000546052C03D0402C05D2402404E0007ABD
:10AF400080B1002038BD403CA4B2214600F005FD90
:10AF500040B1686804EB84013E2202EBC101405A13
:10AF60000028EFD0012038BD2C0000202DE9F04F43
:10AF7000054689B0408807F0CBFC040000D1FFDF14
:10AF800006AA2046696800F0C1FC069C001F34F840
:10AF9000031F218063886380228881B28A4205D1A1
:10AFA000042B0AD0052B1DD0062B15D02A4620468F
:10AFB000FFF7CDFB09B0BDE8F08F1646241D2A46E9
:10AFC00021463046F7F75BFA0828F3D12A46214696
:10AFD0003046FCF7FEFBEDE76888211D6B68FAF749
:10AFE00043FCE7E717466888032107F05FFB4FF053
:10AFF00000088DF804800646ADF80680042FD9D3EA
:10B000006279002AD6D020794FF6FF794FF01C0ADA
:10B0100013282CD008DC012878D0062847D0072830
:10B0200075D0122874D106E0142872D0152871D07A
:10B0300016286DD1ACE10C2F6AD1307800F00301F5
:10B04000022965D140F0080030706079B0700120AD
:10B050008DF804002089ADF808006089ADF80A0079
:10B06000A089ADF80C00E089ADF80E0019E0B078C9
:10B0700090429FD1307801079CD5062F9AD120F0BD
:10B08000080030706888414660F31F4100200BF0D3
:10B0900027F802208DF80400ADF808902089ADF85B
:10B0A0000A0068882A4601A9F9F77BF882E7082F89
:10B0B00080D12789B4F80A90402F01D2402001E0C6
:10B0C000A7F1400080B280460146304600F045FCC2
:10B0D00008B3716808EB88002C2202EBC000095A03
:10B0E0004945E3D1FE4807AAD0E90210CDE907108F
:10B0F00060798DF81C0008F0FF048DF81E40688808
:10B100003146FFF796FC2A46214639E0B6E014E0C6
:10B110003CE039E0E6E0F248D0E90010CDE9071064
:10B120006079ADF820708DF81C00ADF82290688829
:10B1300007AA3146FFF77DFC3CE7082FB6D16089AE
:10B14000B4F80880402801D2402000E0403887B29F
:10B150003946304600F001FC0028A7D007EB8702F3
:10B1600071680AEBC2000844028A42459ED1017808
:10B1700008299BD140786179884297D1F9B22A4653
:10B180003046FEF7EEFE15E70E2F07D0CDF81C80F7
:10B19000CDF8208060798DF81C00C8E76189E789C7
:10B1A0008B46B4F80C903046FEF73DFFABF1400102
:10B1B000402901D309204AE0B9F1170F01D3172F15
:10B1C00001D20B2043E040280ED000EB80027168D2
:10B1D0000AEBC20008440178012903D14078617963
:10B1E0008842A9D00A2032E03046FEF7FEFE014632
:10B1F00040282BD001EB810372680AEBC30002EBFD
:10B200000008012288F80020627988F8012070681F
:10B2100022894089B84200D93846248A03232B72F8
:10B22000AA82EF812882A5F80C906C82084600F073
:10B2300079FB6881A8F81490A8F81870A8F80E4057
:10B24000A8F810B0284600F063FBB3E604200521FF
:10B250002972A5F80A80E88101212973A049D1E962
:10B260000421CDE9072161798DF81C10ADF81E008D
:10B27000688807AA3146FFF7DCFBE3E7062FE4D333
:10B28000B078904215D13078010712D520F008002F
:10B2900030706888414660F31F4100200AF020FFAB
:10B2A00002208DF804002089ADF80800ADF80A905E
:10B2B000F7E604213046FEF7CEFE04464028C4D00F
:10B2C0000220830300902A462146304600F062FBAC
:10B2D0004146688864F30F2160F31F4106200AF09D
:10B2E000FFFE67E60E2FB0D104213046FEF7B3FE15
:10B2F00081464028A9D04146688869F30F2160F350
:10B300001F4106200AF0ECFE208A0790E089009099
:10B310007068A7894089B84200D938468346B4F896
:10B320000A8020890590484600F0FCFA6881079859
:10B3300040B10220079B00902A464946304600F063
:10B3400029FB37E6B8F1170F1ED3172F1CD30420A3
:10B35000287200986882EF81A5F810B0A5F80C80DB
:10B3600009EB89020AEBC2007168009A0C18059873
:10B37000A4F81480A4F818B0E2812082284600F0D6
:10B38000C7FA0620207015E601200B230090D3E7B2
:10B39000082FA6D121893046FEF745FE07464028F2
:10B3A0009FD007EB870271680AEBC2000844804611
:10B3B00000F0E9FA002894D16489B8F80E0020441E
:10B3C000B0F5803F05D368883A46314600F019FB56
:10B3D000F0E5002C85D0A8F80E0068883A46314682
:10B3E000FFF7FDF808202872384600F09BFA6881C4
:10B3F000AC8127E770B50D460646032107F056F9E4
:10B40000040004D02078000704D5112070BD43F259
:10B41000020070BD2A4621463046FEF71AFF18B9D1
:10B42000286860616868A061207840F0080020709A
:10B43000002070BD70B50D460646032107F036F9B1
:10B44000040004D02078000704D4082070BD43F223
:10B45000020070BD2A4621463046FEF72EFF00B995
:10B46000A582207820F008002070002070BD2DE912
:10B47000F04F0E4691B08046032107F017F90446BD
:10B48000404607F057FA07460020079008900990B9
:10B49000ADF830000A9002900390049004B9FFDFE9
:10B4A0000DF108091FBBFFDF21E038460BA9002280
:10B4B00006F07CFC9DF82C0000F07F050A2D00D3DF
:10B4C000FFDF6019017F491E01779DF82C000006FF
:10B4D0000DD52A460CA907A8FEF711FE02E00000D0
:10B4E0003050020019F80510491C09F80510761EA5
:10B4F000F6B2DAD204F13400FA4D04F1260BDFF88B
:10B50000E8A304F12A07069010E05846069900F0D7
:10B510006AFA064628700A2800D3FFDF5AF8261078
:10B5200040468847E08CC05DB04202D0208D0028A4
:10B53000EBD10A202870EC4D4E4628350EE00CA9C0
:10B5400007A800F050FA0446375D55F8240000B90A
:10B55000FFDF55F82420394640469047BDF81E00CD
:10B560000028ECD111B026E510B5032107F09EF8B4
:10B57000040000D1FFDF0A2104F11C0019F063FB75
:10B58000207840F00400207010BD10B50C46032157
:10B5900007F08CF82044007F002800D0012010BD67
:10B5A0002DE9F84F894615468246032107F07EF8BB
:10B5B000070004D02846F5F786FE40B903E043F2C1
:10B5C0000200BDE8F88F4846F5F7A3FE08B1102049
:10B5D000F7E7786828B169880089814201D9092094
:10B5E000EFE7B9F800001C2418B1402809D2402028
:10B5F00008E03846FEF7F9FC8046402819D11320B0
:10B60000DFE7403880B280460146384600F0A5F9B1
:10B6100048B108EB8800796804EBC000085C012899
:10B6200003D00820CDE70520CBE7FDF747FF060054
:10B630000BD008EB8800796804EBC0000C18B9F84F
:10B64000000020B1E88910B113E01120B9E7288883
:10B65000172802D36888172801D20720B1E7686845
:10B6600038B12B1D224641463846FFF71DF9002808
:10B67000A7D104F10C0269462046FFF71BF8288881
:10B6800060826888E082B9F8000030B10220207042
:10B69000E889A080E889A0B12BE003202070A88968
:10B6A000A08078688178402905D180F802803946E9
:10B6B0005046FEF721FE404600F034F9A9F800009C
:10B6C00021E07868218B4089884200D90846208390
:10B6D000A6F802A004203072B9F800007081E08959
:10B6E0007082F181208B3082A08AB081304600F0D8
:10B6F0000FF97868C178402905D180F80380394670
:10B700005046FEF74AFE00205BE770B50D46064640
:10B71000032106F0CBFF040003D0402D04D24025C6
:10B7200003E043F2020070BD403DADB2294600F097
:10B7300014F958B105EB85011C22606802EBC101C8
:10B74000084400F020F918B1082070BD052070BD34
:10B750002A462146304600F054F9002070BD2DE9FC
:10B76000F0410D4616468046032106F09FFF044631
:10B77000402D01D2402500E0403DADB28CB12946BC
:10B7800000F0EBF880B105EB85011C22606802EB4C
:10B79000C1014718384600F0F6F838B10820BDE876
:10B7A000F08143F20200FAE70520F8E733463A4613
:10B7B00029462046FFF778F80028F0D1EAB2214662
:10B7C0004046FEF796FF0020E9E72DE9F0410D46DF
:10B7D00016468046032106F069FF0446402D01D23B
:10B7E000402500E0403DAFB224B13046F5F76BFD97
:10B7F00038B902E043F20200D1E73068F5F763FDA3
:10B8000008B11020CBE73946204600F0A6F860B119
:10B8100007EB87011C22606802EBC101451828462E
:10B8200000F0B1F818B10820B9E70520B7E7B088F3
:10B83000A98A884201D90C20B1E76168E88C49786F
:10B84000B0EBC10F01D31320A9E73946204600F021
:10B8500078F80146606808234078C20005F12400AA
:10B8600006F0ABFDD6E90012C0E90012FAB221469B
:10B870004046FEF7B4FE002091E72DE9F0470D4663
:10B880001F4690468146032106F010FF0446402DD6
:10B8900001D2402001E0A5F1400086B23CB14DB19B
:10B8A0003846F5F754FD50B11020BDE8F08743F25B
:10B8B0000200FAE76068C8B1A0F80C8024E03146C5
:10B8C000204600F04AF888B106EB86011C22606829
:10B8D00002EBC1014518284600F055F840B1082098
:10B8E000E3E700002C000020485002000520DCE7C0
:10B8F000A5F80880F2B221464846FEF7FAFE1FB1CD
:10B90000A8896989084438800020CEE706F0ADBBDD
:10B91000017821F00F01491C21F0F0011031017074
:10B92000FDF7CFBD10B50446402800D9FFDF4034F5
:10B93000A0B210BD406842690078484302EBC000E5
:10B940007047C2784068037812FB03F2437840697D
:10B9500001FB032100EBC1007047C2788A4209D97C
:10B96000406801EB81011C2202EBC101405C08B17F
:10B9700001207047002070470078062801D9012077
:10B980007047002070470078062801D001207047DA
:10B9900000207047F0B401EB81061C27446807EBD8
:10B9A000C6063444049D05262670E3802571F0BC4C
:10B9B000FEF78EBA10B5418911B1FFF7DDFF08B16E
:10B9C000002010BD012010BD10B5C18C8278B1EBF4
:10B9D000C20F04D9C18911B1FFF7CEFF08B1002011
:10B9E00010BD012010BD10B50C4601230A22011D17
:10B9F00006F019FD007821880122824091432180C0
:10BA000010BDF0B402EB82051C264C6806EBC505A0
:10BA1000072363554B681C79402C03D11A71F0BC85
:10BA2000FEF700BDF0BC704710B5EFF3108000F0DA
:10BA3000010472B6F7484178491C417040780128EA
:10BA400001D109F08DFF002C00D162B610BD70B598
:10BA5000F04CA07848B90125A570FFF7E5FF09F083
:10BA600090FF20B1002009F05AFF002070BD4FF078
:10BA70008040E570C0F80453F7E770B5EFF310802D
:10BA800000F0010572B6E34C607800B9FFDF607822
:10BA9000401E6070607808B909F066FF002D00D183
:10BAA00062B670BDDB4810B5817821B10021C1704C
:10BAB0008170FFF7E2FF002010BD10B5044609F0C9
:10BAC00060FFD4498978084000D001202060002020
:10BAD00010BD10B5FFF7A8FF09F053FF02220123A4
:10BAE000CC49540728B1CC48026023610320087276
:10BAF00002E00A72C4F804330020887110BD2DE9F9
:10BB0000F84FDFF810934278817889F804200026F6
:10BB100089F80510074689F806600078DFF8FCB25E
:10BB2000354620B1012811D0022811D0FFDF09F0DD
:10BB30003AFF4FF0804498B109F03CFFB0420FD17A
:10BB4000304609F03BFF0028FAD041E00126EEE73D
:10BB5000FFF76AFF58460168C907FCD00226E6E7EE
:10BB60000120E060C4F80451AD490E600107D1F82E
:10BB70004412AB4AC1F3423124321160A849343136
:10BB800008604FF0020AC4F804A3A060A548016849
:10BB9000C94341F3001101F10108016841F01001AE
:10BBA000016000E020BFD4F804010028FAD030463C
:10BBB00009F004FF0028FAD0B8F1000F04D1994829
:10BBC000016821F010010160C4F808A3C4F8045111
:10BBD00099F805004E4680B1387870B909F0D1FE69
:10BBE00080460AF065F86FF00042B8F1000F02D00D
:10BBF000C6E9032001E0C6E90302DBF80000C00744
:10BC000001D009F0BAFE387810B13572BDE8F88F6E
:10BC10004FF01808C4F808830127A7614FF4A070FB
:10BC2000ADF80000BDF80000411EADF80010F9D2DB
:10BC3000C4F80C51C4F810517648C01D09F0D0FE6C
:10BC40003570FFF746FF676175493079203108602C
:10BC5000C4F80483DAE770B5050000D1FFDF4FF0C8
:10BC600080424FF0FF30C2F808030021C2F80011F3
:10BC7000C2F80411C2F80C11C2F81011654C6170C1
:10BC800009F08BFE10B10120A0706070634800685D
:10BC9000C00701D009F071FE2846BDE870402EE7CC
:10BCA0005C48007A002800D0012070472DE9FC5F35
:10BCB0005D48D0F800905C4A5C4908321160840607
:10BCC000D4F8080100B10120D4F8001111B14FF0EF
:10BCD000010801E04FF00008D4F8041101B101217E
:10BCE0000191D4F80C1101B101210091D4F8101187
:10BCF00001B10121474D8A4695F800B0002620B1D8
:10BD0000C4F80861012009F00AFE4248C01D09F08C
:10BD10006FFE00B1FFDF0127B8F1000F10D0C4F8AB
:10BD20000873E87818B1EE70002009F0F8FD287A61
:10BD3000022805D1032028723748022101602761BB
:10BD4000019808B1C4F80461009850B1C4F80C61BE
:10BD5000287A032800D0FFDF2F4806602F72FFF7F4
:10BD60008CFEBAF1000F07D0C4F81061287A0128C0
:10BD700001D100F05DF86761BBF1000F07D02E70B4
:10BD8000287A012801D1FFF7A4FEFFF776FE2148AB
:10BD9000C01D09F043FE2449091DC1F80090BDE80B
:10BDA000FC9F1C4810B5C01D09F022FE194940B186
:10BDB000012008704FF0E021C1F80002BDE81040FA
:10BDC00032E6087A012801D1FFF783FE1148BDE869
:10BDD0001040C01D09F022BE70B50E4CA07808B905
:10BDE00009F0C2FD01208507A861207A00260328FA
:10BDF0000AD100BFD5F80C0120B9002009F0DEFD02
:10BE00000028F7D1C5F80C6126724FF0FF30C5F855
:10BE1000080370BD3C000020340C00400C040040BE
:10BE20001805004010ED00E010050240010000017F
:10BE300070B5134C6079F0B1012803D0A179401E90
:10BE4000814218DA09F09DFD054609F031FF61795C
:10BE5000012902D9A179491CA1710DB1216900E024
:10BE6000E168411A022902DA11F1020FD1DC0DB1A9
:10BE7000206100E0E060BDE870402AE6C9E700000C
:10BE80003C00002010B5202000F07FF8202000F0BA
:10BE90008DF84D49202081F80004F5F7AFFA4B49A1
:10BEA00008604B48D0F8041341F00101C0F80413B6
:10BEB000D0F8041341F08071C0F804134249012006
:10BEC0001C39C1F8000110BD10B5202000F05DF84C
:10BED0003E480021C8380160001D01603D4A481EEF
:10BEE00010603B4AC2F80803384B1960C2F80001E1
:10BEF000C2F8600138490860BDE81040202000F019
:10BF000055B834493548091F0860704731493348EE
:10BF1000086070472D48C8380160001D521E02603D
:10BF200070472C4901200860BFF34F8F70472DE9FF
:10BF3000F0412849D0F8188028480860244CD4F8EB
:10BF400000010025244E6F1E28B14046F5F7B4F9D4
:10BF500040B9002111E0D4F8600198B14046F5F7EE
:10BF6000ABF948B1C4F80051C4F860513760BDE87E
:10BF7000F041202000F01AB831684046BDE8F04199
:10BF800018F08CBEFFDFBDE8F08100280DDB00F06B
:10BF90001F02012191404009800000F1E020C0F81B
:10BFA0008011BFF34F8FBFF36F8F7047002809DBFD
:10BFB00000F01F02012191404009800000F1E020C3
:10BFC000C0F880127047000020E000E0C806024080
:10BFD0000000024018050240000402400100000178
:10BFE0000F4A12680D498A420CD118470C4A126850
:10BFF0000A4B9A4206D101B509F02CFEFFF781FFEA
:10C00000BDE801400749096809580847064807493B
:10C01000054A064B7047000000000000BEBAFECA89
:10C020005400002004000020781300207813002022
:10C03000F8B51D46DDE906470E000AD006F07AFC89
:10C040002346FF1DBCB231462A46009406F087F80D
:10C05000F8BDD0192246194618F054FD2046F8BD07
:10C0600070B50D460446102118F0CBFD2581172030
:10C070006081A07B40F00A00A07370BD4FF6FF7294
:10C080000A80014602200AF02BB8704700897047E9
:10C09000827BD30701D1920703D4808908800020D6
:10C0A000704705207047827B920700D581817047D9
:10C0B00001460020098841F6FE52114200D00120BD
:10C0C000704700B50346807BC00701D0052000BD46
:10C0D00059811846FFF7ECFFC00703D0987B40F06A
:10C0E00004009873987B40F001009873002000BD15
:10C0F000827B520700D509B14089704717207047ED
:10C10000827B61F3C302827370472DE9FC5F0E46A8
:10C11000044601789646012000FA01F14DF6FF52DF
:10C1200001EA020962684FF6FF7B1188594502D186
:10C130000920BDE8FC9FB9F1000F05D041F6FE557E
:10C14000294201D00120F4E741EA090111801D00D4
:10C1500014D000232B7094F800C0052103221F4641
:10C160004FF0020ABCF10E0F76D2DFE80CF0F909AD
:10C17000252F47646B77479193B4D1D80420D8E733
:10C18000616820898B7B9B0767D517284AD30B8969
:10C19000834247D38989172901D3814242D185F847
:10C1A00000A0A5F801003280616888816068817B09
:10C1B00021F002018173C6E0042028702089A5F8CF
:10C1C00001006089A5F803003180BCE0208A318835
:10C1D000C01D1FFA80F8414524D30620287020890D
:10C1E000A5F801006089A5F80300A089A5F805005D
:10C1F0000721208ACDE90001636941E00CF0FF00CE
:10C20000082810D0082028702089A5F8010060892E
:10C21000A5F8030031806A1D694604F10C0007F09F
:10C22000F1FF10B15EE01020EDE730889DF80010BE
:10C230000844308087E00A2028702089A5F8010092
:10C24000328044E00C2028702089A5F80100608924
:10C25000A5F8030031803AE082E064E02189338868
:10C2600000EB41021FFA82F843453BD3B8F1050FBA
:10C2700038D30E222A700BEA4101CDE90010E368A1
:10C2800060882A467146FFF7D3FEA6F800805AE080
:10C290004020287060893188C01C1FFA80F8414511
:10C2A00020D32878714620F03F0012302870208972
:10C2B000A5F801006089CDE9000260882A46E3689C
:10C2C000FFF7B6FEA6F80080287840063BD46168E8
:10C2D0002089888037E0A0893288401D1FFA80F8C5
:10C2E000424501D204273DE0162028702089A5F898
:10C2F00001006089A5F80300A089CDE900016088EC
:10C300002A4671462369FFF793FEA6F80080DEE710
:10C3100018202870207A6870A6F800A013E06168E1
:10C320000A88920401D405271CE0C9882289914219
:10C3300001D0062716E01E21297030806068018830
:10C3400021F400510180B9F1000F0BD061887823EE
:10C350000022022009F01AFE61682078887006E049
:10C36000338003276068018821EA0901018038468B
:10C37000DFE62DE9FF4F85B01746129C0D001E46E3
:10C380001CD03078C10703D000F03F00192801D934
:10C39000012100E000212046FFF7AAFEA8420DD3AC
:10C3A0002088A0F57F41FF3908D03078410601D4BC
:10C3B000000605D5082009B0BDE8F08F0720FAE790
:10C3C00000208DF800008DF8010030786B1E00F021
:10C3D0003F0C0121A81E4FF0050A4FF002094FF053
:10C3E000030B9AB2BCF1200F75D2DFE80CF08B1072
:10C3F000745E7468748C749C74B674BB74C974D5A0
:10C4000074E2747474F274F074EF74EE748B052D2E
:10C4100078D18DF80090A0788DF804007088ADF880
:10C42000060030798DF80100707800F03F000C288C
:10C4300029D00ADCA0F10200092863D2DFE800F06D
:10C44000126215621A621D622000122824D004DCD8
:10C450000E281BD01028DBD11BE016281FD018286F
:10C46000D6D11FE02078800701E02078400700281F
:10C4700048DAEFE020780007F9E72078C006F6E711
:10C4800020788006F3E720784006F0E72078000661
:10C49000EDE72088C005EAE720884005E7E7208827
:10C4A0000005E4E72088C004E1E72078800729D56B
:10C4B000032D27D18DF800B0B6F8010082E0217875
:10C4C00049071FD5062D1DD381B27078012803D0EE
:10C4D000022817D102E0CAE0022000E01020042266
:10C4E0008DF8002072788DF80420801CB1FBF0F2EA
:10C4F000ADF8062092B242438A4203D10397ADF8C9
:10C500000890A7E07AE02078000777D598B28208F3
:10C510008DF800A0ADF80420B0EB820F6ED1029729
:10C52000ADF8061096E02178C90667D5022D65D3CF
:10C5300081B206208DF80000707802285ED300BF1B
:10C54000B1FBF0F28DF80400ADF8062092B2424340
:10C550008A4253D1ADF808907BE0207880064DD513
:10C56000072003E0207840067FD508208DF80000E2
:10C57000A088ADF80400ADF80620ADF8081068E01A
:10C580002078000671D50920ADF804208DF8000050
:10C59000ADF8061002975DE02188C90565D5022D2A
:10C5A00063D381B20A208DF80000707804285CD330
:10C5B000C6E72088400558D5012D56D10B208DF8AF
:10C5C0000000A088ADF8040044E021E026E016E079
:10C5D000FFE72088000548D5052D46D30C208DF8AF
:10C5E0000000A088ADF80400B6F803006D1FADF898
:10C5F0000850ADF80600ADF80AA02AE035E0208822
:10C60000C00432D5012D30D10D208DF8000021E07D
:10C610002088800429D4B6F80100E080A07B0007C0
:10C6200023D5032D21D3307800F03F001B2818D0EC
:10C630000F208DF80000208840F40050A4F800007E
:10C64000B6F80100ADF80400ED1EADF80650ADF8E7
:10C6500008B0039769460598F5F75CFC050008D01B
:10C6600016E00E208DF80000EAE7072510E0082507
:10C670000EE0307800F03F001B2809D01D2807D0BD
:10C680000220059909F02CFD208800F4005020803C
:10C69000A07B400708D52046FFF70AFDC00703D15D
:10C6A000A07B20F00400A073284684E61FB5022872
:10C6B00006D101208DF8000088B26946F5F72AFC02
:10C6C0001FBD0000F8B51D46DDE906470E000AD083
:10C6D00006F030F92346FF1DBCB231462A460094CD
:10C6E00005F03DFDF8BDD0192246194618F00AFAAA
:10C6F0002046F8BD2DE9FF4F8DB09B46DDE91B5765
:10C70000DDF87CA00C46082B05D0E06901F002F9A9
:10C7100050B11020D2E02888092140F01000288074
:10C720008AF80010022617E0E16901208871E269A9
:10C730004FF420519180E1698872E06942F601016D
:10C740000181E069002181732888112140F02000D7
:10C7500028808AF80010042638780A900A20387059
:10C760004FF0020904F118004D460C9001F095FBC2
:10C77000B04681E0BBF1100F0ED1022D0CD0A9EB19
:10C780000800801C80B20221CDE9001005AB5246A2
:10C790001E990D98FFF796FFBDF816101A98814262
:10C7A00003D9F74800790F9004E003D10A9808B143
:10C7B00038702FE04FF00201CDE900190DF116039A
:10C7C00052461E990D98FFF77DFF1D980088401B6B
:10C7D000801B83B2C6F1FF00984200D203461E9927
:10C7E0000BA8D9B15FF00002DDF878C0CDE90320D5
:10C7F00009EB060189B2CDE901C10F980090BDF89F
:10C80000161000220D9801F0CBFB387070B1C0B249
:10C81000832807D0BDF8160020833AE00AEB09010F
:10C820008A19E1E7022011B0BDE8F08FBDF82C00B5
:10C83000811901F0FF08022D0DD09AF80120424520
:10C8400006D1BDF82010814207D0B8F1FF0F04D007
:10C850009AF801801FE08AF80180C94800680178D1
:10C86000052902D1BDF81610818009EB08001FFAD6
:10C8700080F905EB080085B2DDE90C1005AB0F9AD5
:10C8800001F00EFB28B91D980088411B4145BFF6F9
:10C8900071AF022D13D0BBF1100F0CD1A9EB080022
:10C8A000801C81B20220CDE9000105AB52461E99E1
:10C8B0000D98FFF707FF1D980580002038700020B5
:10C8C000B1E72DE9F8439C46089E13460027B26B5A
:10C8D0009AB3491F8CB2F18FA1F57F45FF3D05D07A
:10C8E0005518AD882944891D8DB200E0002529190D
:10C8F000B6F83C800831414520D82A44BCF80110E4
:10C9000022F8021BBCF8031022F8021B984622F8FA
:10C91000024B914605F0FCFF4FF00C0C41464A4695
:10C920002346CDF800C005F0E6FBF587B16B00208B
:10C930002944A41D2144088003E001E0092700E008
:10C9400083273846BDE8F88310B50B88848F9C4256
:10C950000CD9846BE018048844B1848824F4004422
:10C96000A41D23440B801060002010BD0A2010BDC0
:10C970002DE9F0478AB00025904689468246ADF8F9
:10C98000185007274BE0059806888088000446D495
:10C99000A8F8006007A8019500970295CDE903501B
:10C9A0004FF4007300223146504601F0F9FA0400BA
:10C9B0003CD1BDF81800ADF82000059804888188A6
:10C9C000B44216D10A0414D401950295039521F4BA
:10C9D00000410097049541F4804342882146504627
:10C9E00001F0B4F804000BD10598818841F40041AE
:10C9F000818005AA08A94846FFF7A6FF0400DCD0FD
:10CA00000097059802950195039504950188BDF856
:10CA10001C300022504601F099F80A2C06D105AAD4
:10CA200006A94846FFF790FF0400ACD0ADF81850B7
:10CA300004E00598818821F40041818005AA06A9B7
:10CA40004846FFF781FF0028F3D00A2C03D0204688
:10CA50000AB0BDE8F0870020FAE710B50C46896BF4
:10CA600086B051B10C218DF80010A18FADF80810DF
:10CA7000A16B01916946FAF744FB00204FF6FF7164
:10CA8000A063E187A08706B010BD2DE9F0410D46F7
:10CA90000746896B0020069E1446002911D0012B01
:10CAA0000FD1324629463846FFF762FF002808D1E9
:10CAB000002C06D0324629463846BDE8F04100F049
:10CAC00038BFBDE8F0812DE9FC411446DDE9087C62
:10CAD0000E46DDE90A15521DBCF800E092B29645FB
:10CAE00002D20720BDE8FC81ACF8002017222A7092
:10CAF000A5F80160A5F803300522CDE900423B46C8
:10CB00002A46FFF7DFFD0020ECE770B50C4615461E
:10CB10004821204618F097F804F1080044F81C0F4B
:10CB200000204FF6FF71E06161842084A584172006
:10CB3000E08494F82A0040F00A0084F82A0070BDCE
:10CB40004FF6FF720A800146032009F0C9BA30B5DA
:10CB500085B00C460546FFF780FFA18E284629B117
:10CB600001218DF800106946FAF7CBFA0020E06247
:10CB70002063606305B030BDB0F84000704700002E
:10CB80005800002090F84620920703D4408808807F
:10CB90000020F3E70620F1E790F846209207EDD554
:10CBA000A0F84410EAE70146002009880A0700D5EA
:10CBB000012011F0F00F01D040F00200CA0501D5AC
:10CBC00040F004008A0501D540F008004A0501D56F
:10CBD00040F010000905D1D540F02000CEE700B5A7
:10CBE000034690F84600C00701D0062000BDA3F818
:10CBF00042101846FFF7D7FF10F03E0F05D093F80C
:10CC0000460040F0040083F8460013F8460F40F059
:10CC100001001870002000BD90F84620520700D592
:10CC200011B1B0F84200A9E71720A7E710F8462F86
:10CC300061F3C3020270A1E72DE9FF4F9BB00E0024
:10CC4000DDE92B34DDE92978289D24D02878C10737
:10CC500003D000F03F00192801D9012100E0002194
:10CC60002046FFF7D9FFB04215D32878410600F0DF
:10CC70003F010CD41E290CD0218811F47F6F0AD1FA
:10CC80003A8842B1A1F57F42FF3A04D001E012296F
:10CC900001D1000602D504201FB0C5E5F9491D9851
:10CCA0004FF0000A08718DF818A08DF83CA00FAA6B
:10CCB0000A60ADF81CA0ADF850A02978994601F0A3
:10CCC0003F02701F5B1C04F1180C4FF0060E4FF072
:10CCD000040BCDF858C01F2A7ED2DFE802F07D7D1C
:10CCE000107D267DAC7DF47DF37DF27DF17DF47DBC
:10CCF000F07D7D7DEF7DEE7D7D7D7D7DED0094F889
:10CD00004610B5F80100890701D5032E02D08DF831
:10CD100018B022E34FF40061ADF850106080032199
:10CD20008DF83C10ADF84000D8E2052EEFD1B5F8F3
:10CD300001002083ADF81C00B5F80310618308B131
:10CD4000884201D901207FE10020A07220814FF6A6
:10CD5000FF702084169801F0A0F8052089F80000E3
:10CD60000220029083460AAB1D9A16991B9801F087
:10CD700097F890BB9DF82E00012804D0022089F876
:10CD80000100102003E0012089F801000220059035
:10CD9000002203A90BA807F035FAE8BB9DF80C00A8
:10CDA000059981423DD13A88801CA2EB0B0181425A
:10CDB00037DB02990220CDE900010DF12A034A4632
:10CDC00041461B98FFF77EFC02980BF1020B801C7A
:10CDD00080B217AA03A901E0A0E228E002900BA804
:10CDE00007F010FA02999DF80C00CDE9000117AB8D
:10CDF0004A4641461B98FFF765FC9DF80C100AABAC
:10CE00000BEB01001FFA80FB02981D9A084480B2C8
:10CE1000029016991B9800E003E001F041F8002809
:10CE2000B6D0BBF1020F02D0A7F800B053E20A203F
:10CE30008DF818004FE200210391072EFFF467AF31
:10CE4000B5F801002083ADF81C00B5F8032062831B
:10CE500000283FF477AF90423FF674AF0120A072F4
:10CE6000B5F8050020810020A073E06900F052FDB4
:10CE700078B9E16901208871E2694FF4205191800D
:10CE8000E1698872E06942F601010181E0690021EF
:10CE90008173F01F20841E986062072060841698BA
:10CEA00000F0FBFF072089F80000012004900290A9
:10CEB0000020ADF82A0028E01DE2A3E13AE1EAE013
:10CEC00016E2AEE086E049E00298012814D0E0695D
:10CED0008079012803D1BDF82800ADF80E00049830
:10CEE00003ABCDE900B04A4641461B98FFF7EAFB89
:10CEF0000498001D80B20490BDF82A00ADF80C0023
:10CF0000ADF80E00059880B202900AAB1D9A1699F2
:10CF10001B9800F0C5FF28B902983988001D0590BC
:10CF20008142D1D20298012881D0E069807901281C
:10CF300005D0BDF82810A1F57F40FF3803D1BDF81A
:10CF40002800ADF80E00049803ABCDE900B04A46C6
:10CF500041461B98FFF7B6FB0298BBE1072E02D0B3
:10CF6000152E7FF4D4AEB5F801102183ADF81C1056
:10CF7000B5F80320628300293FF4E4AE91423FF606
:10CF8000E1AE0121A1724FF0000BA4F808B084F8C3
:10CF90000EB0052E07D0C0B2691DE26907F013F983
:10CFA00000287FF444AF4FF6FF70208401A906AA41
:10CFB00014A8CDF800B081E885032878214600F058
:10CFC0003F031D9A1B98FFF795FB8246208BADF817
:10CFD0001C0080E10120032EC3D14021ADF8501088
:10CFE000B5F801102183ADF81C100AAAB8F1000FA2
:10CFF00000D00023CDE9020304921D98CDF80480EF
:10D00000009038880022401E83B21B9800F0C8FFB1
:10D010008DF8180090BB0B2089F80000BDF828009F
:10D0200037E04FF0010C052E9BD18020ADF8500069
:10D03000B5F801102183B5F803002084ADF81C1069
:10D04000B0F5007F03D907208DF8180085E140F482
:10D050007C4222840CA8B8F1000F00D00023CDE957
:10D060000330CDE9018C1D9800903888401E83B2B2
:10D070001B9800F095FF8DF8180028B18328A8D1DF
:10D080000220BDE0580000200D2189F80010BDF8F5
:10D090003000401C1EE1032E04D248067FF537AE57
:10D0A000002017E1B5F80110ADF81C1028784006F3
:10D0B00002D58DF83CE002E007208DF83C004FF0EF
:10D0C00000080320CDE902081E9BCDF810801D98B2
:10D0D0000193A6F1030B00901FFA8BF342461B98B5
:10D0E00000F034FD8DF818008DF83C802978490651
:10D0F0000DD52088C00506D5208BBDF81C108842B0
:10D1000001D1C4F8248040468DF81880E2E08328DD
:10D1100001D14FF0020A4FF48070ADF85000BDF815
:10D120001C002083A4F820B01E9860620320608455
:10D130001321CCE0052EFFF4EAADB5F80110ADF8EF
:10D140001C10A28F62B3A2F57F43FE3B28D00822B9
:10D150008DF83C204FF0000B0523CDE9023BDDF8B4
:10D1600078C0CDF810B01D9A80B2CDF804C040F45C
:10D1700000430092B5F803201B9800F0E7FC8DF8FF
:10D180003CB04FF400718DF81800ADF850108328B2
:10D1900010D0F8B1A18FA1F57F40FE3807D0DCE0B8
:10D1A0000B228DF83C204FF6FE72A287D2E7A4F83E
:10D1B0003CB0D2E000942B4631461E9A1B98FFF7F4
:10D1C00080FB8DF8180008B183284BD1BDF81C00F6
:10D1D000208355E700942B4631461E9A1B98FFF793
:10D1E00070FB8DF81800E8BBE18FA06B0844811D2F
:10D1F0008DE882034388828801881B98FFF763FCCF
:10D20000824668E095F80180022E70D15FEA08003E
:10D2100002D0B8F1010F6AD109208DF83C0007A8AF
:10D2200000908DF840804346002221461B98FFF76E
:10D230002CFC8DF842004FF0000B8DF843B050B934
:10D24000B8F1010F12D0B8F1000F04D1A18FA1F5F0
:10D250007F40FF380AD0A08F40B18DF83CB04FF42A
:10D26000806000E037E0ADF850000DE00FA91B989A
:10D27000F9F747FF82468DF83CB04FF48060ADF877
:10D280005000BAF1020F06D0FC480068C07928B1FE
:10D290008DF8180027E0A4F8188044E0BAF1000FD8
:10D2A00003D081208DF818003DE007A80090434688
:10D2B000012221461B98FFF7E8FB8DF81800214654
:10D2C0001B98FFF7CAFB9DF8180020B9192189F8AF
:10D2D0000010012038809DF83C0020B10FA91B9858
:10D2E000F9F70FFF8246BAF1000F33D01BE018E0C8
:10D2F0008DF818E031E02078000712D5012E10D10A
:10D300000A208DF83C00E088ADF8400003201B990E
:10D3100008F0E6FE0820ADF85000C1E648067FF5AB
:10D32000F6AC4FF0040A2088BDF850100843208066
:10D33000BDF8500080050BD5A18FA1F57F40FE38C8
:10D3400006D11E98E06228982063A6864FF0030A53
:10D350005046A1E49DF8180078B1012089F800003A
:10D36000297889F80110BDF81C10A9F802109DF861
:10D37000181089F80410052038802088BDF8501056
:10D3800088432080E4E72DE9FF4F8846087895B070
:10D39000012181404FF20900249C0140ADF820108A
:10D3A0002088DDF88890A0F57F424FF0000AFF3A10
:10D3B00006D039B1000705D5012019B0BDE8F08FBE
:10D3C0000820FAE7239E4FF0000B0EA886F800B065
:10D3D00018995D460988ADF83410A8498DF81CB03D
:10D3E000179A0A718DF838B0086098F80000012883
:10D3F0003BD0022809D003286FD1307820F03F00BD
:10D400001D303070B8F80400E08098F80010032058
:10D41000022904D1317821F03F011B31317094F899
:10D420004610090759D505ABB9F1000F13D00021FB
:10D4300002AA82E80B000720CDE90009BDF83400FC
:10D44000B8F80410C01E83B20022159800F0A8FDA1
:10D450000028D1D101E0F11CEAE7B8F80400A6F8F1
:10D460000100BDF81400C01C04E198F805108DF807
:10D470001C1098F80400012806D04FF4007A022806
:10D480002CD00328B8D16CE12188B8F8080011F439
:10D490000061ADF8201020D017281CD3B4F840103C
:10D4A000814218D3B4F84410172901D3814212D114
:10D4B000317821F03F01C91C3170A6F80100032129
:10D4C000ADF83410A4F8440094F8460020F00200AF
:10D4D00084F8460065E105257EE177E1208808F1C2
:10D4E000080700F4FE60ADF8200010F0F00F1BD02C
:10D4F00010F0C00F03D03888228B9042EBD199B93D
:10D50000B878C00710D0B9680720CDE902B1CDF8CE
:10D5100004B00090CDF810B0FB88BA88398815980F
:10D5200000F014FB0028D6D12398BDF82010401C31
:10D5300080294ED006DC10290DD020290BD040299F
:10D5400087D124E0B1F5807F6ED051457ED0B1F512
:10D55000806F97D1DEE0C80601D5082000E01020DA
:10D5600082460DA907AA0520CDE902218DF83800D1
:10D57000ADF83CB0CDE9049608A93888CDE90001A2
:10D580005346072221461598FFF7B4F8A8E09DF806
:10D590001C2001214FF00A0A002A9BD105ABB9F1EA
:10D5A000000F00D00020CDE902100720CDE90009CE
:10D5B000BDF834000493401E83B2218B00221598DD
:10D5C00000F0EEFC8DF81C000B203070BDF814004C
:10D5D00020E09DF81C2001214FF00C0A002A22D1E6
:10D5E00013ABB9F1000F00D00020CDE902100720E5
:10D5F000CDE900090493BDF83400228C401E83B2AB
:10D60000218B159800F0CCFC8DF81C000D2030709B
:10D61000BDF84C00401CADF8340005208DF83800F2
:10D62000208BADF83C00BCE03888218B88427FF429
:10D6300052AF9DF81C004FF0120A00281CD1606AFE
:10D64000A8B1B878C0073FF446AF00E018E0BA6868
:10D650000720CDE902B2CDF804B00090CDF810B0AB
:10D66000FB88BA88159800F071FA8DF81C00132019
:10D6700030700120ADF8340093E000005800002025
:10D680003988208B8142D2D19DF81C004FF0160AB8
:10D690000028A06B08D0E0B34FF6FF7000215F4672
:10D6A000ADF808B0019027E068B1B978C907BED1DC
:10D6B000E18F0DAB0844821D03968DE80C02438870
:10D6C0008288018809E0B878C007BCD0BA680DAB81
:10D6D00003968DE80C02BB88FA881598FFF7F3F9DA
:10D6E00005005ED0072D72D076E0019005AA02A950
:10D6F0002046FFF729F90146E28FBDF80800824273
:10D7000001D00029F1D0E08FA16B08440780019877
:10D71000E08746E09DF81C004FF0180A40B1208BCE
:10D72000C8B13888208321461598FFF796F938E06C
:10D7300004F118000090237E012221461598FFF77E
:10D74000A4F98DF81C000028EDD1192030700120BB
:10D75000ADF83400E7E7052521461598FFF77DF978
:10D760003AE0208800F40070ADF8200050452DD13B
:10D77000A08FA0F57F41FE3901D006252CE0D8F816
:10D7800008004FF0160A48B1A063B8F80C10A18742
:10D790004FF6FF71E187A0F800B002E04FF6FF708E
:10D7A000A087BDF8200030F47F611AD078230022D2
:10D7B0000320159908F0EAFB98F8000020712088F2
:10D7C000BDF82010084320800EE000E007252088E7
:10D7D000BDF8201088432080208810F47F6F1CD073
:10D7E0003AE02188814321809DF8380020B10EA9BC
:10D7F0001598F9F786FC05469DF81C000028EBD02B
:10D8000086F801A001203070208B70809DF81C00EC
:10D8100030710520ADF83400DEE7A18EE1B1189833
:10D820000DAB0088ADF834002398CDE90304CDE9B1
:10D830000139206B0090E36A179A1598FFF7FCF9FD
:10D84000054601208DF838000EA91598F9F759FC06
:10D8500000B10546A4F834B094F8460040070AD554
:10D860002046FFF7A0F910F03E0F04D114F8460F40
:10D8700020F0040020701898BDF83410018028466C
:10D880009BE500B585B0032806D102208DF8000085
:10D8900088B26946F9F735FC05B000BD10B5384CC3
:10D8A0000B782268012B02D0022B2AD111E01378C9
:10D8B0000BB1052B01D10423137023688A889A8049
:10D8C0002268CB88D38022680B89138149895181D2
:10D8D0000DE08B8893802268CB88D38022680B89E7
:10D8E00013814B8953818B89938109691161216867
:10D8F000F9F707FC226800210228117003D00028E4
:10D9000000D0812010BD832010BD806B002800D086
:10D91000012070478178012909D10088B0F5205F86
:10D9200003D042F60101884201D100207047072050
:10D930007047F0B587B0002415460E460746ADF88F
:10D94000184011E005980088288005980194811DF1
:10D95000CDE902410721049400918388428801881F
:10D96000384600F0F3F830B905AA06A93046FEF7AC
:10D97000EBFF0028E6D00A2800D1002007B0F0BD58
:10D980005800002010B58B7883B102789A4205D1F7
:10D990000B885BB102E08B79091D4BB18B789A4201
:10D9A000F9D1B0F801300C88A342F4D1002010BDA9
:10D9B000812010BD072826D012B1012A27D103E00B
:10D9C000497801F0070102E04978C1F3C201052955
:10D9D0001DD2DFE801F00318080C12000AB1032081
:10D9E00070470220704704280DD250B10DE0052881
:10D9F00009D2801E022808D303E0062803D003289A
:10DA000003D005207047002070470F207047812009
:10DA10007047C0B282060BD4000607D5FE48807A54
:10DA20004143C01D01EBD00080B2704708467047EB
:10DA30000020704770B513880B800B781C0625D525
:10DA4000F54CA47A844204D843F0100008700020FA
:10DA500070BD956800F0070605EBD0052D78F54000
:10DA600065F304130B701378D17803F0030341EAD4
:10DA7000032140F20123B1FBF3F503FB151192687A
:10DA8000E41D00FB012000EBD40070BD906870BD68
:10DA900037B51446BDF8041011809DF804100A062D
:10DAA0001ED5C1F30013DC49A568897A814208D8E4
:10DAB000FE2811D1C91DC9085A42284617F099F805
:10DAC0000AE005EBD00100F0070201250878954037
:10DAD000A843934018430870207820F0100020706D
:10DAE0003EBD2DE9F0410746C81C0E4620F003005C
:10DAF000B04202D08620BDE8F081C74D00203446F8
:10DB00002E60AF802881AA72E8801AE0E988491C5B
:10DB1000E980810614D4E17800F0030041EA002096
:10DB200040F20121B0FBF1F201FB12012068FFF786
:10DB300070FF2989084480B22881381A3044A060D7
:10DB40000C3420784107E1D40020D4E72DE9FF4FC1
:10DB500089B01646DDE9168A0F46994623F44045FA
:10DB6000084600F00DFB04000FD0099804F064FD96
:10DB70000290207800060AD5A748817A029881424F
:10DB800005D887200DB0BDE8F08F0120FAE72246C6
:10DB900001A90298FFF74EFF834600208DF80C0084
:10DBA0004046B8F1070F1AD001222146FFF702FFC5
:10DBB0000028E7D12078400611D502208DF80C000E
:10DBC000ADF81070BDF80400ADF81200ADF81460A7
:10DBD0001898ADF81650CDF81CA0ADF818005FEA03
:10DBE000094004D500252E46A84601270CE02178DF
:10DBF000E07801F0030140EA012040F20121B0FB8E
:10DC0000F1F2804601FB12875FEA494009D5B84529
:10DC100007D1A178207901F0030140EA0120B04248
:10DC200001D3BE4201D90720ACE7A8191FFA80F939
:10DC3000B94501D90D20A5E79DF80C0028B103A92D
:10DC40000998F9F75CFA00289CD1B84507D1A0786B
:10DC50004FEA192161F30100A07084F804901A982A
:10DC600000B10580199850EA0A0027D0199830B100
:10DC70000BEB06002A46199916F044FF0EE00BEB59
:10DC800006085746189E099804F042FE2B46F61DDA
:10DC9000B5B239464246009504F02DFA224601A954
:10DCA0000298FFF7C7FE9DF80400224620F01000FE
:10DCB0008DF80400DDE90110FFF7EAFE002061E7BE
:10DCC0002DE9FF4FDFF8509182461746B9F806104C
:10DCD000D9F8000001EB410100EB810440F2012082
:10DCE000B2FBF0F185B000FB11764D46DDF84C80BB
:10DCF00031460698FFF78DFE29682A898B46611AFE
:10DD00000C3101441144AB8889B28B4202D8842083
:10DD100009B038E70699CDB2290603D5A90601D581
:10DD20000620F5E7B9F806C00CF1010C1FFA8CFCCF
:10DD3000A9F806C0149909B1A1F800C0A90602D536
:10DD4000C4F8088007E0104480B2A9F80800191A46
:10DD500001EB0B00A0602246FE200699FFF798FE1B
:10DD6000E77026712078390A61F30100320AA17840
:10DD700040F0040062F30101A17020709AF80200E3
:10DD80006071BAF80000E08000262673280602D5EC
:10DD900099F80A7000E00127A80601D54FF00008A5
:10DDA0004D4600244FF007090FE0CDE902680196C7
:10DDB000CDF800900496E9882046129B089AFFF758
:10DDC000C5FE0028A4D1641CE4B2BC42EDD30020FF
:10DDD0009EE72DE9F047804600F0D2F9070005D014
:10DDE000002644460C4D40F2012919E00120BDE80F
:10DDF000F087204600F0C4F90278C17802F00302EF
:10DE000041EA0222B2FBF9F309FB13210068FFF794
:10DE100000FE304486B201E0F4050020641CA4B288
:10DE2000E988601E8142E4DCA8F10100E8802889CD
:10DE3000801B288100203870D9E710B5144631B115
:10DE4000491E218004F0F8FBA070002010BD0120C5
:10DE500010BD10B5D24904460088CA88904201D34B
:10DE60000A2010BD096800EB400001EB80025079E8
:10DE7000A072D08820819178107901F0030140EAE6
:10DE80000120A081A078E11CFFF7D4FD206120884B
:10DE9000401C2080E080002010BD012101827047DD
:10DEA0002DE9FF4F85B04FF6FF788246A3F800803A
:10DEB00048681F460D4680788DF80600486800883F
:10DEC000ADF8040000208DF80A00088A0C88A042F2
:10DED00000D304462C8241E0288A401C2882701D11
:10DEE0006968FFF74FFDB8BB3988414501D1601E15
:10DEF00038806888A04236D3B178307901F00301C8
:10DF000040EA012901A9701DFFF73CFD20BB2989CA
:10DF100041452CD0002231460798FFF74BFDD8B978
:10DF20002989494518D1E9680391B5F80AC0D6F89E
:10DF300008B05046CDF800C004F0EAFCDDF800C09F
:10DF40005A460CF1070C1FFA8CFC4B460399CDF88E
:10DF500000C004F09AF850B1641CA4B2204600F04E
:10DF60000FF90600B8D1641E2C820A20D0E67C800E
:10DF70007079B871F088B8803178F07801F00301D9
:10DF800040EA01207881A7F80C90504604F054FB39
:10DF9000324607F10801FFF74DFD38610020B7E672
:10DFA0002DE9FF4F87B081461C469246DDF860B0F0
:10DFB000DDF85480089800F0E3F805000CD04846DE
:10DFC00004F03AFB2978090608D57549897A814217
:10DFD00004D887200BB0D6E50120FBE7CAF3090679
:10DFE0002A4601A9FFF726FD0746149807281CD0EA
:10DFF00000222946FFF7DEFC0028EBD128784006F6
:10E0000013D501208DF808000898ADF80C00BDF874
:10E010000400ADF80E00ADF81060ADF8124002A992
:10E020004846F9F76CF80028D4D12978E87801F04F
:10E03000030140EA0121AA78287902F0030240EAAC
:10E040000220564507D0B1F5007F04D9611E8142F8
:10E0500001DD0B20BEE7864201D90720BAE7801B0D
:10E0600085B2A54200D92546BBF1000F01D0ABF81F
:10E070000050179818B1B9192A4616F043FDB8F1A7
:10E08000000F0DD03E4448464446169F04F052FC13
:10E090002146FF1DBCB232462B46009404F05FF8C7
:10E0A000002097E72DE9F04107461D461646084631
:10E0B00000F066F804000BD0384604F0BDFA217871
:10E0C000090607D53649897A814203D8872012E5A7
:10E0D000012010E522463146FFF7ACFC65B12178FE
:10E0E000E07801F0030140EA0120B0F5007F01D89B
:10E0F000012000E0002028700020FCE42DE9F04120
:10E1000007461D461646084600F03AF804000BD0B4
:10E11000384604F091FA2178090607D52049897A12
:10E12000814203D88720E6E40120E4E42246314618
:10E13000FFF7AEFCFF2D14D02178E07801F0030248
:10E1400040EA022040F20122B0FBF2F302FB13008E
:10E1500015B900F2012080B2E070000A60F30101FD
:10E1600021700020C7E410B50C4600F009F828B172
:10E17000C18821804079A070002010BD012010BD11
:10E180000749CA88824209D340B1096800EB4000C0
:10E190006FF00B0202EB80000844704700207047CC
:10E1A000F405002010B508F05DF9F4F77FFB07F0E7
:10E1B000E3FFBDE8104008F0ABB8202834BF0120D1
:10E1C00000207047012303FA00F04FF0A04200291D
:10E1D00014BFC2F80C05C2F8080570474FF0A04103
:10E1E000012202FA00F0C1F81805704770B5034625
:10E1F000002002466FF02F050EE09C5CA4F1300673
:10E200000A2E02D34FF0FF3070BD00EB800005EB0B
:10E210004000521C2044D2B28A42EED370BD30B5C9
:10E220000A230BE0B0FBF3F403FB1404B0FBF3F0A0
:10E230008D183034521E05F8014CD2B2002AF1D1AB
:10E2400030BD30B500234FF6FF7510E0040A44EAF4
:10E25000002084B2C85C6040C0F30314604005EA4B
:10E2600000344440E0B25B1C84EA40109BB293420D
:10E27000ECD330BD2DE9F041FE4B0026012793F889
:10E2800060501C7893F864C0B8B183F88D40A3F84F
:10E290008E1083F88C2083F88A70BCF1000F0CBFBD
:10E2A00083F8906083F89050F3488068008804F009
:10E2B0002FFBBDE8F04103F0C5BF4FF6FF7083F8B8
:10E2C0008D40A3F88E0083F88C2083F88A70BCF10F
:10E2D000000F14BF83F8905083F89060BDE8F08180
:10E2E00070B5E54E0446306890F898100025012975
:10E2F00019D090F89210012924D090F868100129C3
:10E300002AD090F88A1001291CBF002070BD6570CA
:10E3100017212170D0F88C106160B0F89010218125
:10E3200080F88A5016E065701C212170D0F8991091
:10E330006160D0F89D10A16090F8A110217380F861
:10E34000985007E0657007212170D0F89410616043
:10E3500080F89250012070BD65701421217000F189
:10E360006A012022201D16F0CDFB012121723068A8
:10E3700080F86850BF48B0F86C20A0F89420B268CC
:10E38000537B80F8963080F89210108804F0C0FA21
:10E3900003F067FFDEE7B848006890F868100029CE
:10E3A00014BFB0F86C004FF6FF70704770B5B24CF8
:10E3B00006462068002808BFFFDF0025206845705A
:10E3C0006660002808BFFFDF2068417800291CBF75
:10E3D000FFDF70BDA42116F036FC2068FF2101701C
:10E3E0007F2180F8361013214184282180F86510A0
:10E3F000012180F8581080F85D5008F0ACFCBDE8B1
:10E40000704007F0E6BE9C490968097881420CBF5C
:10E410000120002070479848006890F82200C0F35F
:10E42000400070479448006890F8220000F0010016
:10E4300070479148006890F82200C0F300107047C0
:10E440002DE9F0438C48D0F800C09CF82400BCF8BB
:10E450002240C0F38001C0F34002114400F00100EB
:10E460000144C4F30010F0B1132C17D009DC102CB8
:10E4700002BF824830F81100BDE8F083122C0DD0A5
:10E4800008E0152C08BF7E4809D01D2C04BF7D482C
:10E49000BDE8F083FFDF0020BDE8F0837A4830F864
:10E4A0001100BDE8F0839CF85A209CF85B002E26F2
:10E4B00000234FF47A774FF014084FF04009022AF6
:10E4C00004BF4AF2D745B5FBF7F510D0012A04BFC7
:10E4D0004AF22F75B5FBF7F510D04AF62315B5FBB8
:10E4E000F7F5082A08BF4E4613D0042A18D01E4656
:10E4F000082A0ED0042A13D0022A49D003F1280694
:10E50000042A0FD0082A1CBF4FF01908082204D093
:10E510000AE04FF0140806F5A8764FF0400203E039
:10E5200006F5A8764FF0100218FB026212FB0152AA
:10E53000C1EB0111554D01EB810105EB8101114446
:10E5400014F0010F4FF4C8724FF4BF7504BFC4F349
:10E550004006002E6FD0C4F3400601F5A571EEB160
:10E56000082804BF164640270CD0042804BF2E46B6
:10E57000102707D0022807BF03F11806042703F16C
:10E580002806082707EB870706EB870631441CE0BF
:10E5900003F118064FF019080422C5E7082804BF44
:10E5A000164640270CD0042804BF2E46102707D05B
:10E5B000022807BF03F11806042703F128060827DD
:10E5C00007EB871706EB870631449C31082804BF08
:10E5D000164640270CD0042804BF2E46102707D02B
:10E5E000022807BF03F11806042703F128060827AD
:10E5F000C7EBC70707EB470706EB470631449831DF
:10E6000014F0010F18D0082808BF40200CD00428AF
:10E6100004BF2A46102007D0022807BF03F11802C2
:10E62000042003F12802082000EB400303EB001054
:10E63000104401444FE052E0082804BF144640262D
:10E640000CD0042804BF2C46102607D0022807BF90
:10E6500003F11804042603F12804082606EB8616A5
:10E66000BCF83CC004EB86042144BCF1EB0F32D96A
:10E670000EE000000006002060000020AC50020008
:10E68000B45002008E891300A4500200D4FEFFFF94
:10E6900044F255240CF10B0C0CFB04FC4FEA9C5C7F
:10E6A000082807D0042802D0022805D008E02A460E
:10E6B000102008E0402006E003F11802042002E0E8
:10E6C00003F12802082000EB801002EB800000F527
:10E6D000A5700CFB001101F26510BDE8F08301F597
:10E6E000A571082804BF144640260CD0042804BF96
:10E6F0002C46102607D0022807BF03F11804042671
:10E7000003F12804082606EB8616BCF844C004EB87
:10E7100086042144BCF1EB0FDDD944F255240CF101
:10E720000B0C0CFB04FC4FEA9C5C0828C2D00428AC
:10E73000BDD00228C4D1BFE7FE4840F27121006875
:10E74000806A48437047FB48006890F8350000280D
:10E7500018BF0120704710B5F74C207B022818BF66
:10E76000032808D1207D04F115010DF024F90828B3
:10E770001CBF012010BD207B002816BF02280020EE
:10E780000120BDE8104008F0FDBEEB49087370475A
:10E79000E849096881F8300070472DE9F047E54CF9
:10E7A0002168087B002816BF02280020012048733A
:10E7B00001F10E0108F0D0FE2168087B022816BF87
:10E7C00003280122002281F82F204FF0080081F851
:10E7D0002D00487B01F10E034FF001064FF00007BA
:10E7E000012804BF5B7913F0C00F0AD001F10E03BA
:10E7F000012804D1587900F0C000402801D0002041
:10E8000000E0012081F82E00002A04BF91F82200C8
:10E8100010F0040F07D0087D01F115010DF0CBF8C1
:10E82000216881F82D002068476006F081F8216892
:10E83000C14D4FF00009886095F82D000DF0D7F814
:10E84000804695F82F00002818BFB8F1000F04D0BB
:10E8500095F82D000CF092FE68B195F83000002874
:10E860001CBF95F82E0000281DD0697B05F10E0015
:10E8700001290ED012E06E734A4605F10E014046A2
:10E8800008F0BFFE95F82D1005F10E000DF0A6F969
:10E8900009E0407900F0C000402831D0394605F148
:10E8A0000E0008F0E5FE2068C77690F8220010F010
:10E8B000040F08BFBDE8F087002795F82D000CF085
:10E8C00011FF050008BFBDE8F08710210DF015FF0E
:10E8D000002818BFBDE8F08720683A4600F11C0107
:10E8E000C676284608F08DFE206800F11C0160689D
:10E8F0000EF012FA6068BDE8F04701210EF027BA69
:10E900000DF0A9F94A4605F10E0108F07AFECAE7B2
:10E91000884A1268137B0370D2F80E000860508A90
:10E920008880704778B584490446824D407B0873DF
:10E930002A68207810706088ADF8000080B200F07E
:10E940000101C0F3400341EA4301C0F3800341EAFF
:10E950008301C0F3C00341EAC301C0F3001341EADD
:10E960000311C0F3401341EA4311C0F3801041EAA0
:10E9700080105084E07D012808BF012603D00228C2
:10E9800014BFFFDF0226286880F85A60607E0128E5
:10E9900008BF012603D0022814BFFFDF0226286823
:10E9A00080F85B60217B80F82410418C1D290CBF0E
:10E9B000002161688162617D80F83510A17B0029AA
:10E9C00016BF0229002101210175D4F80F10C0F8EB
:10E9D0001510B4F81310A0F81910A17EB0F8662035
:10E9E00061F30302A0F86620E17E012918BF00212F
:10E9F00080F83410002078BD4E480068408CC0F389
:10EA0000001131B1C0F38000002804BF1F207047FF
:10EA100002E0C0F3400109B10020704710F0010F7F
:10EA200014BFEE20FF20704742480068408CC0F3BE
:10EA3000001119B1C0F3800028B102E0C0F340001A
:10EA400008B100207047012070473A490022096848
:10EA50000A664B8C1D2B0CBF81F8642081F8640082
:10EA600070470023334A126882F859309164A2F843
:10EA70004C00012082F8590070472E4A002312688A
:10EA800082F85830A2F854000120116582F858002D
:10EA900070472849096881F85D007047254800687B
:10EAA00090F95D0070472348006890F82200C0F399
:10EAB000401070471F48006890F82200C0F3C00063
:10EAC0007047012070471B48006890F85B00704752
:10EAD00070B508F0F8F808F0D7F807F0C9FF08F0AB
:10EAE00051F8144C2068016E491C016690F83300FF
:10EAF000002530B108F02FF907F06BFB206880F893
:10EB000033502068457090F8371021B1BDE870404F
:10EB1000042009F001BA90F8641001B3006E81423C
:10EB20001DD8042009F0F8F9206890F8220010F0B0
:10EB3000010F03E0600000200006002007D0A0685D
:10EB400043220188BDE870400120FFF793BBBDE878
:10EB5000704043224FF6FF710020FFF78BBBBDE8EA
:10EB60007040002009F0D8B92DE9F047FF4E8146EA
:10EB700082B030680F464FF00008458C15F0030F47
:10EB800010D015F0010F05F0020005D0002808BFD5
:10EB90004FF0010806D004E0002818BF4FF002082B
:10EBA00000D1FFDF4FF0000A544615F0010F05F0C9
:10EBB00002000DD080B915F0040F0DD04AF0080006
:10EBC000002F1CBF40F0010040F0020440D090E054
:10EBD00010B115F0040F0DD015F0070F10D015F07F
:10EBE000010F05F0020036D0002808BF15F0040F11
:10EBF00027D03DE0002F18BF4AF0090479D134E056
:10EC00002FB14AF0080415F0200F14D071E03168DC
:10EC100005F02002B1F84400104308BF4AF0010497
:10EC200067D04AF0180415F0200F62D191F85A10FD
:10EC300008295AD156E0316891F85A10082951D163
:10EC400053E04AF00800002F18BF40F0010450D1F3
:10EC500040F010044DE0002818BF15F0040F07D055
:10EC6000002F18BF4AF00B0443D14AF0180440E0CB
:10EC700015F0030F3CD115F0040F39D077B131688E
:10EC80004AF0080091F85A1008290CBF40F002041D
:10EC900020F0020415F0200F22D02AE0316805F0A0
:10ECA0002002B1F84400104308BF4AF0030420D00A
:10ECB0004AF0180015F0200F09D000BF91F85A1043
:10ECC000082914BF40F0020420F0020411E091F87A
:10ECD0005A20082A14BF40F0010020F00100EDE79F
:10ECE000082902D024F0010403E044F0010400E00C
:10ECF000FFDF15F0400F1BD0C7B93168B1F84400F1
:10ED0000002804BF488C10F0010F0BD110F0020F47
:10ED100008BF10F0200F05D115F0010F08BF15F046
:10ED2000020F03D091F85A00082801D044F04004A3
:10ED30007068A0F800A0017821F02001017007217F
:10ED40000DF0B6FF414670680EF0A9F921467068D3
:10ED50000EF0B1F914F0010F0AD006230022844905
:10ED600070680EF082F93068417B70680DF0E2FF48
:10ED700014F0020F18D0D6E90010B9F1000F4FF0CF
:10ED800006034FF0010207D01C310EF06EF901218D
:10ED900070680DF0DCFF07E015310EF066F93068A1
:10EDA000017D70680DF0D3FF14F0040F18BFFFDF72
:10EDB00014F0080F17D0CDF800A03068BDF800108F
:10EDC0000223B0F86600020962F30B01ADF80010EF
:10EDD0009DF80110032260F307118DF801106946B8
:10EDE00070680EF042F9012F61D13068B0F844101C
:10EDF000E9B390F82200C0F34000C0BB70680EF089
:10EE00004AF9401CC7B23068B0F84420B0F8561038
:10EE1000551AC7F1FF018D42A8BF0D46AA423AD943
:10EE200090F8220010F0010F35D144F01004214673
:10EE300070680EF040F9F81CC0B2ED1E284482B292
:10EE40003068B0F86610036E090951FA83F190F842
:10EE50005C30484F1944BC460023E1FB07C31B0943
:10EE60006FF0240C03FB0C1180F85C1000E01EE036
:10EE700090F85B00012101F025F80090BDF800003A
:10EE80009DF80210032340EA01400190042201A9E9
:10EE900070680EF0EAF83068AAB2016C70680EF083
:10EEA00038F93068B0F856102944A0F8561014F01C
:10EEB000400F06D0D6E90010012306225D310EF086
:10EEC000D4F814F0200F18BFFFDF0020002818BF6F
:10EED000FFDF02B0BDE8F0872DE9F843234C20683E
:10EEE000002808BFFFDF2068417839BB0178FF297F
:10EEF00024D0002680F83160A0F85660867080F833
:10EF00003760304607F052FE07F046FB206890F964
:10EF10005D0007F002FC184807F005FC174807F0F1
:10EF20002BFE606807F045FE206890F8240010F082
:10EF3000010F06D0252007F0FEFB09E00C20BDE8FC
:10EF4000F88310F0020F18BF262076D007F0F3FBED
:10EF5000206890F85A10252007F0EAFA206880F817
:10EF60002C6007F01DFE20680AE000006000002011
:10EF70000E06002053E4B36EA05002009D50020024
:10EF800090F85A10002007F02DFC0F21052007F003
:10EF900098FB206890F82E10002901BF90F82F10E0
:10EFA000002990F8220010F0040F75D005F0C0FC85
:10EFB000054620682946806806F0D6F9DFF82C84DB
:10EFC000074690FBF8F008FB10704142284605F018
:10EFD000B0F92168886097FBF8F04A6810444860EF
:10EFE0000CF0E6FC01462068426891426FD8C0E907
:10EFF0000165FF4D4FF0010895F82D000CF0F7FC6E
:10F00000814695F82F000127002818BFB9F1000F9D
:10F0100004D095F82D000CF0B1FAA8B195F83000A5
:10F0200000281CBF95F82E00002825D0697B05F12B
:10F030000E00012916D01AE0FFE710F0040F14BFEC
:10F040002720FFDF82D183E73A466F7305F10E0177
:10F05000484608F0D6FA95F82D1005F10E000CF090
:10F06000BDFD09E0407900F0C000402815D04146C0
:10F0700005F10E0008F0FCFA206890F8220010F06C
:10F08000040F24D095F82D000CF02CFB05001ED0A9
:10F0900010210DF032FB40B119E00CF0DCFD3A46D6
:10F0A00005F10E0108F0ADFAE6E720683A4600F1F6
:10F0B0001C01C776284608F0A4FA206800F11C015C
:10F0C00060680DF029FE012160680DF040FE2068A7
:10F0D000417B0E3007F0D9FA206890F8581059B3E8
:10F0E000B0F85410A0F84410016D016490F822109B
:10F0F000C1F30011E9B9B0F8660002210509ADF8C5
:10F100000050684606F0EEFC28B1BDF80000C0F3E0
:10F110000B00A84204D1BDF80000401CADF800006F
:10F120002168BDF80000B1F8662060F30F12A1F865
:10F130006620206880F85860206890F8591031B136
:10F14000B0F84C108187816C816380F85960B0F809
:10F150006610026E090951FA82F190F85C20DFF81E
:10F1600094C2114463460022E1FB0C3212096FF095
:10F17000240302FB031180F85C100CF09CFC0321BB
:10F1800060680CF01BFD216881F833000020BDE8A9
:10F19000F8839949886070472DE9F043964C83B015
:10F1A000226892F831303BB1508C1D2808BFFFDF38
:10F1B00003B0BDE8F0438BE401260027F1B105461A
:10F1C00092F85C0007F0B7FA206890F85B10FF2017
:10F1D00007F0AEF920684FF4A57190F85B2000208D
:10F1E00007F009FC206890F8221011F0030F00F0DE
:10F1F0002D81002D00F0248100F028B992F8221012
:10F200008046D07EC1F30011002956D005466068C3
:10F210000780017821F020010170518C132937D02B
:10F220001FDC102908BF022144D0122908BF062183
:10F2300040D0FFDF6E4D606805F10E010DF05EFD00
:10F24000697B60680DF076FD2068418C1D2918BF30
:10F25000152965D0B0F84420016C60680DF083FD7D
:10F260005EE0152918BF1D29E3D14FF001010DF013
:10F270001FFD6068017841F020010170216885B1AF
:10F280001C310DF049FD012160680DF060FDD1E7F2
:10F2900000210DF00DFD6068017841F02001017042
:10F2A000C8E715310DF038FD2068017D60680DF06C
:10F2B0004EFDBFE70DF0FCFCBCE70021FFF754FC5E
:10F2C0006068C17811F03F0F2AD0017911F0100F5A
:10F2D00026D00DF0EBFC2368024693F82410C1F30E
:10F2E0008000C1F3400C604401F0010100EB010C0F
:10F2F00093F82C10C1F38000C1F34005284401F0BD
:10F3000001010844ACEB0000C1B293F85A0000F0D0
:10F31000D9FD009003230422694660680DF0A5FE24
:10F320002068002590F8241090F82C0021EA0002B3
:10F3300012F0010F18BF01250ED111F0020F04D0F9
:10F3400010F0020F08BF022506D011F0040F03D001
:10F3500010F0040F08BF0425B8F1000F2BD0012DC9
:10F360001BD0022D08BF26201BD0042D14BFFFDFA9
:10F37000272016D0206890F85A10252007F0D8F8DA
:10F38000206890F82210C1F3001169B101224FF4F6
:10F390009671002007F02FFB0DE0252007F0CBF938
:10F3A000E8E707F0C8F9E5E790F85A204FF49671BE
:10F3B000002007F020FB206890F82C10294380F8EB
:10F3C0002C1090F8242032EA01011CD04670418CA8
:10F3D00013292BD026DC102904BF03B0BDE8F0832D
:10F3E000122923D0C1F30010002807E040420F008B
:10F3F0000006002053E4B36E6000002018BFFFDF5A
:10F4000003B0BDE8F083418C1D2908BF80F82C7043
:10F41000DCD0C1F30011002914BF80F8316080F8FE
:10F420003170D3E7152918BF1D29DBD190F85A2078
:10F4300003B04FF00101BDE8F043084607F0C8BC37
:10F4400090F85B200121084607F0C2FC2168002DDE
:10F45000C87E7CD04A8C3D46C2F34000002808BFDD
:10F4600047F0080512F0400F18BF45F0400500288E
:10F4700019BFD1F83890B1F83C80D1F84090B1F87C
:10F4800044806068072107800DF012FC002160684D
:10F490000DF005FE294660680DF00DFE15F0080F11
:10F4A00015D02068BDF800100223B0F866000209EC
:10F4B00062F30B01ADF800109DF80110032260F318
:10F4C00007118DF80110694660680DF0CEFD606887
:10F4D0000DF0AAFC2168C0F1FE00B1F85620A8EB9F
:10F4E00002018142A8BF0146CFB2D019404542D2A5
:10F4F00045F0100160680DF0DEFD60680DF094FCD1
:10F500002168C0F1FE00B1F85610A8EB010181425C
:10F51000A8BF0146CFB260680DF0BDFD3844421C63
:10F520002068B0F86610036E090951FA83F190F86B
:10F530005C30FF4D1944AC460023E1FB05C31B09B9
:10F540006FF0240C03FB0C1180F85C1000E038E035
:10F5500090F85B00012100F0B5FC0090BDF80000C0
:10F560009DF80210032340EA01400190042201A902
:10F5700060680DF07AFD216891F8220010F0400FCC
:10F5800005D0012306225D3160680DF06EFD206814
:10F590003A46B0F8560000EB090160680DF0B9FD7D
:10F5A0002068B0F856103944A0F8561007F0AEFEA7
:10F5B000002818BFFFDF20684670867003B0BDE8E2
:10F5C000F0830121FFF7D0FAF0E7DA4810B50068C0
:10F5D000417841B90078FF2805D000210846FFF79F
:10F5E000DBFD002010BD07F06EFB07F04DFB07F0C0
:10F5F0003FFA07F0C7FA0C2010BD10B5CD4C2068BB
:10F6000090F8220010F0010F1CBFA06801884FF095
:10F610003C0212BF01204FF6FF710020FEF72AFEC8
:10F620002168012081F8370010BDC249096881F8BE
:10F63000320070472DE9F041002608F039FC00281F
:10F6400000F0F380BB4C2068417800270125012998
:10F6500006D0022901D003297BD0FFDFBDE8F0816D
:10F66000817802270029418C37D0C1F34002002A5B
:10F6700008BF11F0010F6DD090F85B204FF0010131
:10F680004FF0000007F0A4FB216891F82200C0F3BE
:10F690004000002814BF0C20222091F85B1006F0D7
:10F6A00047FF2068477090F8330020B106F07DFDD9
:10F6B000402007F03DFB206890F83400002818BF78
:10F6C00007F063FB0021962007F0A2FA07F015FE71
:10F6D000002818BFFFDFBDE8F081C1F3001282B13E
:10F6E00010293ED090F8330020B106F05EFD402096
:10F6F00007F01EFB206890F8221011F0040F35D09F
:10F7000042E090F8242090F82C309A4229D1B0F8A9
:10F710004400002808BF11F0010F05D111F0020FBD
:10F7200008BF11F0200F7DD04FF001014FF0000015
:10F73000FFF732FD2068418C11F0010F04BFC1F3C7
:10F74000400100290AD1B0F85610B0F84420914287
:10F7500001E032E026E018BFBDE8F08180F83150CA
:10F76000B9E7BDE8F0410021012015E590F835101A
:10F77000012914BF0329102646F00E0190F85A20E3
:10F780004FF0000007F024FB206890F834000028B8
:10F7900018BF07F0FAFA0021962007F039FA20681E
:10F7A000477098E7B0F85610B0F8440081423CD05A
:10F7B000BDE8F04101210846EEE48178D9B1418CE1
:10F7C00011F0010F1CD080F8685090F86A20B0F852
:10F7D0006C100120FEF74EFD2068477007F073FAA9
:10F7E00007F052FA07F044F907F0CCF9BDE8F04110
:10F7F000032008F091BB8178BDE8F0410120CBE403
:10F8000011F0020F08BFFFDF3FF465AFB0F85610EC
:10F81000808F814209D001210846FFF7BDFC0320FB
:10F82000216800E001E0487055E7BDE8F041FFF7CE
:10F830004FB9FFF74DB910B53E4C206890F8341021
:10F8400049B1363007F0ACFA18B921687F2081F849
:10F85000360007F090FA206890F8330018B107F0EE
:10F860007AFA06F0B6FC08F023FBA8B1206890F8FD
:10F870002210C1F3001179B14078022818BFFFDFD0
:10F8800000210120FFF788FC2068417800291EBF75
:10F8900040780128FFDF10BDBDE81040FFF718B920
:10F8A0002DE9F047234C0F4680462168B8F1030F3D
:10F8B000488C08BFC0F3400508D000F0010591F85E
:10F8C0003200002818BF4FF0010901D14FF00009A4
:10F8D00006F025FF0646B8F1030F0CBF4FF00208F3
:10F8E0004FF0010835EA090008BFBDE8F08720683D
:10F8F00090F8330068B10CF0C1F838700146FF2869
:10F9000007D06068C01C0CF092F838780CF0C3F88F
:10F91000064360680178C1F3801221680B7D9A422A
:10F920000DD10622C01C153115F0C0F8002803E0E7
:10F9300053E4B36E6000002008BF012000D0002017
:10F940003978FF2906D0C8B9206890F82D00884280
:10F9500016D113E0A0B1616811F8030BC0F3801059
:10F960000CF029F805460CF089F938B128460BF05F
:10F97000B9FE18B110210CF0C0FE08B1012000E062
:10F980000020216891F8221011F0040F01D0F0B18D
:10F990001AE0CEB9FE4890F83500002818BF40455F
:10F9A00015D1616811F8030BC0F380100CF003F857
:10F9B00004460CF063F938B120460BF093FE18B101
:10F9C00010210CF09AFE10B10120BDE8F087002054
:10F9D000BDE8F0872DE9F04FEE4D074683B028686B
:10F9E00000264078022818BFFFDF28684FF07F0903
:10F9F00090F8341049B1363007F0D2F9002804BF2E
:10FA0000286880F8369007F0B6F968680DF072F94A
:10FA10000446002F00F0048268680DF0F6FA002812
:10FA200000F0FE8106F049FE002800F0F981FF2079
:10FA3000DFF864B3DFF8588300274FF0010A062C83
:10FA400080F00082DFE804F0EFEFEF03EFF78DF8CE
:10FA5000000069460320FFF723FF002800F0E48040
:10FA6000296891F8340010B191F89800D0B1286855
:10FA7000817801294CD06868042107800DF018F9BD
:10FA800008F10E0168680DF039F998F80D106868F2
:10FA90000DF050F92868828F816B68680DF087F946
:10FAA00000F04DB99DF8000081F898A00A7881F81F
:10FAB0009920FF280FD001F19B029A310BF0A0FF93
:10FAC000002808BFFFDF286890F89A1041F0020173
:10FAD00080F89A100DE068680278C2F3801281F80D
:10FAE0009A20D0F80320C1F89B20B0F80700A1F8B5
:10FAF0009F00286800F1A10490F836007F2808BF15
:10FB0000FFDF286890F83610217080F83690AEE755
:10FB100090F822009BF80490C0F38014686864F3A6
:10FB20008619072107800DF0C3F8002168680DF0E1
:10FB3000B6FA494668680DF0BEFA0623002208F1BD
:10FB40000E0168680DF091FA2868417B68680DF035
:10FB5000F1F868680DF068F929688A8FC0F1FE0134
:10FB60008A42B8BF1146CFB2BA423DD9F81EC7B2D9
:10FB700049F0100A514668680DF09DFA68680DF06A
:10FB80008AFA3844431C2868B0F86610026E0909E6
:10FB900051FA82F190F85C20DFF800920A44C846DE
:10FBA0004FF0000CE2FB098C4FEA1C116FF0240CA3
:10FBB00001FB0C2180F85C1090F85B001A460121D3
:10FBC00000F080F90190BDF804009DF806100323B1
:10FBD00040EA01400290042202A968680DF045FA4B
:10FBE000514668680DF067FA34B1D5E90010012379
:10FBF00006225D310DF039FA28683A46816B686853
:10FC00000DF087FA2868A0F85670818F8F420CBFDC
:10FC10000121002180F8311007F078FB002818BF7F
:10FC2000FFDF8CE007E00DE128688078002840F0D5
:10FC3000F98000F0F5B88DF8000068680178C1F32C
:10FC40008019D0F803100191B0F80700ADF8080052
:10FC500069460520FFF724FE0028286873D08178C4
:10FC6000002972D090F85BA0D5E90104D0F80F10FC
:10FC7000C4F80E10B0F813106182417D2175817DAA
:10FC80006175B0F81710E182B0F819106180B0F812
:10FC90001B10A180B0F81D10E18000F11F0104F1DC
:10FCA000080015F0E4F8686890F8241001F01F01CE
:10FCB000217690F82400400984F86C0184F854A05F
:10FCC00084F855A0286890F8651084F8561090F8CC
:10FCD0005D0084F857009DF80010A86800F050F906
:10FCE000022008F019F96868DBF800400DF1040AF9
:10FCF000078008210CF0DCFF002168680DF0CFF9C7
:10FD0000214668680DF0D7F90623002208F10E019C
:10FD100068680DF0AAF92868417B68680DF00AF858
:10FD2000494668680DF013F80623012251466868B9
:10FD30000DF09BF907F0EAFA002818BFFFDF032057
:10FD40002968487070E066E0FFE76868AC684FF0CB
:10FD500001080278617BC2F3401211406173D0F850
:10FD60000F10C4F80E10B0F813106182417D217598
:10FD7000817D6175B0F81710E182B0F819106180CB
:10FD8000B0F81B10A180B0F81D10E18008E0000061
:10FD900000060020600000209850020053E4B36E7B
:10FDA00000F11F0104F1080015F061F8686890F88F
:10FDB000241001F01F01217690F82400400984F8F6
:10FDC0006C0184F8548084F85580286890F8651098
:10FDD00084F8561090F85D0084F857009DF80010E4
:10FDE000A86800F0CDF8286880F868A090F86A202C
:10FDF000B0F86C100120FEF73DFA2868477006F055
:10FE000062FF06F041FF06F033FE06F0BBFE012064
:10FE100008F082F808E090F82200C0F3001008B162
:10FE2000012601E0FEF754FE286890F8330018B16F
:10FE300006F091FF06F0CDF966B100210120FFF731
:10FE4000ABF910E0286890F82200C0F300100028F9
:10FE5000E8D0E5E728688178012904D190F85B10A3
:10FE6000FF2006F065FB28684178002919BF41781A
:10FE7000012903B0BDE8F08F4078032818BFFFDFE9
:10FE800003B0BDE8F08F70B5794C06460D4620688A
:10FE9000807858B106F014FB21680346304691F88B
:10FEA0005B202946BDE8704008F0DDBD06F008FB88
:10FEB00021680346304691F85A202946BDE8704033
:10FEC00008F0D1BD78B50C4600210091082804BF88
:10FED0004FF4C87040210DD0042804BF4FF4BF7008
:10FEE000102107D0022807BF01F11800042101F1F9
:10FEF00028000821521D02FB01065D489DF80010F4
:10FF0000006890F85C2062F3050141F040058DF82F
:10FF1000005090F85B00012804BF9DF8020020F01B
:10FF2000E0002AD0022818BFFFDF21D025F0800092
:10FF30008DF80000C4EB041000EB80001E2101EBE3
:10FF4000800006FB04044B48844228BFFFDF4A4878
:10FF5000A0FB0410BDF80110000960F30C01ADF81E
:10FF60000110BDF800009DF8021040EA014078BD84
:10FF70009DF8020020F0E00020308DF80200D5E767
:10FF80002DE9F0413A4D04460E46286890F8680085
:10FF9000002818BFFFDF0027286880F86A702188D2
:10FFA000A0F86C106188A0F88210A188A0F88410D5
:10FFB000E188A0F8861094F86C1180F8881090F809
:10FFC0002F1049B1427B00F10E01012A04D1497979
:10FFD00001F0C001402934D090F8301041B1427B8B
:10FFE00000F10E01012A04BF497911F0C00F28D099
:10FFF00000F1760014F032FF6868FF2E0178C1F33B
:020000040001F9
:1000000080116176D0F80310C4F81A10B0F8070018
:10001000E08328681DD0C167E18BA0F8801000F153
:100020007002511E30460BF0EBFC002808BFFFDFCA
:10003000286890F86F1041F0020180F86F10BDE859
:10004000F081D0F80E10C0F87610418AA0F87A102E
:10005000D2E7C767A0F88070617E80F86F10D4F88F
:100060001A100167E18BA0F87410BDE8F081000060
:1000700060000020C4BF0300898888880178406838
:1000800029B190F80C1190F8730038B901E001F033
:10009000ABBC19B1042901D0012070470020704782
:1000A00070B50C460546062102F000FB606008B101
:1000B000002006E00721284602F0F8FA606018B137
:1000C00001202070002070BD022070BD2DE9FC478A
:1000D0000C4606466946FFF7E3FF00287DD19DF8F0
:1000E000000050B1FEF757F9B0427CD021463046AF
:1000F00009F038FE002873D12DE00DF089FAB042E6
:1001000071D02146304612F02BFB002868D1019DAA
:1001100095F8D00022E0012000E00020804695F80C
:1001200037004FF0010A4FF00009F0B195F83800A0
:1001300080071AD584F8019084F800A084F8049010
:10014000E68095F839102172698F6181A98FA181AC
:1001500085F8379044E0019D95F80C01583500284A
:10016000DBD1E87E0028D8D0D5E7304602F0E2FBAC
:10017000070000D1FFDF384601F0F2FD40B184F8FE
:1001800001900F212170E680208184F804A027E0EF
:10019000304602F0BDFB070000D1FFDFB8F1000FD1
:1001A00021D0384601F033FEB8B19DF8000038B9CF
:1001B0000198D0F8F8004188B14201D180F8009050
:1001C000304607F048F984F801900C21217084F83A
:1001D0000490E680297F217200E004E085F81B90FE
:1001E0000120BDE8FC870020FBE71CB56946FFF74E
:1001F00057FF00B1FFDF684601F002FCFA4900201A
:100200008968A1F8D2001CBD2DE9FC4104460E46C8
:10021000062002F0F3F90546072002F0EFF9284422
:10022000C7B20025A8463E4417E02088401C80B293
:100230002080B04202D34046A4F8008080B2B84289
:1002400004D3B04202D20020BDE8FC816946FFF72A
:1002500027FF0028F8D06D1CEDB2AE42E5D84FF66E
:10026000FF7020801220EFE738B54FF6FF70ADF831
:1002700000000DE00621BDF8000002F029FA044656
:100280000721BDF8000002F023FA0CB100B1FFDF36
:1002900000216846FFF7B8FF0028EBD038BD70B5E5
:1002A00007F046F90BF073F9D04C4FF6FF760025B6
:1002B0006683A683CEA0257001680079A4F1400270
:1002C000657042F8421FA11C1071601C12F014FCF2
:1002D00025721B2060814FF4A471A181E0812182ED
:1002E0000321A1740422E274A082E082A4F13E0002
:1002F000218305704680BC480C300570A4F11000C5
:100300000570468070BD70B5B74C16460D466060EE
:10031000217007F087F8FFF7A7FFFFF7C0FF2078ED
:1003200010F073FAB4480DF0E7FD2178606812F020
:10033000F6FA20780AF0B6FB284608F049F9AE48EC
:10034000FEF734F82178606809F0F2FD3146207834
:1003500013F094F9BDE870400BF019B910B5012401
:100360000AB1002010BD21B1012903D0002420468C
:1003700010BD02210CF00AFFF9E72DE9F047040057
:1003800000D1FFDF994802211C308146FFF73CFF76
:1003900000B1FFDF954D0620B5F81C8002F02EF964
:1003A0000646072002F02AF93044C6B2701CC7B2D4
:1003B000A88BB04228D120460DF0A0F8B0B120782B
:1003C00018283FD1207901283CD1E088062102F08D
:1003D0006DF9040000D1FFDF208807F03CF8208889
:1003E000062102F075F940B3FFDF2BE0287860B3F7
:1003F00000266670142020702021201D14F023FC9C
:10040000022020712E701DE0B84217D12046FDF762
:1004100067FFD0B12078172814D1207968B1E0881F
:10042000072102F043F940B1008807F014F8E08892
:10043000072102F04DF900B1FFDF03E02146FFF78D
:1004400045FE10B10120BDE8F08702214846FFF7C4
:10045000DBFE10B9A98B4145AAD12046BDE8F04783
:1004600013F052B910B501F067FA08B10C2010BDB5
:100470000BF0E0F8002010BD10B50446007818B16C
:10048000012801D0122010BD01F067FA20B10BF055
:1004900081FA08B10C2010BD207801F00FFAE21D9E
:1004A00004F11703611CBDE810400BF068B910B5EA
:1004B000044601F041FA08B10C2010BD207828B1A3
:1004C000012803D0FF280BD0122010BD01F0F6F94F
:1004D000611C0BF06FF808B1002010BD072010BDA3
:1004E00001200BF0A1F8F7E710B50BF056FA08B1B0
:1004F000002010BD302010BD10B5044601F02DFACB
:1005000008B10C2010BD20460BF041FA002010BDB0
:1005100010B501F022FA20B10BF03CFA08B10C2022
:1005200010BD0BF091F9002010BDFF2181704FF636
:10053000FF7181802C4949680A7882718A8802811A
:100540004988418101214170002070471CB5002479
:1005500012F1080F15D00CDC12F1280F11D012F196
:10056000140F0ED012F1100F0BD012F10C0F0ED190
:1005700007E012F1040F04D01AB1032A01D0042AB3
:1005800005D1012806D0022808D003280AD0122459
:1005900020461CBD1046FEF77CFAF9E710460DF028
:1005A00051FCF5E7084614466946FFF779FD08B1A6
:1005B0000224EDE79DF80000019880F857400024E0
:1005C000E6E710B5134601220CF0D4F8002010BD68
:1005D00010B5044610F0FCFE05280FD0204610F0A0
:1005E00003F9002010BD00006C000020E40700208B
:1005F000FFFFFFFF1F000000A40600200C20F1E712
:1006000010B5044601F0A9F908B10C20EAE721462B
:10061000002006F08EFF0020E4E710B5044610F03D
:1006200071F950B108F04DFA38B1207807F0F5FFB4
:1006300020780DF0F3FE0020D4E70C20D2E710B5AF
:10064000044601F08AF908B10C20CBE721460120CD
:1006500006F06FFF0020C5E738B504464FF6FF707F
:10066000ADF80000A079E179884216D02079FDF735
:10067000A4FD90B16079FDF7A0FD70B10022A079D2
:10068000114613F011FC40B90022E079114613F035
:100690000BFC10B9207A072801D9122038BD08F0C8
:1006A0001DFA60B910F094FE48B900216846FFF7C2
:1006B000ABFD20B1204605F016FF002038BD0C2010
:1006C00038BD2DE9FC41817805461A2925D00EDC7C
:1006D00016292DD2DFE801F02C2C2C2C2C212C2CCF
:1006E0002C2C2C2C2C2C2C2C2C2C2C2121212A2970
:1006F0001ED00BDCA1F11E010C2919D2DFE801F09C
:1007000018181818181818181818180D3A39042934
:100710000ED2DFE801F00D020D022888B0F5706FEF
:1007200006D201276946FFF7BBFC18B102208BE512
:10073000122089E59DF8000001F0CCF8019C08B179
:10074000F43401E004F5B8749DF8000001F0C2F83B
:10075000019E08B1F53601E006F271166846FFF712
:100760008DFC08B1207808B10C206DE52770A878C1
:100770003070684601F044F9002065E57CB50D460F
:100780006946FFF78DFC002618B12E602E710220FD
:100790007CBD9DF8000001F09DF8019C9DF80000D3
:1007A000583401F097F8019884F840608168296016
:1007B000017B297194F840100029F5D100207CBDFF
:1007C00070B50D4604460189002380880CF031F98C
:1007D000696A81421DD2401A401CA1884008091A4A
:1007E0008AB2A2802189081A2081668895F854105F
:1007F00010460CF0F8F8864200D230466080E68859
:1008000095F8551020890CF0EEF8864200D230465B
:10081000E08070BDF0B585B00D46064603A9FFF730
:100820003FFC00282DD19DF80C0060B300220499F4
:10083000FB20B1F84A30FB2B00D30346B1F84C4003
:10084000FB20FB2C00D30446DFF890CA9CE8811003
:1008500000900197CDF808C0ADF80230ADF8064021
:100860006846FFF7ADFF6E80BDF80400E880BDF874
:1008700008006881BDF80200A880BDF80600288144
:10088000002005B0F0BD0122D1E72DE9F04186B08E
:10089000044600886946FFF703FC002868D12189D7
:1008A000E08801F0BCF8002862D1A188608801F0DE
:1008B000B6F800285CD12189E08801F0BEF8002854
:1008C00056D1A188608801F0B8F8070050D120887F
:1008D00002A9FFF79FFF00B1FFDFBDF8101062888B
:1008E0000920914244D3BDF80C10E28891423FD3D5
:1008F000BDF81210BDF80E2023891144A2881A44B5
:10090000914235D39DF80000019D4FF0000801266B
:1009100040B185F89B61019890F8DE0105F5CD7531
:1009200040B914E085F80561019890F8280105F5B3
:10093000827508B13A2718E0E08868806088E8800E
:100940002089A880A08828810122019909E0E088F7
:1009500068806088E8802089A880A0882881019923
:1009600000222846FFF72CFF2E7085F801803846BC
:1009700006B0BDE8F08188E710B5044600F0EDFF51
:1009800020B10BF007F808B10C202BE6207800F01E
:1009900095FFE279611C0BF07EF908B1002021E699
:1009A00002201FE610B503780446002B406813466A
:1009B0000A46014608D001200CF06BF96168496ACB
:1009C000884203D901200DE60020F5E7002009E662
:1009D000887800B90320C97801B903211070197013
:1009E0000020704710B586B00446008803A9FFF7C1
:1009F00057FB002806D1A08830B1012804D0022876
:100A000002D0122006B0EDE56B4602AA214603A8EB
:100A1000FFF7DEFF0028F5D19DF80C300022012100
:100A2000002B049B06D083F8A511049B93F8F231A8
:100A30004BBB20E083F80F11049B93F834313BB992
:100A4000049B93F80E311BB9049B93F87D300BB1D6
:100A50003A200CE0049B83F80E11049B9DF80810CB
:100A600083F81011049B9DF8001083F8111104996C
:100A700081F80F21C6E7049B93F8A4311BB9049BAE
:100A800093F87D300BB13A200CE0049B83F8A4115D
:100A9000049B9DF8081083F8A611049B9DF8001094
:100AA00083F8A711049981F8A521ABE710B5044696
:100AB0000020A17801B90120E2780AB940F00200D3
:100AC00000F0C5FF002803D12046BDE8104089E7AB
:100AD00088E52DE9F04104460078012804D018B1DA
:100AE000022801D003281ED1607828B1012803D044
:100AF000022801D0032816D1E07B10B9A078012884
:100B000011D1A07830F005020DD110F0050F0AD0F8
:100B1000400801D011202CE7E078E68862890F4672
:100B200018B1012801D0122023E7104600F09FFFE2
:100B3000302558B13946304600F0A3FF30B1A07BD4
:100B40000028F0D00728EED8002012E7284610E74A
:100B50001FB5044600F0E3FE10B10C2004B041E5DF
:100B6000022104F10A0000F096FFA0788DF8080039
:100B7000A0788DF8000060788DF8040020788DF85A
:100B80000300A07B8DF80500E07B00B101208DF80B
:100B90000600A078C0070DD0E078012813D0A0B1DE
:100BA0005FF000008DF80100E088ADF80A00608970
:100BB000ADF80C0002A80FF0B1FE0028CED16846B7
:100BC0000DF031FCCAE70220ECE70120EAE710B59E
:100BD00004460121FFF77DFF002803D12046BDE830
:100BE0001040B5E7FEE40278012A01D0BAB118E05E
:100BF00042783AB1012A05D0022A12D189B18188FE
:100C000079B100E059B1418849B1808838B101EB30
:100C10008101490000EB8000B1EB002F01D20020E0
:100C200070471220704770B5044600780D460128C1
:100C300009D010F0CDFB052803D00FF080FD00286F
:100C400000D00C2070BD0DF0CFFA88B10DF0E1FAA4
:100C50000DF0C6FB0028F5D125B160780DF076FBCC
:100C60000028EFD1A1886088BDE870400FF071BE08
:100C7000122070BD10B504460121FFF7B4FF002813
:100C800004D12046BDE810400121CCE7AAE42DE9BB
:100C9000F0470746B0F84C50FB2092460E46FB2D1D
:100CA00000D30546DFF83886B8F80A00A84200D21B
:100CB000054697F85510284600F020FEB8F80C10AD
:100CC000814200D208468146B7F84A40FB20FB2CFF
:100CD00000D30446B8F80E00A04200D2044697F8AC
:100CE0005410204600F00AFEB8F81010814200D2DD
:100CF00008464FF4A4721B2C01D0904203D11B2D47
:100D000025D0914523D0F580A6F808907480B08056
:100D1000524639463046FFF753FD01203070F088C7
:100D20001B38E02800D9FFDF70881B38E02800D985
:100D3000FFDF30894FF4E064A0F5A470A04200D931
:100D4000FFDFB088A0F5A470A04200D9FFDFBDE8A6
:100D5000F087F0B5871FDDE9056540F67B44A742C3
:100D600013D28F1FA74210D288420ED8B2F5FA7F55
:100D70000BD2A3F10A00241FA04206D2521C4A4300
:100D8000B2EB830F01DAAE4201D90020F0BD0120A1
:100D9000F0BD2DE9FC41477A04468846780778D0B3
:100DA000F80876D1780701D51120C0E494F83A000C
:100DB00008B9012F78D100252E46F8071BD088F0FE
:100DC0000105208A294600F052FE48B36089294671
:100DD00000F057FE20B3208A6189884264D8A18E32
:100DE000E08DCDE90001238D628CA18BE08AFFF7B5
:100DF000B0FFA8B10125B8070ED504EB4500828EDF
:100E0000C18DCDE90012038D428C818BC08AFFF722
:100E1000A0FF28B16D1C2E46B8F1000F02D027E0CC
:100E2000302084E4228A01211DE0B14203D004EB8A
:100E30004100008A024404EB4100C38A878ABB4216
:100E400032D1838B478BBB422ED1438C078CBB4264
:100E50002AD1038DC78CBB4226D1438900898342A6
:100E600022D1491CC9B2A942DFD3608990421BD369
:100E7000207810B1012817D10EE0A078B8F1000F4A
:100E800008D048B1012807D0022805D003280BD18B
:100E900002E009E00028EDD1607838B1012805D0E2
:100EA000022803D0032801D0122040E400203EE4B1
:100EB00000216EE70178C90702D0406812F0F7BB45
:100EC00012F0C4BB2DE9F0438DB00D46AFF6E00241
:100ED000D2E9008701462846FFF75BFF00280CD1C6
:100EE00000F01DFD40B9FE4E307828B90CF090FBA3
:100EF000A0F57F41FF3903D00C200DB0BDE8F08391
:100F0000032105F1100000F0C6FDF54808AA3E389F
:100F10000890F4480990F248062110380A900BA86E
:100F200001F092FB040035D003210BF0C2F9B18A25
:100F3000A4F84A10F28AA4F84C20F37C0093B1463E
:100F4000B37C208801F06DFC00B1FFDF208806F043
:100F500081FA218804F10E0000F009FDE2A004F1FD
:100F6000120600680490032104A804F0B1FD0020DB
:100F700004A90A5C3254401CC0B20328F9D3A88BE0
:100F80006080688CA080288DE080687AC10703D0DB
:100F9000012106E00920B0E7800701D5022100E029
:100FA0000021B9F818000A460FF068FD0146A0625A
:100FB00020460FF071FD002684F85E6084F85F60C3
:100FC000A87800F07BFC6076D5F80300C4F81A001E
:100FD000B5F80700E083C4F808802773012084F87F
:100FE0000001024604F582712046FFF750FE8DF89D
:100FF00000600121684604F06BFD9DF8000000F0E0
:101000000701C0F3C1021144C0F3401008448DF839
:101010000000401D2076092801D2083020760021EA
:1010200020460BF046F968780DF0E9F8A9782878A1
:10103000EA1C0DF0B7F848B10DF0EBF8A978287864
:10104000EA1C0DF05DF9060002D038E0122636E009
:10105000687A00F001010020CA0700D0012089074A
:1010600001D540F002000DF086F8060027D1214698
:1010700003200DF06FF9060021D1687A00F001011C
:101080008DF80810C00705D06889ADF80A00288AD5
:10109000ADF80C0002A80FF041FC064695F83A00A6
:1010A00000B101200DF079F84EB90DF099F9060064
:1010B00005D1A98F20460FF0D3FB060008D0208869
:1010C00006F0C9F92088062101F002FB00B1FFDF1C
:1010D000304612E701460020F4E638B58048007833
:1010E00078B910F075F9052805D00CF091FAA0F543
:1010F0007F41FF3905D068460FF06FFC040002D035
:101100000CE00C2038BD0098008806F0A4F9009887
:101110000621008801F0DCFA00B1FFDF204638BD6F
:101120001CB582894189CDE900120389C288818872
:101130004088FFF70EFE08B100201CBD30201CBD0A
:1011400070B50546FFF7ECFF00280ED12888062170
:1011500001F0ACFA040007D000F046FC20B1D4F84E
:10116000F800017831B901E0022070BDD4F84411D3
:10117000097809B13A2070BD05218171D4F8F810C1
:1011800000200881D4F8F810A8884881D4F8F81015
:10119000E8888881D4F8F8102889C881D4F8F80044
:1011A000028941898A4204D88279082A01D88A4270
:1011B00001D3122070BD29884180D4F8F810022094
:1011C0000870002070BD3EB504460BF065FAB0B162
:1011D00043480125A0F140024570236842F8423F90
:1011E00023790021137141706946062001F0E7F967
:1011F00000B1FFDF684601F0C0F910B10EE0122027
:101200003EBDBDF80440029880F80051684601F0E8
:10121000B4F918B9BDF80400A042F4D100203EBDD5
:1012200070B505460088062101F040FA040007D099
:1012300000F0DAFB20B1D4F8F810087830B901E0FA
:10124000022070BDD4F84401007808B13A2070BD86
:101250009620005D10F0010F18D0D5F8020048600C
:10126000D5F80600886054F8F80F6989102281814A
:10127000206805F10C010E3013F044FC21680320B6
:101280000870216828884880002070BD0C2070BD3F
:1012900038B504460078EF2856D86088ADF80000CD
:1012A000009800F009FCD0B36188080708D4D4E99D
:1012B0000120824248D8202A46D3B0F5804F43D837
:1012C000207B60B307283FD8607B28B1012803D07A
:1012D000022801D0032837D14A0707E0BC5002009A
:1012E000E4070020780000201122330003D40228F4
:1012F00001D0032805D1A07B08B1012824D14807DB
:1013000007D4607D28B1012803D0022801D003282A
:101310001AD1C806E07D03D5012815D110E013E0ED
:10132000012801D003280FD1C80609D4607E012806
:1013300003D0022801D0032806D1A07E0F2803D8AD
:10134000E07E18B1012801D0122038BD002038BD40
:10135000F8B515460E46044607F0C0FB08B10C2050
:10136000F8BD2046FFF794FF0028F9D1E07D03285F
:101370000BD0A078C00602D4607E032805D0FDF70C
:101380008DFB3070A07515B10CE01120F8BDFF2069
:101390008DF8000069460020FDF76FFB69460020CC
:1013A000FDF75FFB2046BDE8F840FDF7BBBA002221
:1013B000CEE770B50C46054612B11F2907D80CE0E0
:1013C000FF2C04D8FDF735F818B11F2C01D91220D5
:1013D00070BD2846FDF717F808B1002070BD422007
:1013E00070BD10B50446408810B1FDF71DFB78B103
:1013F0002078618800F001026078FFF7DAFF0028AA
:1014000005D1FDF7F9FA6288824203D907203DE44D
:1014100012203BE410466168FDF72FFB002035E405
:1014200010B50446408810B1FCF7F5FF70B1207884
:10143000618800F001026078FFF7BBFF002804D14B
:1014400060886168FDF70DFB00201FE412201DE499
:101450007CB5054640784224012808D8A878FCF7D6
:10146000D2FF20B128781224012802D090B1204662
:101470007CBDFDF71FFB20B1A8880028F7D080288D
:10148000F5D8FDF71EFB60B168780028EFD028780A
:10149000012808D006F0FEF8044606F0F6FF002802
:1014A00072D00C207CBDFDF756F910B9FDF7FBFAA0
:1014B00090B307F013FB0028F3D1FCF76CFFA0F505
:1014C0007F41FF39EDD1FDF768F9AE8842F2107027
:1014D0004643A879FDF7B9FAFCF7A4FFF8B100225A
:1014E000072101A801F0B0F804001FD0F74803213C
:1014F000846020460AF098FD2046FDF74AFEF44D30
:10150000A88AA4F84A00E88AA4F84C00FCF791FFE6
:1015100070B1288B01210FE0FFE712207CBD31461E
:10152000002007F07DF868B3FFDF37E009207CBDBD
:10153000FDF7C9FA0146288B07F01DF90146A062A4
:101540000022204606F0A9F8FCF773FF08B9FDF762
:10155000BAFAE87C0090AB7CEA8AA98A208801F07C
:1015600060F900B1FFDF208805F074FF31462046A6
:1015700007F056F800B1FFDF002204F5CD712046D8
:10158000FFF785FB0AE0FFE744B1208805F063FF21
:101590002088072101F09CF800B1FFDF00207CBD0E
:1015A000002155E770B50D46072101F07FF80400D2
:1015B00003D094F8730110B10AE0022070BD94F8D2
:1015C0006500142801D0152802D194F8C00108B193
:1015D0000C2070BD1022294604F5BA7013F092FA5F
:1015E000012084F87301002070BD10B5072101F0BF
:1015F0005DF818B190F8731111B107E0022006E709
:1016000090F86510142903D0152901D00C20FEE6AE
:10161000022180F873110020F9E62DE9FC410C4607
:101620004BF68032122194421CD8DCB16946FEF799
:1016300037FD002815D19DF8000000F04BF9019E00
:101640009DF80000583600F045F9019DAD1C2F882B
:101650002246394630460AF0A2FC2888B842F6D124
:10166000002022E4084620E47CB504460088694650
:10167000FEF716FD002810D19DF8000000F02AF9B1
:10168000019D9DF80000583500F024F90198A278DA
:1016900090F82C10914201D10C207CBD7F21297241
:1016A000A9720021E972E17880F82D10217980F883
:1016B0002E10A17880F82C1000207CBD1CB50C46A3
:1016C0006946FEF7EDFC00280AD19DF8000000F005
:1016D00001F9019890F8730000B1012020700020FA
:1016E0001CBD7CB50D4614466946FEF7D9FC0028A2
:1016F00009D19DF8000000F0EDF8019890F82C0059
:10170000012801D00C207CBD9DF8000000F0E2F81B
:10171000019890F86010297090F861002070002006
:101720007CBD70B50D461646072100F0BFFF18B30B
:1017300081880124C388428804EB4104AC4217D855
:1017400042F210746343A4106243B3FBF2F2521EE0
:1017500094B24FF4FA72944200D91446A54200D2D2
:101760002C46491C641CB4FBF1F24A43521E91B250
:1017700090F8AC211AB901E0022070BD01843180DB
:10178000002070BD10B50C46072100F08FFF48B156
:1017900080F8DF4024B190F8DD1009B107F001F8BE
:1017A000002034E6022032E6017899B1417889B10F
:1017B00041881B290ED381881B290BD3C18802299C
:1017C00008D343490268403941F8522F40684860C5
:1017D000002070471220704710B504460FF04AF9F8
:1017E000204606F097FF002011E610B506F095FFA1
:1017F00000200CE62DE9F04115460F460646012271
:10180000114638460FF03AF904460121384606F0F1
:10181000B2FF844200D2044601213046653C00F00C
:101820005EF806460121002000F059F830440121FD
:101830009630844206D900F19601201AB0FBF1F0EF
:10184000401C81B229800020BDE8F08110B504461B
:1018500000F083F808B10C20D9E5601C0AF0F6F915
:10186000207800F00100FCF793FF207800F00100E1
:101870000CF0CAFC0020CAE510B50446072000F0B1
:10188000AFFE08B10C20C2E52078C00710D00022BE
:101890006078114612F008FB08B11220B7E5A06885
:1018A00008F0A3FE6078616808F0A8FE0020AEE5AD
:1018B000002008F09AFE00210846F5E718B102283A
:1018C00001D0012070470020704700006C0000200C
:1018D000E407002008B10020F6E70120F4E710B586
:1018E000012904D0022905D0FFDF20468FE5C00082
:1018F000503001E080002C3084B2F6E711F00C0F7C
:1019000004D04FF4747101EB801006E0022902D07C
:10191000C000703001E080003C3080B2D4E710B5E8
:101920000FF056FD042805D00FF052FD052801D018
:1019300000206CE501206AE510B5FFF7F0FF10B15B
:101940000CF012FD28B907F0C9F820B1FCF7FBFE36
:1019500008B101205BE5002059E510B5FFF7DFFF76
:1019600018B907F0BBF8002800D001204FE52DE999
:10197000FE4300250F4680460A260421404604F017
:10198000D0F840460AF064FE062000F037FE044618
:1019900015E06946062000F012FE0AE0BDF80400DA
:1019A000B84206D00298042241460E3013F07EF869
:1019B00050B1684600F0E1FD0500EFD0641E002C38
:1019C00006DD002DE5D005E040460AF04AFEF5E7C9
:1019D00005B9FFDFD8F800000AF0EBFA761E01D057
:1019E0000028CAD0BDE8FE8390F8D01090F87300AC
:1019F00020B919B1042901D0012065E7002063E76F
:101A0000017800290AD0416891F8DD20002A05D02C
:101A1000002281F8DD20406806F0C3BE54E71B3881
:101A2000E12806D2B1F5A47F03D344F2902081428D
:101A300001D9122048E7002046E7FB2803D840F6EA
:101A40004800814201D911203EE700203CE770B5F3
:101A500014460546012200F053F8002806D121461D
:101A60002846BDE87040002200F04AB870BD042846
:101A700003D321B9B0F5804F01D9002024E701201C
:101A800022E7042803D321B9B0F5804F01D9002003
:101A90001AE7012018E710B500224FF4C84408E007
:101AA00030F81230A34200D9234620F81230521CDD
:101AB000D2B28A42F4D3AAE480B2C1060BD40107A1
:101AC0001CD481064FEAC07101D5B9B900E099B1C3
:101AD000800713D410E0410610D481060ED4C1074C
:101AE0004FEA807104D0002902DB400704D405E0EE
:101AF000010703D4400701D40120E5E60020E3E616
:101B00000AB1012200E00222024202D1880802D179
:101B100009B10020D8E61120D6E6000030B50588CE
:101B200025F4004421448CB24FF4004194420AD27F
:101B3000121B92B21B339A4201D2A94307E005F46B
:101B40000041214303E0A21A92B2A943114301804C
:101B500030BD0844083050434A31084480B27047D1
:101B600070B51D4616460B46044629463046049A73
:101B7000FFF7EFFF0646B34200D2FFDF28212046E1
:101B800013F061F84FF6FF70A082283EB0B265777F
:101B90006080B0F5004F00D9FFDF618805F13C009F
:101BA000814200D2FFDF60880835401B343880B2A4
:101BB00020801B2800D21B2020800020A07770BD31
:101BC0008161886170472DE9F05F0D46C188044648
:101BD00000F12809008921F4004620F4004800F0B3
:101BE00062FB10B10020BDE8F09F4FF0000A4FF0FB
:101BF000010BB0450CD9617FA8EB0600401A0838EC
:101C0000854219DC09EB06000021058041801AE0BD
:101C10006088617F801B471A083F0DD41B2F00DAB4
:101C2000FFDFBD4201DC294600E0B9B2681A0204B8
:101C3000120C04D0424502DD84F817A0D2E709EB6C
:101C400006000180428084F817B0CCE770B50446E6
:101C500000F12802C088E37D20F400402BB110443D
:101C60000288438813448B4201D2002070BD0025B6
:101C70008A4202D30180458008E0891A0904090CD0
:101C8000418003D0A01D00F01EFB08E0637F0088A8
:101C90000833184481B26288A01DFFF73FFFE57545
:101CA000012070BD70B5034600F12804C588808806
:101CB00020F400462644A84202D10020188270BDBC
:101CC00098893588A84206D3401B75882D1A204470
:101CD000ADB2C01E05E02C1AA5B25C7F2044304492
:101CE000401D0C88AC4200D90D809C8924B1002491
:101CF00014700988198270BD0124F9E770B5044693
:101D000000F12801808820F400404518208A00282E
:101D100025D0A189084480B2A08129886A8811440D
:101D2000814200D2FFDF2888698800260844A18903
:101D3000884212D1A069807F2871698819B1201D5D
:101D400000F0C1FA08E0637F28880833184481B2A4
:101D50006288201DFFF7E2FEA6812682012070BD69
:101D60002DE9F041418987880026044600F12805C5
:101D7000B94218D004F10A0821F4004028444188EF
:101D800019B1404600F09FFA08E0637F00880833ED
:101D9000184481B262884046FFF7C0FE761C618914
:101DA000B6B2B942E8D13046BDE8F0812DE9F04144
:101DB00004460B4627892830A68827F40041B4F84A
:101DC0000A8001440D46B74201D10020ECE70AB178
:101DD000481D106023B1627F691D184612F092FE03
:101DE0002E88698804F1080021B18A1996B200F0A2
:101DF0006AFA06E0637F62880833991989B2FFF7AF
:101E00008DFE474501D1208960813046CCE781882D
:101E1000C088814201D101207047002070470189AC
:101E20008088814201D1012070470020704770B541
:101E30008588C38800F1280425F4004223F400417A
:101E400014449D421AD08389058A5E1925886388C7
:101E5000EC18A64214D313B18B4211D30EE0437F8A
:101E600008325C192244408892B2801A80B223332F
:101E7000984201D211B103E08A4201D1002070BD25
:101E8000012070BD2DE9F0478846C18804460089CD
:101E900021F4004604F1280720F4004507EB060969
:101EA00000F001FA002178BBB54204D9627FA81B7B
:101EB000801A002503E06088627F801B801A083842
:101EC00023D4E28962B1B9F80020B9F802303BB1FD
:101ED000E81A2177404518DBE0893844801A09E088
:101EE000801A217740450ADB607FE1890830304461
:101EF00039440844C01EA4F81280BDE8F087454567
:101F000003DB01202077E7E7FFE761820020F4E7A9
:101F10002DE9F74F044600F12805C088884620F4D3
:101F2000004A608A05EB0A0608B1404502D200204B
:101F3000BDE8FE8FE08978B13788B6F8029007EBEC
:101F40000901884200D0FFDF207F4FF0000B50EAEC
:101F5000090106D088B33BE00027A07FB946307165
:101F6000F2E7E18959B1607F2944083050440844C0
:101F7000B4F81F1020F8031D94F821108170E28935
:101F800007EB080002EB0801E1813080A6F802B0FF
:101F900002985F4650B1637F30880833184481B29D
:101FA0006288A01DFFF7BAFDE78121E0607FE1892B
:101FB00008305044294408442DE0FFE7E089B4F894
:101FC0001F102844C01B20F8031D94F821108170B5
:101FD00009EB0800E28981B202EB0800E08137805A
:101FE00071800298A0B1A01D00F06DF9A4F80EB0A8
:101FF000A07F401CA077A07D08B1E088A08284F873
:1020000016B000BFA4F812B084F817B001208FE713
:10201000E0892844C01B30F8031DA4F81F10807805
:1020200084F82100EEE710B5818800F1280321F43F
:1020300000442344848AC288A14212D0914210D025
:10204000818971B9826972B11046FFF7E8FE50B913
:102050001089283220F40040104419790079884210
:1020600001D1002010BD184610BD00F12803407FAB
:1020700008300844C01E1060088808B9DB1E1360D1
:1020800008884988084480B270472DE9F04100F182
:102090002806407F1C4608309046431808884D8823
:1020A000069ADB1EA0B1C01C80B2904214D9801ADF
:1020B000A04200DB204687B298183A46414612F00B
:1020C000F5FC002816D1E01B84B2B844002005E0DE
:1020D000ED1CADB2F61EE8E7101A80B20119A94254
:1020E00006D8304422464146BDE8F04112F0DEBC3D
:1020F0004FF0FF3058E62DE9F04100F12804407F11
:102100001E46083090464318002508884F88069AD6
:10211000DB1E90B1C01C80B2904212D9801AB0422E
:1021200000DB304685B299182A46404612F0EAFC98
:10213000701B86B2A844002005E0FF1CBFB2E41E5D
:10214000EAE7101A80B28119B94206D8211832463E
:10215000404612F0D7FCA81985B2284624E62DE99E
:10216000F04100F12804407F1E4608309046431895
:10217000002508884F88069ADB1E90B1C01C80B2EB
:10218000904212D9801AB04200DB304685B29818CE
:102190002A46414612F0B6FC701B86B2A8440020C5
:1021A00005E0FF1CBFB2E41EEAE7101A80B28119F5
:1021B000B94206D820443246414612F0A3FCA81981
:1021C00085B22846F0E5401D704710B5044600F181
:1021D0002801C288808820F400431944904206D028
:1021E000A28922B9228A12B9A28A904201D1002082
:1021F00010BD0888498831B1201D00F064F8002026
:102200002082012010BD637F62880833184481B2A8
:10221000201DFFF783FCF2E70021C1810177418295
:10222000C1758175704703881380C28942B1C28825
:1022300022F4004300F128021A440A60C089704762
:102240000020704710B50446808AA0F57F41FF3911
:1022500000D0FFDFE088A082E08900B10120A075F6
:1022600010BD4FF6FF71818200218175704710B556
:102270000446808AA0F57F41FF3900D1FFDFA07DB1
:1022800028B9A088A18A884201D1002010BD012070
:1022900010BD8188828A914201D1807D08B10020E1
